:020000040800F2
:1000000000000220852F0008D52F0008D52F0008FA
:10001000D52F0008D52F0008D52F000800000000BC
:10002000000000000000000000000000D52F0008C4
:10003000D52F000800000000D52F0008812D0008F2
:10004000D52F0008D52F0008D52F0008D52F000880
:10005000D52F0008D52F0008B12E0008BB2E0008B0
:10006000C52E0008CF2E0008D92E0008D52F000875
:10007000D52F0008D52F0008D52F0008D52F000850
:10008000D52F0008D52F0008D52F0008D52F000840
:10009000D52F0008D52F0008D52F0008E32E000823
:1000A000A5360008D1350008B9360008F13500083A
:1000B00005360008193600082D360008DD34000822
:1000C000ED340008FD3400080D350008D52F000878
:1000D000D52F0008D52F0008D52F0008D52F0008F0
:1000E000F92E0008752F0008D52F0008CD3600081E
:1000F0007D360008E136000891360008D52F00084B
:10010000D52F0008D52F000841360008D52F00084C
:10011000D52F0008D52F000855360008693600088D
:10012000D52F0008D52F0008D52F0008D52F00089F
:10013000D52F0008D52F0008D52F0008D52F00088F
:10014000D52F0008D52F0008D52F0008D52F00087F
:10015000D52F0008D52F0008D52F0008D52F00086F
:100160001D3500082D350008D52F0008D52F0008B3
:10017000D52F0008D52F0008D52F0008000000005B
:08018000D52F0008D52F00085F
:1001C00090F800F06DE9024520F007016FF0000C97
:1001D00010F0070491F820F040F049804FF000043F
:1001E0006FF00700D1E9002391F840F000F108001A
:1001F00082FA4CF2A4FA8CF283FA4CF3A2FA8CF352
:100200004BBBD1E9022382FA4CF200F10800A4FAB8
:100210008CF283FA4CF3A2FA8CF3E3B9D1E904230C
:1002200082FA4CF200F10800A4FA8CF283FA4CF343
:10023000A2FA8CF37BB9D1E9062301F1200182FAFD
:100240004CF200F10800A4FA8CF283FA4CF3A2FA03
:100250008CF3002BC6D0002A04BF04301A4612BA11
:10026000B2FA82F2FDE8024500EBD2007047D1E914
:10027000002304F00305C4F100004FEAC50514F0A3
:10028000040F91F840F00CFA05F562EA05021CBF74
:1002900063EA050362464FF00004A9E753B94AB97F
:1002A000002908BF00281CBF4FF0FF314FF0FF307E
:1002B00000F00CB8ADF1080C6DE904CE03F0C2FB00
:1002C000DDF804E0DDE9022304B07047704700BFA9
:1002D0000348044B834202D0034B03B118477047D5
:1002E0003C0400203C0400200000000005480649B2
:1002F000091A891001EBD171491002D0034B03B1E7
:10030000184770473C0400203C0400200000000017
:1003100010B5064C237843B9FFF7DAFF044B13B14D
:100320000448AFF300800123237010BD3C0400207B
:1003300000000000C03D000808B5054B1BB1054991
:100340000548AFF30080BDE80840FFF7CFBF00BF0E
:100350000000000040040020C03D0008024A13686D
:1003600001331360704700BF5804002030B58BB0D4
:100370000024059406940794089409940094284B4B
:100380001A6B42F010021A631A6B02F0100200920C
:10039000009A01941A6B42F080021A631A6B02F001
:1003A00080020192019A02941A6B42F008021A63C9
:1003B0001A6B02F008020292029A03941A6B42F03E
:1003C00004021A631A6B02F004020392039A049463
:1003D0001A6B42F001021A631B6B03F001030493D2
:1003E000049B104D22464FF6FF71284600F018FE80
:1003F0004FF6FF730593012306930794089405A90C
:10040000284600F029FD4FF4E043059303230693AB
:10041000079405A9044800F01FFD0BB030BD00BFD4
:100420000038024000100240000C024000B587B0C6
:10043000002100910B4B1A6B42F010021A631B6BE8
:1004400003F010030093009B4FF6FF730193012309
:1004500002930391049301A9034800F0FDFC07B047
:100460005DF804FB003802400010024000B583B084
:1004700000210191094B1A6B42F480021A631B6B35
:1004800003F480030193019B0A463A2000F020FB0D
:100490003A2000F051FB03B05DF804FB0038024045
:1004A00008B5074B1A6822F001021A6000229A630D
:1004B000DA635A6942F001025A6102F064F908BD38
:1004C0000004014000B595B03022002108A803F0D7
:1004D000F7F900230393049305930693079301937D
:1004E000234A116C41F080511164126C02F0805269
:1004F0000192019A02931F4B1A6842F480421A60DB
:100500001B6803F480430293029B012308934FF47A
:100510008033099302220E924FF480030F93042339
:100520001093A82111911292139308A801F050FD85
:1005300098B90F23039302230493002305934FF4E8
:10054000A05306934FF480530793052103A801F0AD
:1005500075FF38B915B05DF804FB7E21064802F03E
:100560003AFDE6E78B21044802F035FDF2E700BFD3
:100570000038024000700040D83D000882B00021E1
:1005800000910B4B5A6C42F480425A645A6C02F44C
:1005900080420092009A01911A6C42F080521A64D3
:1005A0001B6C03F080530193019B02B0704700BFA6
:1005B0000038024030B583B0044602F033FD2068B5
:1005C00002F044FE00220E2100F082FA206802F0C0
:1005D0003DFE00F0B1FA206802F0A2FE0546206858
:1005E00002F034FE854205D12268204B9A420ED09B
:1005F00003B030BD206802F093FE00220E2100F00F
:1006000067FA206802F08CFE00F096FAECE700230F
:100610000193174A516C41F002015164526C02F08F
:1006200002020192019A1348134A02604FF060627D
:10063000426040228260C3604FF4806202614FF4E6
:10064000006242614FF400528261C3614FF4803214
:100650000262436200F01AFB18B9064B63629C63A6
:10066000C6E7CB21054802F0B6FCF6E700040140DE
:1006700000380240C004002040640240D83D000819
:1006800000B587B00023019302930393049305936D
:10069000026803F1804303F582339A4202D007B027
:1006A0005DF804FB002300930B4B1A6B42F004022D
:1006B0001A631B6B03F004030093009B4FF4C07399
:1006C000019302230293012304930323059301A9B9
:1006D000024800F0C1FBE2E7003802400008024097
:1006E00010B596B000241294139414941594109499
:1006F000119409940A940B940C940D940E940F94F5
:100700002022214601A803F0DBF84648464B03604F
:1007100044608460D123C36004614461846102F059
:1007200077F900284DD14FF48053129312A93D4818
:1007300002F054FA00284AD13A4802F083F900281E
:100740004BD1402310930023119310A9354802F098
:10075000C4FA002847D16023099328230A93002272
:100760000B920C920D920E920F9209A92D4802F055
:10077000BBF900283DD185230A93042209A9294801
:1007800002F0B2F900283AD132230A93082209A9CB
:10079000244802F0A9F9002837D1002301930293DD
:1007A0000393049305934FF400520692089301A912
:1007B0001C4802F0B5FA70BB1A48FFF761FF16B08B
:1007C00010BD4FF49271194802F005FCABE740F2FE
:1007D0002911164802F0FFFBAEE740F22D11134835
:1007E00002F0F9FBADE740F23311104802F0F3FBE1
:1007F000B1E74FF49F710D4802F0EDFBBBE740F20B
:1008000043110A4802F0E7FBBEE74FF4A471074822
:1008100002F0E1FBC1E740F25311044802F0DBFBB8
:10082000CAE700BF2005002000040140D83D0008B1
:10083000F0B401EB4101CC00023401268640B6B28F
:10084000F543ADB21B0203EB02429DF81070174452
:10085000002300E00133172B12DCE21A312AF9DC05
:100860001819084931F810202A4021F810200121D8
:1008700099403942EED03243024921F81020E9E78D
:10088000F0BC70475C0400202DE9F04182B0804646
:100890000F46164600250AE000963B464246214692
:1008A0002846FFF7C5FF0134012CF5DD01350F2D7A
:1008B00001DC0024F8E702B0BDE8F08108B50022B1
:1008C0001146FF20FFF7E0FF4FF47A7002F0C4FFFB
:1008D0000022FF211046FFF7D7FF4FF47A7002F095
:1008E000BBFFFF2200210846FFF7CEFF4FF47A70CE
:1008F00002F0B2FF002211461046FFF7C5FF4FF489
:100900007A7002F0A9FF08BD10B504460122006804
:1009100002F0D2F92368064A934203D002F58062BE
:10092000934203D15A6C42F400425A64002010BD35
:100930000000014010B5224C224A0021204600F060
:1009400058FA214A0421204600F053FA32231F4A64
:100950001F49204600F000FAD0B91E480268D3684B
:1009600043F40073D3600021FFF7CEFFB0B9042138
:100970001848FFF7C9FFB8B908211648FFF7C4FFA8
:10098000C0B9144B1A68136843F00103136010BD1B
:100990004FF4E171104802F01EFBDEE740F2CB118C
:1009A0000D4802F018FBE2E74FF4E8710A4802F044
:1009B00012FBE1E740F2D511074802F00CFBE0E73B
:1009C000C0040020A10400085D03000814100240C8
:1009D0005C04002020050020D83D000808B5FFF782
:1009E000C5FCFFF743FDFFF77BFEFFF71FFD00226D
:1009F0001146FF20FFF748FFFFF79CFF0022FF2171
:100A00001046FFF741FF08BD10B504460E4B18789D
:100A10004FF47A73B3FBF0F30C4A1068B0FBF3F0B9
:100A200000F098F868B90F2C01D901200AE00022E3
:100A300021464FF0FF3000F04BF8054B1C600020C2
:100A400000E0012010BD00BF0000002008000020D1
:100A50000400002008B50B4B1A6842F400721A60BB
:100A60001A6842F480621A601A6842F480721A604E
:100A7000032000F01BF80020FFF7C6FFFFF77EFD04
:100A8000002008BD003C0240034A1168034B1B785C
:100A90000B441360704700BF1407002000000020C3
:100AA000014B1868704700BF14070020074AD3683D
:100AB00023F4E0631B041B0C000200F4E060184305
:100AC00040F0BF6040F40030D060704700ED00E0BF
:100AD00030B4174BDB68C3F30223C3F10704042CC3
:100AE00028BF04241D1D062D01D9033B00E000236F
:100AF0004FF0FF3505FA04F421EA0401994005FAA4
:100B000003F322EA03031943002809DB0901C9B2F0
:100B100000F1604000F5614080F8001330BC704780
:100B200000F00F000901C9B2024B1954F6E700BFEB
:100B300000ED00E014ED00E0002807DB00F01F02EC
:100B4000400901239340024A42F82030704700BF19
:100B500000E100E00138B0F1807F0AD2064B586016
:100B6000064AF02182F823100020986007221A60BC
:100B700070470120704700BF10E000E000ED00E08A
:100B8000704708B5FFF7FCFF08BD30B405682C6856
:100B900024F480242C60046863608368402B05D0B3
:100BA000036899600368DA6030BC704703689A6034
:100BB0000368D960F8E7000010B40368D9B21039AF
:100BC0000C4AA2FB014212090B4CA25CC2655F29D0
:100BD00009D923F47F7323F0030304338365806D05
:100BE0005DF8044B704723F47F7323F003038365A0
:100BF000F5E700BFABAAAAAAF83D0008836A82699C
:100C000092B9012B0AD01BB1022B01D000207047F2
:100C1000C36A13F0807F28D100207047C36AB3F104
:100C2000C07F24D000207047B2F5005F09D0022BAE
:100C300025D9032B25D1C36A13F0807F23D100204F
:100C40007047032B03D8DFE803F01404140A0020D4
:100C50007047C36A13F0807F0DD100207047C36ACC
:100C6000B3F1C07F09D000207047012070470120F8
:100C70007047012070470120704701207047012014
:100C800070470020704701207047000070B504468F
:100C9000FFF706FF002C5BD00546002384F83430B4
:100CA000022384F835302268136823F001031360AF
:100CB00023681A6812F0010F0AD0FFF7F1FE401BFB
:100CC0000528F5D920236365032084F8350070BD1D
:100CD0001A68204810406168A2680A43E1680A4324
:100CE00021690A4361690A43A1690A43E1690A4328
:100CF000216A0A430243616A04291ED01A602668E9
:100D0000756925F00705636A1D43042B07D1A36AA3
:100D10001D43E36A1BB12046FFF770FF90B9756170
:100D20002046FFF749FFE26D3F2393408360002098
:100D30006065012384F83530C9E7E16A206B01431F
:100D40000A43DBE740236365012084F83500BEE7F2
:100D50000120BCE73F8010F038B5856D90F8344035
:100D6000012C31D0012480F8344090F83540E4B2B1
:100D7000012C04D0002380F83430022038BD044612
:100D8000022084F83500002060652046FFF7FDFE54
:100D9000E26D3F239340AB602268136843F0160373
:100DA00013602268536943F080035361236C23B1BD
:100DB0002268136843F0080313602268136843F045
:100DC000010313600020D9E70220D7E790F83530FF
:100DD000DBB2022B03D0802343650120704705233B
:100DE00080F835300268136823F001031360002097
:100DF0007047034690F83400012827D0012083F87B
:100E0000340093F83500C0B2012804D0012000223C
:100E100083F834207047052916D8DFE801F003066F
:100E2000090C0F12DA630020F1E71A640020EEE7E4
:100E30005A640020EBE79A640020E8E7DA640020B7
:100E4000E5E71A650020E2E70020E0E702207047AE
:100E500090F835007047000000230F2B00F2D68079
:100E6000F0B482B039E0072200E00022B2403A43F9
:100E70000235674E46F82520664A1568E24302EAC5
:100E800005064F6817F4803F01D044EA0506614D1E
:100E90002E606D6802EA05064F6817F4003F01D026
:100EA00044EA05065B4D6E60AD6802EA05064F68D0
:100EB00017F4801F01D044EA0506564DAE60ED6878
:100EC0002A404E6816F4001F01D044EA0502514C36
:100ED000E26001330F2B00F2968001229A400C68E9
:100EE0001440A242F5D14D68022D01D0122D10D12F
:100EF000DE08083650F826C003F00705AF000F25BE
:100F0000BD402CEA050C0D69BD4045EA0C0540F8D2
:100F1000265006685F000325BD40ED4305EA060C38
:100F20004E6806F00306BE4046EA0C0606604E68B0
:100F300006F1FF3CBCF1010F03D9112E01D0122E96
:100F400010D1866805EA060CCE68BE4046EA0C065B
:100F50008660466826EA02024E68C6F300169E4086
:100F600016434660C26815408A68BA402A43C26088
:100F70004A6812F0805FACD000220192264A556C7C
:100F800045F480455564526C02F480420192019A06
:100F90009D08AE1C1E4A52F8267003F0030296000C
:100FA0000F22B24027EA02071C4A90423FF45DAF8D
:100FB00002F5806290421AD002F58062904218D009
:100FC00002F58062904216D002F58062904214D001
:100FD00002F58062904212D002F58062904210D0F9
:100FE00002F5806290423FF43EAF08223EE70122C4
:100FF0003CE702223AE7032238E7042236E70522DB
:1010000034E7062232E702B0F0BC7047704700BFF9
:1010100000380140003C014000380240000002401E
:101020000AB18161704709048161704708B5054BB9
:101030005B69034200D108BD024B586101F070FFAB
:10104000F9E700BF003C014090F83E30DBB2402B96
:1010500010D00369B3F5804F1BD0036D002B3CD13A
:10106000436CC3F3C813026803F0060343F0F003B4
:1010700013617047036D2BB9436C026803F0FE03E4
:1010800013617047436C026843F00103DBB21361E4
:10109000704790F83D30DBB2212B0FD0436C0268D3
:1010A00043F00103DBB21361436B6BB1DB6B7BB1CC
:1010B0000268536843F4006353607047436C0268EE
:1010C00003F0FE031361EFE7826B002AEED107E025
:1010D000836BDB6B002BEBD102E0036D012B00D0A7
:1010E0007047436CC3F3C813026803F0060343F070
:1010F000F1031361F4E7436C0268DBB21361436BE5
:101100003BB1DB6B4BB10268536843F4006353603F
:101110007047826B002AF4D1FAE7836BDB6B002BFC
:10112000F1D1F5E710B48BB090F83E30DAB2C16A75
:10113000046B90F83D30DBB2222B0BD000230993D7
:1011400003685A6909929B690993099B0BB05DF882
:10115000044B7047036D0BB9402A17D0036D1BB9C0
:101160000369B3F5404F19D0438D9BB2002B25D1B5
:10117000029303685A6902929A690292029A1A6863
:1011800042F400721A6000230365DFE700930368EE
:101190005A6900929B690093009BD7E70023019353
:1011A00003685A6901929A690192019A1A6842F495
:1011B00080721A60036D01330365C7E7438D9BB2EC
:1011C000012B25D0438D9BB2022B7BD00268136884
:1011D00043F48063136003685A6812F4006F0ED002
:1011E00011F5803F07D0012905D0082903D0102927
:1011F00001D0202903D15A6842F480525A6000235A
:10120000089303685A6908929B690893089BBAE798
:1012100011F5803F11D0082934D0202932D0122C6A
:101220002ED0042940D002293ED010293CD002689B
:10123000136823F4806313603BE00268136823F4AF
:101240008063136003685A6812F4006F0CD01A6848
:1012500022F480621A600023039303685A690392A0
:101260009B690393039B8EE7002204925A690492C0
:101270009A690492049A1A6842F400721A6082E72A
:101280000129CED00268136823F480631360002321
:10129000069303685A6906929A690692069A1A6832
:1012A00042F400721A606EE70268136843F48063C8
:1012B00013600023059303685A6905929B6905939F
:1012C000059B60E704290ED002290CD010290AD012
:1012D0000268136823F4806313600268136843F4A0
:1012E0000063136004E00268136843F480631360D2
:1012F00003685A6812F4006F0ED011F5803F07D0D2
:10130000012905D0082903D0102901D0202903D1B3
:101310005A6842F480525A600023079303685A695E
:1013200007929B690793079B2DE7438D9BB253B1AF
:10133000426A036812781A61436A01334362438D3B
:10134000013B9BB243857047438D9BB253B1036809
:101350001A69436A1A70436A01334362438D013B41
:101360009BB243857047C36AB3F52A0F04D0C36AA2
:10137000B3F12A4F03D070470123C362704708239B
:10138000C362F8E730B482B090F83D4004F028041E
:10139000282C34D1002936D0002A36D090F83C4091
:1013A000012C34D0012480F83C400468256815F0F5
:1013B000010F03D1256845F00105256005682C68FB
:1013C00024F400642C60292480F83D40202480F817
:1013D0003E400024046441624285428D0285C3621E
:1013E000019403685A6901929A690192019A80F8FE
:1013F0003C405A6842F4E0625A60204600E0022015
:1014000002B030BC70470120FAE70120F8E7022063
:10141000F6E730B482B090F83D4004F02804282C60
:1014200034D1002936D0002A36D090F83C40012C27
:1014300034D0012480F83C400468256815F0010F81
:1014400003D1256845F00105256005682C6824F462
:1014500000642C602A2480F83D40202480F83E401F
:101460000024046441624285428D0285C362019476
:1014700003685A6901929A690192019A80F83C4086
:101480005A6842F4E0625A60204600E0022002B04E
:1014900030BC70470120FAE70120F8E70220F6E7A8
:1014A00090F83D30DBB2202B01D00220704728237A
:1014B00080F83D3003681A6812F0010F03D11A68F2
:1014C00042F001021A600268136843F480631360FB
:1014D0000268536843F440735360002070477047BC
:1014E000704708B590F83D30DAB2438D9BB27BB1BE
:1014F000416A036809781961436A01334362438D85
:10150000013B9BB24385438D9BB20BB9292A00D086
:1015100008BD0268536823F480635360212303638A
:10152000282380F83D3001F0C6FFF1E708B590F8B8
:101530003D30DAB2438D9BB27BB103681969436ACF
:101540001970436A01334362438D013B9BB243856B
:10155000438D9BB20BB92A2A00D008BD026853689C
:1015600023F48063536022230363282380F83D30F3
:1015700001F087FFF1E708B590F83D3003F028034C
:10158000282B07D003686FF002025A61002380F80D
:101590003C3008BD0268536823F48063536011F047
:1015A000040F0BD0002311F0800F09D18289002194
:1015B00080F83C10194601F01FFFEAE70123F2E72B
:1015C000028BF4E708B590F83D30DBB2C26A082A16
:1015D00001D0202A01D1282B06D0212B1ED0036850
:1015E0006FF480625A6108BD1A4BC3620268536887
:1015F00023F4E063536003686FF480625A61026809
:10160000136823F48063136000230363202280F8AF
:101610003D2080F83E3001F018FFE4E70D4BC36237
:1016200021230363202380F83D30002380F83E30DF
:101630000268536823F4E063536003686FF48062C8
:101640005A610268136823F48063136001F033FF6A
:10165000C9E700BF0000FFFF704710B590F83D30AC
:10166000DBB290F83E20D2B2C46A018D09B9212BB9
:1016700004D0212B3BD0402A37D010BD082C04D0F9
:10168000202C02D014F5803F19D10268536823F44E
:10169000E06353600268136843F40073136000232F
:1016A0000363202380F83D3090F83E30DBB2402BBE
:1016B00015D0002380F83E30FFF711FFDDE7026808
:1016C000536823F4E063536011230363002380F81D
:1016D0003E30202380F83D30FFF701FFCDE70023A7
:1016E00080F83E30FFF7B8FFC7E7222BC5D1438D06
:1016F0009BB22BB90268536823F480635360BCE744
:1017000090F83E30DBB2402B0BD0426A036812786F
:101710001A61436A01334362438D013B9BB24385A7
:10172000ABE7036D9BB9C36C012B08D0836CC3F38B
:10173000072302681361036D013303659DE7836C22
:101740000268DBB21361036D0233036595E7036D35
:10175000012B18D0036D022B8FD190F83D30DBB2F6
:10176000222B18D090F83D30DBB2212B85D1426A74
:10177000036812781A61436A01334362438D013B67
:101780009BB2438579E7836C0268DBB21361036D1A
:101790000133036571E70268136843F480731360D3
:1017A0006BE708B5C26A90F83D30DBB2212B00D060
:1017B00008BD438D9BB25BB1426A036812781A611F
:1017C000436A01334362438D013B9BB24385EFE79C
:1017D000082A04D0202A02D012F5803F19D10268CD
:1017E000536823F4E06353600268136843F40073A2
:1017F000136000230363202380F83D3090F83E30CF
:10180000DBB2402B15D0002380F83E30FFF767FE97
:10181000CEE70268536823F4E06353601123036347
:10182000002380F83E30202380F83D30FFF757FE3C
:10183000BEE7002380F83E30FFF70EFFB8E77047A1
:1018400008B590F83D30DBB2222B00D008BD438DA7
:101850009BB2032B14D903681A69436A1A70436A4E
:1018600001334362438D013B9BB24385438D9BB261
:10187000032BEBD10268536823F480635360E5E7E0
:10188000C26A022AE2D0012BE0D80268136823F46E
:10189000806313600268536823F4E0635360036855
:1018A0001A69436A1A70436A01334362438D013BEC
:1018B0009BB24385202380F83D3090F83E30DBB268
:1018C000402B07D0002380F83E3012230363FFF73C
:1018D00007FEBBE7002380F83E300363FFF7AFFF4E
:1018E000B4E708B5C26A438D9BB2042B13D0438D75
:1018F0009BB2032B20D0438D9BB2022B36D00368C2
:101900001A69436A1A70436A01334362438D013B8B
:101910009BB243850FE00268536823F480635360F1
:1019200003681A69436A1A70436A01334362438D3C
:10193000013B9BB2438508BD01684B6823F480637B
:101940004B60042A06D0022A04D00268136823F4EC
:101950008063136003681A69436A1A70436A01332B
:101960004362438D013B9BB24385E4E7012A0BD0E0
:10197000102A09D0042A36D0022A34D0026813680B
:1019800043F40073136004E00268136823F4806377
:10199000136003681A69436A1A70426A531C4362EF
:1019A000438D013B9BB2438503681B695370436AB7
:1019B00001334362438D013B9BB243850268536808
:1019C00023F440735360202380F83D3090F83E307C
:1019D000DBB2402B0DD0002380F83E30122303638E
:1019E000FFF77EFDA7E70268136843F48063136086
:1019F000CFE7002380F83E300363FFF720FF9AE72C
:101A0000704710B5806B90F83D20416B0023CB638D
:101A1000816BCB630468216821F480612160438578
:101A2000416B0B65816B0B6501680B6823F001034B
:101A30000B6090F83D30DBB2602B0DD0D2B202F0DB
:101A40002802282A12D0202380F83D30002380F875
:101A50003E3001F037FD10BD202380F83D300023DB
:101A600080F83E300364FFF7CBFFF4E702681368A9
:101A700043F0010313600268136843F4806313604A
:101A800000230363282380F83D30E2E710B50446C5
:101A900090F83D30DBB290F83E20D2B2102A33D01D
:101AA00003F02802282A37D02268526812F4006F07
:101AB00004D1602B02D0202384F83D30002323631F
:101AC00084F83E3023685A6812F4006F48D05A6890
:101AD00022F400625A60626B92F83530DBB2012B5F
:101AE00020D0424B1365606BFFF770F9002849D096
:101AF0002268136823F001031360202384F83D302B
:101B0000606B036D98473DE0222BC9D101680A68DC
:101B100022F400620A60C3E700232363282384F8C9
:101B20003D30CFE7A36B314A1A65A06BFFF74EF942
:101B300040B323685A6912F0400F05D01A69636AEE
:101B40001A70636A013363622268136823F0010329
:101B50001360202384F83D30A06B036D984711E09B
:101B600094F83D20D2B2602A16D05A6912F0400F84
:101B700005D01A69636A1A70636A0133636220468A
:101B800001F0A0FC94F83D30DBB2226C12F0040F9F
:101B900001D0282B18D010BD202284F83D2000222F
:101BA00022645A6912F0400F05D01A69636A1A70EC
:101BB000636A013363622268136823F001031360D0
:101BC0002046FFF71DFFDDE72268536823F4E0633A
:101BD0005360074BE36200232363202284F83D20F7
:101BE00084F83E30204601F030FCD4E7031A0008A8
:101BF0000000FFFF30B583B0044690F83D50EDB2D1
:101C00000268536823F4E063536000230193036880
:101C10005A6901921A6842F001021A60019B026837
:101C2000136823F48063136003685A6812F4006F2A
:101C300038D0222D21D02A2D1FD0426B1268526835
:101C400092B24285428D92B21AB1026C42F0040205
:101C500002645A6822F400625A60606BFFF7F8F879
:101C600001281FD0636B434A1A65606BFFF7AEF81B
:101C7000C0B1606B036D984714E0A26B12685268A4
:101C800092B26285628D92B21AB1226C42F0040265
:101C900022645A6822F400625A60A06BFFF7D8F8F9
:101CA000012840D1638D9BB223B323685A6912F097
:101CB000040F09D01A69636A1A70636A0133636298
:101CC000638D013B9BB2638523685A6912F0400F14
:101CD00009D01A69636A1A70636A01336362638D9B
:101CE000013B9BB26385638D9BB21BB1236C43F0B8
:101CF00004032364236C13BB2A2D25D094F83D30B4
:101D0000DBB2282B29D0236B222B01D0222D19D115
:101D100000232363202284F83D2084F83E302046AF
:101D200001F0AFFB0EE0A36B124A1A65A06BFFF740
:101D30004DF80028B6D0A06B036D9847B2E7204657
:101D4000FFF7A4FE03B030BD00232363282384F8EB
:101D50003D30204601F095FBD0E7074BE3620023BE
:101D60002363202284F83D2084F83E30204601F091
:101D70006CFBE7E7031A00080000FFFF70B504469C
:101D800002685568C66A90F83E30DBB290F83D10A4
:101D9000102B14D0C8B2402B11D0236C002B71D063
:101DA0005369002113F0020F6FD015F4007F6CD03F
:101DB000236C03B191692046FFF7DDFB70BD90698C
:101DC000536913F0010105D1B6F52A0FF6D0B6F12B
:101DD0002A4FF3D011B115F4007F25D113F0080F6D
:101DE00002D015F4007F26D113F0020F02D015F4B3
:101DF000007F24D110F0040F29D0526812F4006F34
:101E0000DCD113F0800F05D015F4806F02D013F0F1
:101E1000040F18D013F0040FD0D015F4007FCDD0EC
:101E20002046FFF7BEFCC9E72046FFF79CFA204694
:101E3000FFF70AF9C2E72046FFF75DF9BEE7204643
:101E4000FFF770F9BAE72046FFF707FCB6E75268DC
:101E500012F4006FB2D113F0400F05D015F4806F6B
:101E600002D013F0040F09D013F0040FA6D015F41C
:101E7000007FA3D02046FFF734FD9FE72046FFF701
:101E8000DFFC9BE7916953698CE713F0100F02D0D8
:101E900015F4007F17D1212819D0292817D013F065
:101EA000400F05D015F4806F02D013F0040F27D037
:101EB00013F0040F82D015F4007F3FF47FAF20466B
:101EC000FFF742FA7AE72046FFF794FE76E713F031
:101ED000800F05D015F4806F02D013F0040F0BD0E3
:101EE00013F0040F3FF46AAF15F4007F3FF466AFC0
:101EF0002046FFF71AFA61E72046FFF7F2FA5DE79E
:101F00002046FFF713FB59E7F8B5044603685D69FF
:101F10005F6815F4807F07D017F4807F3BD06FF4A3
:101F200080725A61012600E0002615F4007F08D077
:101F300017F4807F05D046F0020623686FF4007224
:101F40005A6115F4806F18D017F4807F15D094F87B
:101F50003E30DBB2628D91B294F83D20D2B2206B5C
:101F6000202B1AD023686FF480625A6146F0040671
:101F700094F83E30DBB2102B1DD015F4006F08D062
:101F800017F4807F05D046F0080623686FF40062DE
:101F90005A61B6B9F8BD0026C7E70029E2D1212A67
:101FA00005D0292A03D0282ADCD12128DAD12046DD
:101FB000FFF708FBE1E72268136843F4007313603E
:101FC000DBE7236C1E4326642046FFF75FFDE1E755
:101FD000002800F0B98170B582B00446036813F0A0
:101FE000010F3BD0A64B9B6803F00C03042B2CD0B5
:101FF000A34B9B6803F00C03082B21D06368B3F557
:10200000803F4FD0B3F5A02F52D09D4B1A6822F4D9
:1020100080321A601A6822F480221A606368002BEA
:1020200050D0FEF73DFD0546954B1B6813F4003F6D
:1020300014D1FEF735FD401B6428F5D903208AE151
:102040008F4B5B6813F4800FD8D08D4B1B6813F453
:10205000003F03D06368002B00F07881236813F001
:10206000020F54D0864B9B6813F00C0F3ED0844B6C
:102070009B6803F00C03082B33D0E368002B67D078
:10208000804B01221A60FEF70BFD05467C4B1B6856
:1020900013F0020F53D1FEF703FD401B0228F5D9C0
:1020A000032058E1764A136843F480331360B5E7A0
:1020B000734B1A6842F480221A601A6842F4803224
:1020C0001A60ABE7FEF7ECFC05466D4B1B6813F49A
:1020D000003FC3D0FEF7E4FC401B6428F5D9032081
:1020E00039E1674B5B6813F4800FC6D1644B1B6802
:1020F00013F0020F03D0E368012B40F02981604AFE
:10210000136823F0F803216943EAC10313602368CD
:1021100013F0080F40D0636963B35B4B01221A6070
:10212000FEF7BEFC0546564B5B6F13F0020F33D132
:10213000FEF7B6FC401B0228F5D903200BE1504AFC
:10214000136823F0F803216943EAC1031360DEE753
:102150004C4B00221A60FEF7A3FC0546484B1B6857
:1021600013F0020FD3D0FEF79BFC401B0228F5D9D9
:102170000320F0E0444B00221A60FEF791FC054674
:102180003F4B5B6F13F0020F06D0FEF789FC401B3C
:102190000228F5D90320DEE0236813F0040F78D07D
:1021A000374B1B6C13F0805F33D100230193344B0A
:1021B0001A6C42F080521A641B6C03F08053019336
:1021C000019B0125314B1B6813F4807F23D0A3684A
:1021D000012B34D0052B38D0294B1A6F22F0010285
:1021E0001A671A6F22F004021A67A368002B36D010
:1021F000FEF756FC0646224B1B6F13F0020F47D129
:10220000FEF74EFC801B41F288339842F3D903203D
:10221000A1E00025D6E71D4A136843F480731360DC
:10222000FEF73EFC0646194B1B6813F4807FCED1A7
:10223000FEF736FC801B0228F5D903208BE0104AFC
:10224000136F43F001031367CFE70D4B1A6F42F092
:1022500004021A671A6F42F001021A67C5E7FEF717
:102260001FFC0646064B1B6F13F0020F10D0FEF743
:1022700017FC801B41F288339842F3D903206AE0AF
:102280000038024000004742800E47420070004084
:10229000E5B9A369002B5DD0314A926802F00C02C7
:1022A000082A5AD0022B17D02E4B00221A60FEF7B4
:1022B000F7FB04462A4B1B6813F0007F42D0FEF761
:1022C000EFFB001B0228F5D9032044E0244A136CDD
:1022D00023F080531364DCE7224B00221A60FEF7E0
:1022E000DFFB05461E4B1B6813F0007F06D0FEF790
:1022F000D7FB401B0228F5D903202CE0E369226AB2
:102300001343626A43EA8213A26A5208013A43EA1B
:102310000243E26A43EA0263114A5360114B01220D
:102320001A60FEF7BDFB04460D4B1B6813F0007FDF
:1023300006D1FEF7B5FB001B0228F5D903200AE001
:10234000002008E0002006E001207047012002E0A4
:10235000012000E0002002B070BD0120FBE700BFBB
:102360000038024060004742314B9B6803F00C0389
:10237000042B58D0082B58D170B52D4B5A6802F059
:102380003F025B6813F4800F2AD0294B5868C0F3D2
:1023900088100546002643011B1A66EB0604A101BE
:1023A00041EA93619801C01A61EB0401CB0043EA52
:1023B0005073C4001946601946EB01014B0243EA11
:1023C000D0534402204619463346FDF767FF184BA9
:1023D0005B68C3F3014301335B00B0FBF3F070BDF6
:1023E000134B5868C0F388100546002643011B1A9A
:1023F00066EB0604A10141EA93619801C01A61EB02
:102400000401CB0043EA5073C4001946601946EB3F
:1024100001018B0243EA9053840220461946334659
:10242000FDF73CFFD3E7034870470348704700BF00
:102430000038024000127A000024F400002800F066
:102440009A8070B50446504B1B6803F00F038B4213
:1024500008D2CBB24C4A1370136803F00F038B42BF
:1024600040F08B80236813F0020F17D013F0040F95
:1024700004D0464A936843F4E0539360236813F012
:10248000080F04D0414A936843F4604393603F4A85
:10249000936823F0F003A068034393600D4623681C
:1024A00013F0010F32D06368012B21D09A1E012A4C
:1024B00025D9364A126812F0020F60D033498A6873
:1024C00022F0030213438B60FEF7EAFA06462F4B15
:1024D0009B6803F00C036268B3EB820F16D0FEF723
:1024E000DFFA801B41F288339842F0D9032041E0A3
:1024F000264A126812F4003FE0D101203AE0234A54
:10250000126812F0007FD9D1012033E01E4B1B6806
:1025100003F00F03AB4207D9EAB21B4B1A701B68DA
:1025200003F00F03AB422CD1236813F0040F06D045
:10253000164A936823F4E053E1680B4393602368E1
:1025400013F0080F07D0114A936823F46043216900
:1025500043EAC1039360FFF707FF0C4B9B68C3F38B
:1025600003130B4AD35CD8400A4B18600020FEF7D7
:102570004BFA002070BD012070470120FAE70120CE
:10258000F8E70120F6E700BF003C024000380240B7
:10259000003E00080800002010B504460368DA6811
:1025A00012F4807F03D09B6813F4805F0FD12368FF
:1025B000DA6812F4007F03D09B6813F4005F0FD138
:1025C0000C4B4FF400325A610123637710BD00F0C9
:1025D000C5FC2268D368DBB263F4C073D360E6E75E
:1025E000204600F009F82268D368DBB263F4207358
:1025F000D360E5E7003C01407047000030B4036A57
:1026000023F001030362056A4268846924F07304BD
:102610000B681C4325F002058B682B43104DA84224
:1026200003D005F58065A84205D123F00803CD68E5
:102630002B4323F004030A4DA84203D005F580651F
:10264000A84205D122F440724D6915438A692A4394
:10265000426084614A684263036230BC704700BFD5
:102660000000014030B4036A23F480730362036AFC
:102670004268C46924F073040D682C4323F400738A
:102680008D6843EA0523124DA84203D005F5806505
:10269000A84206D123F40063CD6843EA052323F45E
:1026A00080630B4DA84203D005F58065A84207D191
:1026B00022F440524D6942EA05128D6942EA051240
:1026C0004260C4614A68C263036230BC704700BFA5
:1026D0000000014030B4036A23F480530362036AAC
:1026E0004468C26922F4E6420D6842EA052223F4F6
:1026F00000538D6843EA0533094DA84203D005F520
:102700008065A84204D124F480444D6944EA8514CC
:102710004460C2614A680264036230BC704700BF13
:102720000000014010B4036A046A24F0010404624A
:10273000846924F0F00444EA021223F00A030B43F4
:10274000826103625DF8044B704710B4036A23F0A2
:10275000100303628469036A24F4704444EA023279
:1027600023F0A00343EA0113826103625DF8044B86
:102770007047836823F07003194341F007018160BB
:1027800070477047704710B5846B012384F83D3063
:10279000636A83420BD0A36A834210D0E36A834208
:1027A00010D0236B834204D10823237701E0012357
:1027B00023772046FFF7E6FF0023237710BD02238F
:1027C0002377F6E704232377F3E7704710B5044631
:1027D00003681A6912F0020F11D0DA6812F0020FC2
:1027E0000DD06FF002021A610123037703689B6921
:1027F00013F0030F70D000F0DFFE0023237723686F
:102800001A6912F0040F12D0DA6812F0040F0ED019
:102810006FF004021A610223237723689B6913F483
:10282000407F5FD0204600F0C7FE00232377236857
:102830001A6912F0080F12D0DA6812F0080F0ED0E1
:102840006FF008021A61042323772368DB6913F011
:10285000030F4ED0204600F0AFFE002323772368FD
:102860001A6912F0100F12D0DA6812F0100F0ED0A1
:102870006FF010021A61082323772368DB6913F4D1
:10288000407F3DD0204600F097FE00232377236849
:102890001A6912F0010F03D0DA6812F0010F36D175
:1028A00023681A6912F0800F03D0DA6812F0800FE3
:1028B00034D123681A6912F0400F03D0DA6812F09D
:1028C000400F32D123681A6912F0200F03D0DA6862
:1028D00012F0200F30D110BD00F072FE2046FFF73D
:1028E00051FF8AE7204600F06BFE2046FFF74AFFC3
:1028F0009BE7204600F064FE2046FFF743FFACE76D
:10290000204600F05DFE2046FFF73CFFBDE76FF07C
:1029100001021A61204600F057FEC1E76FF0800205
:102920001A61204600F026FAC3E76FF040021A61F0
:102930002046FFF74AFFC5E76FF020021A612046E4
:1029400000F017FAC7E700000368304A904212D03F
:10295000B0F1804F0FD0A2F57C4290420BD002F52F
:102960008062904207D002F58062904203D002F567
:102970007842904203D123F070034A681343234AFC
:1029800090422AD0B0F1804F27D0A2F57C429042ED
:1029900023D002F5806290421FD002F580629042FF
:1029A0001BD002F57842904217D002F57052904247
:1029B00013D002F5806290420FD002F580629042FF
:1029C0000BD0A2F59832904207D002F58062904277
:1029D00003D002F58062904203D123F44073CA68A9
:1029E000134323F080034A69134303608B68C36277
:1029F0000B688362054B984203D003F580639842CD
:102A000001D10B690363012343617047000001405A
:102A1000B0B110B5044690F83D3063B1022384F89C
:102A20003D30214651F8040BFFF78EFF012384F857
:102A30003D30002010BD80F83C30FDF7BBFDEDE7D8
:102A400001207047B0B110B5044690F83D3063B135
:102A5000022384F83D30214651F8040BFFF774FF40
:102A6000012384F83D30002010BD80F83C30FFF792
:102A700088FEEDE70120704730B4036A23F01003AD
:102A80000362036A4468826922F4E6420D6842EAFE
:102A9000052223F020038D6843EA0513114DA84257
:102AA00003D005F58065A84206D123F08003CD68E8
:102AB00043EA051323F040030A4DA84203D005F56D
:102AC0008065A84207D124F440644D6944EA850436
:102AD0008D6944EA8504446082614A6882630362C6
:102AE00030BC70470000014038B590F83C30012BF5
:102AF00066D00D460446012380F83C30022380F85E
:102B00003D300C2A1AD8DFE802F0071919192019EC
:102B100019193419191947000068FFF76FFD226869
:102B2000936943F0080393612268936923F00403D7
:102B300093612268936929690B439361012384F8A7
:102B40003D30002084F83C0038BD0068FFF794FF5A
:102B50002268936943F4006393612268936923F4C4
:102B60008063936122689369296943EA0123936131
:102B7000E4E70068FFF776FD2268D36943F00803B5
:102B8000D3612268D36923F00403D3612268D36937
:102B900029690B43D361D1E70068FFF79BFD2268E9
:102BA000D36943F40063D3612268D36923F480635B
:102BB000D3612268D369296943EA0123D361BDE760
:102BC0000220C1E710B4846824F47F4442EA03235E
:102BD0000B43234383605DF8044B704790F83C300F
:102BE000012B67D010B50446012380F83C30022346
:102BF00080F83D300268936823F47F4323F0770325
:102C000093600B68402B4BD013D9602B3ED025D955
:102C1000702B2FD0B3F5005F19D1CB684A68896853
:102C20000068FFF7CFFF2268936843F48043936006
:102C30000DE0102B04D008D9202B01D0302B06D169
:102C400019462068FFF795FD01E0002BF8D001231D
:102C500084F83D30002084F83C0010BD502BF6D1A4
:102C6000CA6849680068FFF75DFD50212068FFF7DA
:102C700080FDECE7CB684A6889680068FFF7A2FF2F
:102C80002268936843F077039360E0E7CA68496875
:102C90000068FFF75AFD60212068FFF76AFDD6E75C
:102CA000CA6849680068FFF73DFD40212068FFF7CA
:102CB00060FDCCE70220704710B401F01F01012332
:102CC00003FA01F4036A23EA04030362036A8A40F5
:102CD000134303625DF8044B704790F83C30012BBE
:102CE0001CD070B4012680F83C60022380F83D308F
:102CF00002685568936825F070050C682C4323F032
:102D000080054B682B4354600268936080F83D60F7
:102D1000002380F83C30184670BC70470220704792
:102D200090F83C30012B22D0012380F83C30CB6856
:102D300023F440738A68134323F480634A6813437F
:102D400023F400630A68134323F480530A6913438E
:102D500023F400534A69134323F48043CA6913439D
:102D600002685364002380F83C3018467047022004
:102D700070477047704708B5FDF792FE08BD704771
:102D800008B5FDF781FEFDF7FCFEFFF7F8FF08BD73
:102D90000C4BDB6813F0807F04D10A4AD36843F000
:102DA0008073D360084B00225A601A6842F0010217
:102DB0001A6000BF00BF00BF5868B0FA80F0400939
:102DC000704700BFF0ED00E0001000E008B5FFF72D
:102DD000DFFFFDF73FFEFDF775FB08BD002301286F
:102DE00003D040080133DBB2F9E718467047000012
:102DF00010B5012805D018B94FF6FF73994246D097
:102E000010BD4FF6FF739942F5D1274B06221A7079
:102E10000022DA6007241C751A62082483F828400F
:102E20005A63092483F83C409A640A2483F850408A
:102E3000DA65172483F864401A6783F87840C3F88A
:102E4000842083F88C40C3F8982083F8A040C3F80E
:102E5000AC2083F8B440C3F8C020282483F8C840CD
:102E6000C3F8D42083F8DC40C3F8E82083F8F040AE
:102E7000C3F8FC2083F80441C3F8102183F81841FB
:102E8000C3F8242183F82C41C3F83821B3E7074C59
:102E9000054B9C42B4D0143CE368002BF8D0201DB5
:102EA000032201469847F3E760050020A0060020B2
:102EB00008B50120FEF7BAF808BD08B50220FEF7F4
:102EC000B5F808BD08B50420FEF7B0F808BD08B590
:102ED0000820FEF7ABF808BD08B51020FEF7A6F8ED
:102EE00008BD10B52024B4F5007F04D8A0B2FEF7C9
:102EF0009DF86400F7E710BD10B54FF48064B4F599
:102F0000004F04D8A0B2FEF791F86400F7E710BDB7
:102F100008B5836813B1C368984708BD00F0FAFE8E
:102F200008B5FFF75BFF00EB8000830003481844FF
:102F3000043083680BB1FFF7EBFF08BD600500208C
:102F400008B54FF6FF710120FFF752FF08BD08B525
:102F50004FF6FF710020FFF74BFF08BD08B5034B8C
:102F60001B6813B1024A1068984708BDA0060020EC
:102F7000C406002008B50248FFF70EFB08BD00BFDD
:102F8000A4060020DFF834D0002103E00C4B5B588E
:102F9000435004310B480C4B42189A42F6D30B4A6B
:102FA00002E0002342F8043B094B9A42F9D300F0B7
:102FB00013F800F061FC00F035FC704700000220BF
:102FC000BC3E0008000000203C0400203C0400201F
:102FD00040070020FEE7FEE70F49D1F8883043F4B0
:102FE0007003C1F888300D4B1A6842F001021A6074
:102FF000002098601A6822F0847222F480321A60ED
:10300000074A5A601A6822F480221A60D8604FF08A
:1030100000638B60704700BF00ED00E000380240A5
:10302000103000248EB002687A4B9A423BD003687D
:10303000B3F1804F44D00268774B9A424DD002687A
:10304000764B9A4256D00268754B9A425FD002681E
:10305000744B9A4268D00268734B9A4271D00268EE
:10306000724B9A427AD00268714B9A4200F0838088
:103070000268704B9A4200F08B8002686E4B9A4255
:1030800000F0938002686D4B9A4200F09B800268CA
:103090006B4B9A4200F0A38002686A4B9A4200F0A0
:1030A000AB800EB0704700230093674B5A6C42F020
:1030B00001025A645B6C03F001030093009BB6E7C6
:1030C00000230193604B1A6C42F001021A641B6CDE
:1030D00003F001030193019BADE7002302935A4BD8
:1030E0001A6C42F002021A641B6C03F00203029392
:1030F000029BA4E700230393534B1A6C42F0040293
:103100001A641B6C03F004030393039B9BE70023E7
:1031100004934D4B1A6C42F008021A641B6C03F0C6
:1031200008030493049B92E700230593464B1A6C13
:1031300042F010021A641B6C03F010030593059B08
:1031400089E700230693404B1A6C42F020021A6470
:103150001B6C03F020030693069B80E70023079374
:10316000394B5A6C42F002025A645B6C03F0020362
:103170000793079B77E700230893334B5A6C42F47D
:1031800080325A645B6C03F480330893089B6FE7CA
:10319000002309932C4B5A6C42F400325A645B6C46
:1031A00003F400330993099B67E700230A93264B36
:1031B0005A6C42F480225A645B6C03F480230A93B5
:1031C0000A9B5FE700230B931F4B1A6C42F04002EF
:1031D0001A641B6C03F040030B930B9B57E700230F
:1031E0000C93194B1A6C42F080021A641B6C03F0AA
:1031F00080030C930C9B4FE700230D93124B1A6C2A
:1032000042F480721A641B6C03F480730D930D9B5F
:1032100047E700BF000001400004004000080040F4
:10322000000C004000100040001400400004014069
:1032300000400140004401400048014000180040A7
:10324000001C00400020004000380240B0F1FF3F69
:1032500043D008B52D4B984242D010D92C4B984200
:103260004AD02CD92B4B98424CD003F5806398421E
:103270004AD0A3F50063984211D118201EE0A3F5AF
:10328000805398422ED011D9234B98422ED003F56B
:10329000806398422CD0A3F5006398422AD001465F
:1032A0001E48FFF798FE6FF00D0007E0B0F1804F69
:1032B0001AD0A3F580639842F1D11D2008BDA3F573
:1032C000644398421AD003F56043984218D0A3F59E
:1032D00064439842E3D12C20F0E76FF00D00704773
:1032E0002B20EBE71E20E9E71C20E7E73620E5E787
:1032F0003720E3E73220E1E72C20DFE72D20DDE770
:103300001920DBE71920D9E71A20D7E70018004079
:10331000000401400044014000100040103E00083D
:10332000B0F1FF3F43D008B52D4B984242D010D9A1
:103330002C4B98424AD02CD92B4B98424CD003F5B9
:10334000806398424AD0A3F50063984211D11820B7
:103350001EE0A3F5805398422ED011D9234B9842FA
:103360002ED003F5806398422CD0A3F500639842D9
:103370002AD001461E48FFF72EFE6FF00D0007E031
:10338000B0F1804F1AD0A3F580639842F1D11D208F
:1033900008BDA3F5644398421AD003F560439842F0
:1033A00018D0A3F564439842E3D12C20F0E76FF0E6
:1033B0000D0070472B20EBE71E20E9E71C20E7E714
:1033C0003620E5E73720E3E73220E1E72E20DFE78C
:1033D0002D20DDE71B20DBE71920D9E71A20D7E7EE
:1033E000001800400004014000440140001000406B
:1033F000103E000804387047F8B505460F461646DB
:10340000FFF7F8FFEB689E4200D0F8BD044677B99D
:10341000002380F88D30836E03B1984794F88C2098
:10342000202304F16C012846FDF7ACFFEDE70023F3
:103430000366012280F88D20016E68310144042367
:1034400019442846FDF7E5FFDFE738B50546FFF7E5
:10345000D1FF0446426E22B190F88D30DBB2012BD1
:1034600008D0022384F88D30002323662846FEF717
:1034700017F838BD036E002BF3D0016E6C30904707
:10348000EFE710B50446FFF7B5FF036E1F2B02DC14
:10349000036E0133036690F88D30DBB2012B00D050
:1034A00010BD016E683101440423012219442046F5
:1034B000FDF7AFFFF4E708B5FFF79CFF002380F8A6
:1034C0008C3008BD10B50446FFF794FF90F88E309D
:1034D00003B110BD2046FDF7E3FFFAE708B5024B44
:1034E0001868FEF74BFC08BDC806002008B5024B63
:1034F0001868FEF709FD08BDC806002008B5024B94
:103500005868FEF73BFC08BDC806002008B5024B12
:103510005868FEF7F9FC08BDC806002008B5024B44
:103520009868FEF72BFC08BDC806002008B5024BC2
:103530009868FEF7E9FC08BDC8060020043870470B
:1035400010B5044640B12046FFF7F8FF0068D0F8F8
:10355000F43003B1984710BD4FF431710148FFF7C3
:103560003AFDF0E7283E000838B5054648B12B7F04
:10357000013B072B1CD8DFE803F00A101B0C1B1BB8
:103580001B0E40F2D7210B48FFF725FDEFE7012482
:1035900004E0032402E0042400E002242846FFF7AC
:1035A000CDFF00683C3400EB8404636803B19847A6
:1035B00038BD00BF283E000808B5FFF7D5FF08BD9D
:1035C00008B5FFF7D1FF08BD08B5FFF7B9FF08BD83
:1035D00008B5064B186810B10430FFF7F7F8034B35
:1035E000586A10B10430FFF7F1F808BDD406002086
:1035F00008B5034B186810B10430FFF7E7F808BDB1
:10360000D406002008B5034B586810B10430FFF70A
:10361000DDF808BDD406002008B5034B986810B14A
:103620000430FFF7D3F808BDD406002008B5034BDB
:10363000D86810B10430FFF7C9F808BDD4060020DF
:1036400008B5034B186910B10430FFF7BFF808BD87
:10365000D406002008B5034B586910B10430FFF7B9
:10366000B5F808BDD406002008B5034B986910B121
:103670000430FFF7ABF808BDD406002008B5034BB3
:10368000D86910B10430FFF7A1F808BDD4060020B6
:1036900008B5034BD86910B10430FFF797F808BD9F
:1036A000D406002008B5034B186A10B10430FFF7A8
:1036B0008DF808BDD406002008B5034B986A10B1F8
:1036C0000430FFF783F808BDD406002008B5034B8B
:1036D000D86A10B10430FFF779F808BDD40600208D
:1036E00008B5034B586B10B10430FFF76FF808BDF5
:1036F000D4060020F8B507460E4600242546022CC5
:103700000DDC3B190A221979304600F079F805449E
:103710002E21304600F035F805440134EFE70A2247
:10372000F979304600F06CF82844F8BD30B4054D06
:1037300005600171427183719DF80830C37130BC1E
:10374000704700BF903E0008012800D070474FF638
:10375000FF739942FAD100B583B0002100910B4666
:103760000A460348FFF7E2FF03B05DF804FB00BF21
:103770000C07002008B54FF6FF710120FFF7E4FFAA
:1037800008BD08B503681B68984708BDF0B58BB045
:10379000054600238DF82430012A01D909AC08E040
:1037A0000A22FBE73733DBB204F8013D8F420ED823
:1037B00031461746B1FBF2F6CBB216FB02F0C0B2AF
:1037C0001B1ADBB2092BEDD83033DBB2ECE754B176
:1037D0002B685E682046FCF7F3FC0246214628462B
:1037E000B0470BB0F0BD0020FBE708B522B9036875
:1037F0001B68C9B2984708BDD2B2FFF7C7FFFAE706
:1038000008B5FFF7F2FF08BD704708B5FFF7DEFA0D
:1038100008BD704708B50320FDF748F9FFF7F5FF2D
:1038200008BD000008B5FDF7D9F801E0FFF7ECFF8F
:10383000FDF744F8014B002BF8D1F9E709380008EF
:10384000FEE70000024B16221A604FF0FF3070476F
:10385000180700200120704700B9704738B50446AA
:10386000FFF789FA0546FFF7D4FFFFF784FA401BFC
:10387000A042F8D338BD000070B50D4E0D4D761B3B
:10388000B61006D00024013455F8043B9847A642F0
:10389000F9D1094E094D761B00F092FAB61006D008
:1038A0000024013455F8043B9847A642F9D170BD75
:1038B000A03E0008A03E0008B43E0008A03E00085C
:1038C000F0B4860746D0541E002A3CD0CAB2034644
:1038D00002E014F1FF3436D303F8012B9D07F8D131
:1038E000032C29D9CDB245EA05250F2C45EA05451B
:1038F00033D9A4F11006360903F1200707EB0617A8
:1039000003F1100242E9045542E902551032BA426D
:10391000F8D1721C14F00C0F03EB021204F00F0626
:1039200013D0331F23F003030433134442F8045B22
:103930009342FBD106F003042CB1C9B21C4403F836
:10394000011B9C42FBD1F0BC704734461346002C4F
:10395000F3D1F8E714460346C2E71A462646E0E7E5
:10396000024B13B1024800F005B870470000000098
:1039700081390008002301461A46184600F01EB897
:1039800038B50A4C0A4D641BA4100AD004F18043D8
:10399000013B05EB8305013C55F804399847002CA1
:1039A000F9D1BDE8384000F011BA00BFBC3E0008B4
:1039B000B43E0008704700BF704700BF2DE9F041DA
:1039C0001E4C0546206890461F460E46FFF7F2FF44
:1039D0001B4B1A68D2F8483133B35A6820681F2A43
:1039E00027DC4DB9911C01325A6043F82160FFF782
:1039F000E3FF0020BDE8F08103EB82010124C1F860
:103A0000888004FA02FED3F88841022D44EA0E0CA5
:103A1000C3F888C1C1F80871E4D1D3F88C114EEA1B
:103A20000104C3F88C41DDE702F5A673C2F8483102
:103A3000D3E7FFF7C1FF4FF0FF30DBE7380400208A
:103A4000943E00082DE9F047089E04468846002B66
:103A500040F085808A42154648D9B2FA82F24AB1CE
:103A6000C2F1200701FA02F320FA07F7954047EA6E
:103A7000030894404FEA154E230CB8FBFEF71FFADB
:103A800085FC0EFB178843EA084307FB0CF19942BB
:103A900009D9EB1807F1FF3080F0E380994240F23A
:103AA000E080023F2B445B1AA4B2B3FBFEF00EFB96
:103AB000103344EA034400FB0CFCA44509D92C193B
:103AC00000F1FF3380F0CB80A44540F2C88002387B
:103AD0002C4440EA0740A4EB0C0400271EB1D4405C
:103AE0000023C6E900433946BDE8F087002A53D0D9
:103AF000B2FA82F2002A40F0B680491B4FEA154E16
:103B00001FFA85F80127B1FBFEFC230C0EFB1C11EC
:103B100043EA014308FB0CF1994207D9EB180CF179
:103B2000FF3002D2994200F2EC808446591AA3B2C7
:103B3000B1FBFEF00EFB101443EA044408FB00F84E
:103B4000A04507D92C1900F1FF3302D2A04500F29D
:103B5000DC801846A4EB080440EA0C40BEE78B4228
:103B600008D9002E78D00027C6E90001384639462A
:103B7000BDE8F087B3FA83F77FB98B4202D3824264
:103B800000F2BD80841A61EB030301209846002EE9
:103B9000A9D0C6E90048A6E7FFDEC7F12005BB4073
:103BA00022FA05FC4CEA030C01FA07F420FA05F8A6
:103BB00021FA05F34FEA1C4E48EA0404B3FBFEF970
:103BC000210C0EFB19331FFA8CF841EA034309FB61
:103BD00008FA9A4502FA07F200FA07F10BD91CEB32
:103BE000030309F1FF3080F088809A4540F2858018
:103BF000A9F102096344A3EB0A03A4B2B3FBFEF0EC
:103C00000EFB103344EA034400FB08F8A04508D932
:103C10001CEB040400F1FF336BD2A04569D90238D4
:103C2000644440EA0940A4EB0804A0FB02894C4527
:103C3000C6464B4654D351D0002E69D0B1EB0E028C
:103C400064EB030404FA05F522FA07F3FC401D4374
:103C5000C6E90054002746E73746304643E7184692
:103C600037E707461FE7C2F1200320FA03F7954024
:103C700001FA02F021FA03F34FEA154E3843010C22
:103C8000B3FBFEF71FFA85F80EFB173341EA034139
:103C900007FB08F38B4204FA02F407D9691807F10D
:103CA000FF3C28D28B4226D9023F2944CB1A81B24D
:103CB000B3FBFEF00EFB103341EA034100FB08F3B7
:103CC0008B4207D9691800F1FF3C10D28B420ED904
:103CD00002382944C91A40EA074714E74145ABD2E4
:103CE000B8EB020E69EB0C0201381346A4E76046FC
:103CF000F0E7184695E76746D8E781467BE7384600
:103D000045E7ACF1020C2B4410E702382C4421E7C4
:103D10003746E8E608B500F001F8000008B50620CF
:103D200000F030F80120FFF78BFD00BF1F2938B5E8
:103D300022D8D0F8DC2205460C466AB152F8213070
:103D400053B1012B16D0591C10D00025204642F843
:103D500024509847284638BD284600F02FF82246C0
:103D600001462846BDE8384000F014B81623036029
:103D7000012038BD002038BD162303604FF0FF300E
:103D800038BD00BF024B01461868FFF7CFBF00BF28
:103D90000C00002038B50B46074C05461146184666
:103DA00000232360FFF74EFD431C00D038BD23687D
:103DB000002BFBD02B6038BD18070020FFF74ABD51
:103DC000F8B500BFF8BC08BC9E467047F8B500BF08
:083DD000F8BC08BC9E467047D8
:103DD8002E2E5C68797065726C696768745F646DB3
:103DE800615F736C6F656265722E696E6F000000AB
:103DF8000006101600061016000000000000000063
:103E0800010203040607080954494D3A20556E6B10
:103E18006E6F776E2074696D6572204952516E001D
:103E2800453A5C536C6F656265725C617264756972
:103E38006E6F506C7567696E5C7061636B61676506
:103E4800735C53544D33325C686172647761726598
:103E58005C73746D33325C312E372E305C636F7255
:103E680065735C61726475696E6F5C4861726477D2
:103E780061726554696D65722E6370700000000090
:103E88000000000000000000F536000810000020C7
:083E9800ACFBFF7F01000000FC
:103EA000613900081538000839030008412F00085F
:043EB000753700085A
:083EB400110300084F2F000864
:103EBC0001000000100000000024F400100000209D
:103ECC0000000000FC02002064030020CC03002052
:103EDC0000000000000000000000000000000000D6
:103EEC0000000000000000000000000000000000C6
:103EFC0000000000000000000000000000000000B6
:103F0C0000000000000000000000000000000000A5
:103F1C000000000000000000000000000000000095
:103F2C000000000000000000000000000000000085
:103F3C000000000000000000000000000000000075
:103F4C000000000000000000000000000000000065
:103F5C000000000000000000000000000000000055
:103F6C000000000000000000010000000000000044
:103F7C000E33CDAB34126DE6ECDE05000B00000009
:103F8C000000000000000000000000000000000025
:103F9C000000000000000000000000000000000015
:103FAC000000000000000000000000000000000005
:103FBC0000000000000000000000000000000000F5
:0C42EC0000000000000000001C07002083
:0400000508002F853B
:00000001FF
