:020000040800F2
:100000000000022055930008A5930008A59300085E
:10001000A5930008A5930008A59300080000000020
:10002000000000000000000000000000A593000890
:10003000A593000800000000A59300080F8B00089E
:10004000A5930008A5930008A5930008A5930008B0
:10005000A5930008A5930008418C00084B8C00086C
:10006000558C00085F8C0008698C0008A593000877
:10007000A5930008A5930008A5930008A593000880
:10008000A5930008A5930008A5930008A593000870
:10009000A5930008A5930008A5930008738C000899
:1000A00021A300084DA2000835A300086DA2000896
:1000B00081A2000895A20008A9A20008F59B0008EB
:1000C000059C0008159C0008259C0008A5930008C5
:1000D000A5930008A59D0008BD9D0008D59D0008BA
:1000E000898C000809900008A593000849A300081E
:1000F000F9A200085DA300080DA30008A59300085D
:10010000A5930008A5930008BDA20008A5930008C8
:10011000ED9D0008059E0008D1A20008E5A2000898
:10012000A5930008A5930008D1560008A5930008E0
:10013000A5930008A5930008A5930008A5930008BF
:10014000A5930008A5930008A5930008A5930008AF
:10015000A5930008A5930008A59300081D9E00081C
:10016000359C0008459C0008A5930008A59300084D
:10017000A5930008A5930008A593000800000000BF
:08018000A5930008A5930008F7
:1001C000844641EA000313F003036DD1403A41D362
:1001D00051F8043B40F8043B51F8043B40F8043B21
:1001E00051F8043B40F8043B51F8043B40F8043B11
:1001F00051F8043B40F8043B51F8043B40F8043B01
:1002000051F8043B40F8043B51F8043B40F8043BF0
:1002100051F8043B40F8043B51F8043B40F8043BE0
:1002200051F8043B40F8043B51F8043B40F8043BD0
:1002300051F8043B40F8043B51F8043B40F8043BC0
:1002400051F8043B40F8043B51F8043B40F8043BB0
:10025000403ABDD2303211D351F8043B40F8043B50
:1002600051F8043B40F8043B51F8043B40F8043B90
:1002700051F8043B40F8043B103AEDD20C3205D360
:1002800051F8043B40F8043B043AF9D2043208D058
:10029000D2071CBF11F8013B00F8013B01D30B88CA
:1002A00003806046704700BF082A13D38B078DD0A8
:1002B00010F003038AD0C3F10403D21ADB071CBF7A
:1002C00011F8013B00F8013B80D331F8023B20F8E4
:1002D000023B7BE7043AD9D3013A11F8013B00F81D
:1002E000013BF9D20B7803704B7843708B788370A5
:1002F00060467047000000000000000000000000A1
:1003000090F800F06DE9024520F007016FF0000C55
:1003100010F0070491F820F040F049804FF00004FD
:100320006FF00700D1E9002391F840F000F10800D8
:1003300082FA4CF2A4FA8CF283FA4CF3A2FA8CF310
:100340004BBBD1E9022382FA4CF200F10800A4FA77
:100350008CF283FA4CF3A2FA8CF3E3B9D1E90423CB
:1003600082FA4CF200F10800A4FA8CF283FA4CF302
:10037000A2FA8CF37BB9D1E9062301F1200182FABC
:100380004CF200F10800A4FA8CF283FA4CF3A2FAC2
:100390008CF3002BC6D0002A04BF04301A4612BAD0
:1003A000B2FA82F2FDE8024500EBD2007047D1E9D3
:1003B000002304F00305C4F100004FEAC50514F062
:1003C000040F91F840F00CFA05F562EA05021CBF33
:1003D00063EA050362464FF00004A9E753B94AB93E
:1003E000002908BF00281CBF4FF0FF314FF0FF303D
:1003F00000F00CB8ADF1080C6DE904CE0BF036F945
:10040000DDF804E0DDE9022304B07047704700BF67
:100410000348044B834202D0034B03B11847704793
:1004200084080020840800200000000005480649D8
:10043000091A891001EBD171491002D0034B03B1A5
:10044000184770478408002084080020000000003E
:1004500010B5064C237843B9FFF7DAFF044B13B10C
:100460000448AFF300800123237010BD84080020EE
:1004700000000000E8B9000808B5054B1BB10549AC
:100480000548AFF30080BDE80840FFF7CFBF00BFCD
:100490000000000088080020E8B9000830B58BB0E3
:1004A0000024059406940794089409940094284B1A
:1004B0001A6B42F010021A631A6B02F010020092DB
:1004C000009A01941A6B42F080021A631A6B02F0D0
:1004D00080020192019A02941A6B42F008021A6398
:1004E0001A6B02F008020292029A03941A6B42F00D
:1004F00004021A631A6B02F004020392039A049432
:100500001A6B42F001021A631B6B03F001030493A0
:10051000049B104D22464FF6FF71284605F072FDF0
:100520004FF6FF730593012306930794089405A9DA
:10053000284605F083FC4FF4E0430593032306931C
:10054000079405A9044805F079FC0BB030BD00BF45
:100550000038024000100240000C024000B587B095
:10056000002100910B4B1A6B42F010021A631B6BB7
:1005700003F010030093009B4FF6FF7301930123D8
:1005800002930391049301A9034805F057FC07B0B7
:100590005DF804FB003802400010024000B583B053
:1005A00000210191094B1A6B42F480021A631B6B04
:1005B00003F480030193019B0A463A2005F050F9A9
:1005C0003A2005F081F903B05DF804FB00380240E1
:1005D00010B50A4B1A6822F001021A6000249C63CD
:1005E000DC635A6942F001025A6107F0FAFC044ADE
:1005F000136801331360034B1C6010BD00040140FD
:10060000A0080020A408002010B5084B1A6822F0AA
:1006100001021A6000249C63DC635A6942F0010203
:100620005A6107F0DEFC024B1C6010BD0004014063
:10063000A4080020002242640122026470470000E6
:10064000F0B59DF814409DF818E002EB4202D60088
:10065000374606F1020C012202FA01F189B2CE43BB
:10066000B6B2026C72B1154AD35C155D2D0205EB72
:10067000034512F80E301D4441F269639C451CDCB1
:10068000002006E0240204EB034404EB0E05F3E72C
:100690000130172811DC07F119031B1A084C34F834
:1006A0001320324024F81320012484402C42EFD040
:1006B0000A43034C24F81320EAE7F0BD14BA0008FB
:1006C000A80800202DE9F04383B081460E46174666
:1006D0009846002500E001350F2D0CDC0024EF2C9E
:1006E000F9DC019600974346224629464846FFF723
:1006F000A7FF0134F3E703B0BDE8F0832DE9F84329
:100700008046894614461D46089E0AF063F848F85C
:10071000290006EB4606F0000230012707FA09F728
:10072000BFB2FE43B6B2D8F84080B8F1000F25D072
:100730004FF0000819E00131072913DCC31D5B1AD3
:10074000DFF884C03CF8132032402CF813204EFA16
:1007500001FC1CF0010FEED03A43DFF86CC02CF81E
:100760001320E8E7083008F10108A84528DA14F852
:100770000830144A12F803E00021DDE7C6461BE00A
:100780000131072915DCC31D5B1ADFF83CC03CF8BA
:10079000132032402CF8132014F80EC04CFA01FC40
:1007A0001CF0010FECD03A43DFF81CC02CF81320EA
:1007B000E6E708300EF1010EAE4501DA4146E0E70A
:1007C000BDE8F88314BA0008A80800200F2901DD4D
:1007D0000020704750F8210070470000024B1B6852
:1007E000002BFBD1704700BFA408002008B5134BB5
:1007F0001B6803B108BD436C01334364104B4FF4D5
:1008000020321A6041F281630E4A0F490F4805F009
:10081000A7F960B90E4B85229A633222DA631A680F
:1008200042F001021A60054B01221A60E2E740F231
:100830000711084808F0B7FDECE700BFA408002046
:100840000008024014100240A8080020AC35002027
:100850000004014014BB000810B50446FFF7BEFFBA
:100860002046FFF7C3FF10BD82B0002100910B4B63
:100870005A6C42F480425A645A6C02F480420092EC
:10088000009A01911A6C42F080521A641B6C03F0BA
:1008900080530193019B02B0704700BF00380240B3
:1008A00030B583B0044608F0A5FD206808F0B6FE18
:1008B00000220E2104F0D4FF206808F0AFFE05F0FE
:1008C00003F8206808F014FF0546206808F0A6FE2B
:1008D000854205D12268214B9A420ED003B030BD2B
:1008E000206808F005FF00220E2104F0B9FF2068FF
:1008F00008F0FEFE04F0E8FFECE700230193184A3D
:10090000516C41F002015164526C02F002020192FA
:10091000019A1448144A02604FF06062426040221B
:100920008260C3604FF4806202614FF400624261F2
:100930004FF400528261C3614FF48032026243621D
:1009400005F0A8F818B9074B63629C63C6E740F24C
:100950004311064808F027FDF5E700BF00040140F9
:1009600000380240AC3500204064024014BB00084F
:1009700000B587B00023019302930393049305937A
:10098000026803F1804303F582339A4202D007B034
:100990005DF804FB002300930B4B1A6B42F004023A
:1009A0001A631B6B03F004030093009B4FF4C073A6
:1009B000019302230293012304930323059301A9C6
:1009C000024805F03BFAE2E7003802400008024026
:1009D00010B596B0002412941394149415941094A6
:1009E000119409940A940B940C940D940E940F9402
:1009F0002022214601A80AF055FA4648464B0360DA
:100A000044608460D123C36004614461846107F061
:100A10002DFC00284DD14FF48053129312A93D486C
:100A200007F00AFD00284AD13A4807F039FC0028AF
:100A30004BD1402310930023119310A9354807F0A0
:100A40007AFD002847D16023099326230A930022C8
:100A50000B920C920D920E920F9209A92D4807F05D
:100A600071FC00283DD185230A93042209A9294855
:100A700007F068FC00283AD132230A93082209A91A
:100A8000244807F05FFC002837D10023019302932C
:100A90000393049305934FF400520692089301A91F
:100AA0001C4807F06BFD70BB1A48FFF761FF16B0DA
:100AB00010BD40F27511194808F075FCABE74FF412
:100AC000BD71164808F06FFCAEE74FF4BF711348D4
:100AD00008F069FCADE74FF4C271104808F063FC00
:100AE000B1E740F28F110D4808F05DFCBBE74FF411
:100AF000CA710A4808F057FCBEE740F2991107484E
:100B000008F051FCC1E74FF4D271044808F04BFCE7
:100B1000CAE700BF0C3600200004014014BB0008E7
:100B200010B504460122006807F0F4FC2368064A69
:100B3000934203D002F58062934203D15A6C42F48F
:100B400000425A64002010BD0000014038B5044640
:100B5000264D274A0021284605F03EF9254A042162
:100B6000284605F039F941F28263234A2349284691
:100B700004F0F6FF30BB1D4B1A68136823F008031E
:100B800013601F480268D36843F40073D3600021E8
:100B9000FFF7C6FFD8B904211948FFF7C1FFD8B93C
:100BA00008211748FFF7BCFFD8B9154B1A6813681E
:100BB00043F001031360636C01336364114B012242
:100BC0001A6038BDE121104808F0EDFBD3E7EA21B7
:100BD0000D4808F0E8FBDEE7EF210B4808F0E3FBE7
:100BE000DEE7F421084808F0DEFBDEE7AC35002044
:100BF00009060008D105000814100240A8080020CA
:100C00000C360020A408002014BB000810B50446D0
:100C1000FFF744FCFFF7C2FCFFF7DAFEFFF79EFC8C
:100C200000231A4619462046FFF74CFD2046FFF7E1
:100C30008DFF10BD30B583B0084C6568084C656009
:100C40000F2801D903B030BD1A460B4601460120DA
:100C500000900448FFF752FDF4E700BF5C36002027
:100C6000643900201C39002070B582B004460D465E
:100C7000012806D01CB94FF6FF739D4222D002B066
:100C800070BD4FF6FF739942F4D1002600963346AB
:100C9000324631460D4809F08FFB4FF0FF310C48CA
:100CA00003F0D4FB0B4803F0CDFA0B48FFF7C2FC6E
:100CB0000A4B5E600A4A1A6050221A81094809F0FC
:100CC00073FBD7E7024803F0EFFBD8E74C36002070
:100CD000AC3800205C3600201C3900206C39002024
:100CE00098C5000864390020F8B55A4B1A685A4B69
:100CF0001B68D31AB3F57A7F00D8F8BD564B1A603B
:100D0000564C204603F0C0FC002626820623638250
:100D10000123E382A3825249204604F0C7FC514DCF
:100D20000A222978204609F01DFC4F4F39462046FB
:100D300009F090FB0A226978204609F013FC394635
:100D4000204609F087FB0A22A978204609F00AFC10
:100D50003946204609F07EFB0A22E978204609F050
:100D600001FC4249204609F095FB3146204604F03B
:100D70009DFC2682202363823D49204609F08AFBA0
:100D8000268230236382344609E03A49334809F029
:100D900061FB09E03849314809F05CFB01340F2C54
:100DA00014DC14F0030FF0D02A4B1D6821463348A1
:100DB000FFF70CFD281AB0F57A7FEBDA30492748A7
:100DC00009F048FB0123A3401E43E7E7234C2949D0
:100DD000204609F03FFB0023238210236382294928
:100DE000204609F037FB86B92749204609F032FB37
:100DF000264B1B68B34202D1002E7FF47EAF234BFB
:100E00001E60164803F096FF77E7214D134C0A2227
:100E10002979204609F0A6FB134F3946204609F0F0
:100E200019FB0A226979204609F09CFB39462046C5
:100E300009F010FB0A22A979204609F093FB3946F4
:100E4000204609F007FB0A22E979204609F08AFBCF
:100E5000CEE700BFA838002058360020AC3800206C
:100E6000BCBC00080000002028BB000888BC0008AB
:100E70002CBB000840BB000848BB00081C39002000
:100E800044BB00084CBB000854BB0008543600208B
:100E90006439002030B583B0244C2046FFF7B6FEFD
:100EA0003223002211462046FFF70CFC01210C20C2
:100EB00009F006FC01210C2009F06AFC642009F00D
:100EC0008DFC1B4CB4F994201A4BA3F89020B4F974
:100ED0000C20A3F89220B4F90E20A3F8942013203C
:100EE00001F0F6FC144D154A1549284603F0C0F9E7
:100EF000144BC5F84832144801F066FFB4F90820D5
:100F0000124BA3F86C20B4F90A20A3F86E20104C01
:100F1000012300933C220221204603F0C7FB204618
:100F200003F0B2FBFFF7E0FE03B030BD1C39002038
:100F300088D500083C3A00205C36002000000020E4
:100F400004000020350C00086C390020783900209E
:100F5000AC38002008B54FF6FF710120FFF784FE82
:100F600008BD08B54FF6FF710020FFF77DFE08BDF4
:100F700070B586B0814901A801F06EFF9DF814405C
:100F8000012C8CBF002401241CB906B070BD25467D
:100F900000E0254601A801F0DAFC002800F0E98015
:100FA00001A801F0E9FD0028F4D001A801F0F7FD47
:100FB000C0B20A2805D00A28E9D00D28EAD00025B9
:100FC000E8E7002DF7D06E4901A809F063FA6D49F2
:100FD00001A809F05FFA6C4901A809F05BFA6B49B6
:100FE00001A809F057FA01A809F04AFA684901A8CE
:100FF00009F050FA674901A809F04CFA664901A8BE
:1010000009F028FA654901A809F024FA644D0A227A
:10101000297801A809F0A6FA624C214601A809F036
:1010200019FA0A22697801A809F09CFA214601A858
:1010300009F010FA0A22A97801A809F093FA2146CA
:1010400001A809F007FA0A22E97801A809F08AFA4A
:10105000554E314601A809F01DFA544901A809F07E
:10106000F9F9534D0A22297901A809F07BFA2146A2
:1010700001A809F0EFF90A22697901A809F072FACA
:10108000214601A809F0E6F90A22A97901A809F088
:1010900069FA214601A809F0DDF90A22E97901A8D7
:1010A00009F060FA314601A809F0F4F9314601A8C7
:1010B00009F0F0F93F4901A809F0ECF9002426E015
:1010C0003D4901A809F0C6F93C4E314601A809F096
:1010D000E1F93B4901A809F0DDF93A4901A809F015
:1010E000B9F90A22294601A809F02DFA364901A8C2
:1010F00009F0B0F9354901A809F0CCF9314601A849
:1011000009F0C8F9324901A809F0C4F901340F2CDB
:1011100027DC304901A809F0BDF92F4B1D68214695
:101120002E48FFF753FB2D1A254901A809F0B2F903
:101130002B4901A809F08EF90A22214601A809F0DD
:1011400002FA1E4901A809F0A5F9264901A809F0EB
:10115000A1F9B5F57A7FB3DA234901A809F07AF944
:10116000B2E7224901A809F095F9214901A809F03F
:1011700091F901A801F058FC07E700BF6C39002085
:101180005CBB00086CBB000884BB000898BB00086F
:10119000A4BB0008B4BB0008BCBB0008D8BB000857
:1011A0000000002028BB0008E0BB0008E8BB0008E6
:1011B00064390020F0BB00085CBC000820BC0008BB
:1011C0000CBC000880BC00088CBC000898BC00085F
:1011D000A0BC000804BC0008A83800201C3900206E
:1011E00014BC000828BC00083CBC0008A8BC0008CF
:1011F000B4BC000830B583B009F0ECFA1B4C206099
:101200001B4803F049F822681A4B1B68D31A142BA9
:1012100025D9184B1A60002408E0002201920092A0
:10122000802321461448FFF70BFA01340F2C13DCFE
:101230000E4B1D6821461048FFF7C8FA281AB0F572
:101240007A7FEADA00220192802300931346214636
:101250000948FFF7F5F9E8E70748FFF7FDFAFFF758
:1012600087FEFFF741FD03B030BD00BFA838002066
:101270005C360020183900201C390020024B1878F9
:10128000024B1B78C01A70471F3A00201D3A0020FD
:10129000074B1B78074A1278934206D2064A126817
:1012A000D05C0133024A137070474FF0FF30704733
:1012B0001D3A00201F3A0020303A0020064B1B78D0
:1012C000064A1278934203D2054A1268D05C7047EE
:1012D0004FF0FF30704700BF1D3A00201F3A00203A
:1012E000303A002008B5054B1B682BB10022044999
:1012F0000A7004490A70984708BD00BF283A0020C8
:101300001E3A0020203A002008B500230C4A137032
:101310000C4A13700C4B186820B10C4B1A78002142
:1013200009F0C0FD00230A4A13700A4A13700A4BE1
:10133000186820B1094B1A78002109F0B3FD08BDE7
:101340001D3A00201F3A0020303A00202C3A00209D
:101350001E3A0020203A0020343A00202D3A002086
:10136000F8B507460E4614461D4B1B78002B2ED0B1
:101370001C4B1D7815441C4B1B789D420CD91F2D0E
:1013800000D820252946194B186809F0E7FDA8B1B7
:10139000164A1060144B1D70144B1B689BB1144D02
:1013A0002878224631461844FEF70AFF2B7823445A
:1013B000DBB22B700B4A137020460EE029460D4815
:1013C00007F0F1FFE8E701237B60002005E092B21F
:1013D000143008F01DFB08B10020F8BD2046FCE7E2
:1013E0001C3A0020203A00202D3A0020343A0020F8
:1013F0001E3A0020ECC4000830B583B005468DF8D5
:1014000007101E4B1B78002B2DD01D4B1C78013470
:101410001C4B1B789C420CD91F2C00D82024214641
:10142000194B186809F09AFDA0B1174A1060154BC6
:101430001C70154B1B6893B1144A11789DF8070076
:10144000585413780133DBB213700D4A1370012026
:1014500003B030BD21460E4807F0A5FFE9E70123A0
:101460006B600020F4E701220DF10701143008F051
:10147000CFFA08B90120EBE70020E9E71C3A002089
:10148000203A00202D3A0020343A00201E3A002055
:10149000ECC40008002242604FF47A728260064A6F
:1014A0000260064AB2F90410A0F86C10B2F90620E6
:1014B000A0F86E20704700BF0CC5000888D5000852
:1014C000012800D0704708B54FF6FF73994200D04D
:1014D00008BD0248FFF7DEFFFAE700BF78390020B9
:1014E00070B504460D4616460023204A1370204A64
:1014F0001370204B186820B11F4B1A78002109F097
:10150000D1FC00231D4A13701D4A13701D4B18682F
:1015100020B11D4B1A78002109F0C4FC1B4B00229E
:101520001A706B00DBB22374332D12D0002284F8C2
:10153000A22086B1012284F8A32004F114054FF4FF
:1015400080421349284608F055F994F8A23023B197
:1015500070BD0122EBE70022EDE70E49284608F0B6
:10156000CEFA0D49284608F0C1FAF1E71D3A0020ED
:101570001F3A0020303A00202C3A00201E3A00206A
:10158000203A0020343A00202D3A00201C3A002056
:10159000A0860100E5120008A916000808B5C9B226
:1015A000FFF79EFF08BD08B50A463321FFF7F6FF97
:1015B00008BD08B5143008F00BFA08BD054B012230
:1015C0001A709140044B19700023044A1370044AA6
:1015D000137070471C3A0020383A00201E3A002051
:1015E000203A002008B5C9B2FFF7E8FF08BD0000A7
:1015F00010B590F8A230012B02D00424204610BD73
:10160000104B1B78104A126810490978143008F002
:1016100027FA90B1012812D004240B4B186820B18E
:101620000B4B1A78002109F03DFC0023094A137086
:10163000044A1370084A1370E0E70024EDE7012420
:10164000EBE700BF203A0020343A0020383A00206F
:101650002D3A00201E3A00201C3A002008B5012136
:10166000FFF7C6FF08BD00000C4B1B78834214D265
:1016700010B504461F2800D820242146084B1868BE
:1016800009F06CFC20B1064A1060044B1C7010BDC0
:101690002146044807F087FEF9E770472C3A0020FE
:1016A000303A0020ECC4000838B5144B1B682BB14D
:1016B000134B1A78134B1B789A4200D238BD0C4654
:1016C00005460846FFF7D0FF0F4B1B687BB122464B
:1016D00029460D4B1868FEF773FD094B00221A705E
:1016E000084B1C70054B1B6820469847E6E740F204
:1016F0008311064807F057FEE9E700BF243A0020AF
:101700001D3A00201F3A0020303A002090C4000803
:1017100008B54FF6FF710120FFF7D2FE08BD0000AB
:10172000034603220BE04FF6FF7119800E49596002
:10173000012119729972002159720C33013A002A61
:10174000F1DA4FF6FF720286084BB3F99410A0F855
:101750009010B3F90C10A0F89210B3F90E30A0F865
:101760009430A0F89620704700093D0088D5000805
:10177000012800D0704708B54FF6FF73994200D09A
:1017800008BD0248FFF7CCFFFAE700BF3C3A002053
:101790004B2940D870B50024032C08D804EB440230
:1017A0009300C35E994211D00134E4B2F4E70024FF
:1017B000032C0BD804EB440293001A46C35EB3F12A
:1017C000FF3F02D00134E4B2F2E78152032C18D873
:1017D0000D4606464B2904D0B0F99630B3F1FF3FD1
:1017E00010D0002386F88530630019198A0032442E
:1017F0001146937A527A496806F1340007F02AFCC0
:10180000358670BD0121284608F05AFF012128467F
:1018100008F0BEFFE5E7704782B070B504AC84E81D
:101820000C004B2947D80023032B08D803EB4304B3
:10183000A200825E914211D00133DBB2F4E70023B3
:10184000032B0BD803EB4304A2001446825EB2F1D3
:10185000FF3F02D00133DBB2F2E70153032B2AD85A
:101860001C465D001D44AA000244059D55609DF87C
:10187000195055729DF818501572012D1FD003EBA9
:1018800043039A000244002393720E4605464B29F7
:1018900004D0B0F99630B3F1FF3F17D063001919A7
:1018A0008A002A441146937A527A496805F1340035
:1018B00007F0D0FB2E86BDE8704002B0704703EB06
:1018C00043039A00024401239372DEE7012130466C
:1018D00008F0F6FE0121304608F05AFFDEE700006E
:1018E0004B2929D80023032B22D870B403E00133FD
:1018F000DBB2032B17D803EB4304A200825E8A42BB
:10190000F5D15A00D418A50044194FF6FF76465376
:101910000A4D656001252572A5721A44940004449D
:1019200000226272E3E74FF6FF73038670BC7047D4
:101930004FF6FF7303867047704700BF00093D00F4
:1019400070B586B08DF80F2000228DF817204B2936
:101950004DD81E460D4604460B46B0F93020914244
:101960001BD00022032A08D802EB42008100615EEE
:101970008B4202D00132D2B2F4E7032A01D900200F
:1019800024E053009818810021448B7A4A7A4968F0
:1019900004F1340007F05EFB25864B2D04D0B4F92A
:1019A0009630B3F1FF3F13D04FF47A7300930123C5
:1019B0000DF117020DF10F0104F1340007F0B6FC30
:1019C0004B2D01D0012E08D09DF8170006B070BD38
:1019D0000021284608F0DCFEE6E7B4F99630B3F1C2
:1019E000FF3FF1D10121284608F0D2FEECE70020AC
:1019F000ECE7002B55D02DE9F04383B01F46BAB178
:101A00004B2915D89046894605460A46B0F930302C
:101A100099421ED00024032C08D804EB4406B000E1
:101A20002B5E9A4202D00134E4B2F4E7032C02D9CF
:101A300003B0BDE8F083630019198A002A441146F7
:101A4000937A527A496805F1340007F003FBA5F850
:101A50003090B9F14B0F04D0B5F99630B3F1FF3F98
:101A60001AD04FF47A730093BBB24246414605F157
:101A7000340007F05BFCB9F14B0FD9D09DF828304A
:101A8000012BD5D1B5F99630B3F1FF3FD0D101216B
:101A9000484608F07DFECBE70021484608F078FE76
:101AA000DFE7704708B54FF6FF710120FFF760FED2
:101AB00008BD0000012800D070474FF6FF7399421F
:101AC000FAD100B583B0002100910B460A460348C5
:101AD00008F072FC03B05DF804FB00BFD43A0020AC
:101AE0002DE9F04385B00446884616466A4B1B78BC
:101AF000332B22D0342B4FD00021684B187808F0BC
:101B000047FEFF2C74D800238DF808308DF809406B
:101B100004238DF80A30052E00F2A98000223346F6
:101B2000B24280F29380D31C18F8021004A8034438
:101B300003F8081C0132D2B2F1E70025B54280F06B
:101B40009280DFF85891002199F8000008F020FEFB
:101B5000534F0123F0224B213846FFF7F1FE0123BA
:101B6000220A4B213846FFF7EBFE0123E2B24B215C
:101B70003846FFF7E5FE0134A4B2012318F805202A
:101B80004B213846FFF7DCFE012199F8000008F0F0
:101B9000FFFD0135ADB2D1E70021404B187808F0C8
:101BA000F7FD23128DF808308DF80940330A43F011
:101BB00080038DF80A308DF80B6001230093042315
:101BC00002AA4B213648FFF714FF0024B44209D281
:101BD000012318F804204B213148FFF7B1FE0134EE
:101BE000A4B2F3E701212D4B187808F0D1FD3AE0BB
:101BF00014F4004F0DD100238DF808308DF8094002
:101C0000E31023F01F035BB243F00C038DF80A309E
:101C100081E7B4F5404F0CD223128DF808308DF8CF
:101C2000094003F020035BB243F014038DF80A303F
:101C300071E723128DF808308DF8094003F0200376
:101C40005BB243F01C038DF80A3064E70122009276
:101C5000033302AA4B211248FFF7CBFE01210F4BA1
:101C6000187808F095FD304605B0BDE8F0830123F3
:101C70000093032302AA4B210948FFF7BAFE002470
:101C8000B442EBD2012318F804204B210448FFF79B
:101C900057FE0134A4B2F3E7DD3A00200E00002025
:101CA0003C3A00202DE9F04385B004468946904631
:101CB0005A4B1B78332B2DD0342B57D00021584B47
:101CC000187808F065FDFF2C7AD800238DF80C30C9
:101CD0008DF80D408DF80E30524D012400940323F1
:101CE00003AA4B212846FFF784FE424600214846BE
:101CF00009F0D8F8009443464A464B212846FFF79E
:101D000078FE2146464B187808F042FD404605B063
:101D1000BDE8F08300254545F8D2414F00213878D1
:101D200008F036FD3F4E01230F224B213046FFF7CE
:101D300007FE0123220A4B213046FFF701FE012353
:101D4000E2B24B213046FFF7FBFD0134A4B2012380
:101D500000224B213046FFF7F3FD09F80500012171
:101D6000387808F015FD0135ADB2D4E72C4D0021CF
:101D7000287808F00DFD23128DF80C308DF80D40F9
:101D8000C8F306238DF80E308DF80F80254E012400
:101D90000094042303AA4B213046FFF72AFE424653
:101DA0000021484609F07EF8009443464A464B21FC
:101DB0003046FFF71EFE2146287808F0E9FCA5E72B
:101DC00014F4004F0DD100238DF80C308DF80D4028
:101DD000E31023F01F035BB243F008038DF80E30CD
:101DE0007AE7B4F5404F0CD223128DF80C308DF801
:101DF0000D4003F020035BB243F010038DF80E306A
:101E00006AE723128DF80C308DF80D4003F02003A3
:101E10005BB243F018038DF80E305DE7DD3A002029
:101E20000E0000203C3A002010B582B080238DF8CF
:101E3000073001220DF107010020FFF751FE0024B9
:101E400001220DF107010020FFF72CFF9DF807305C
:101E500043B1012008F0C2FC0134A4B2132CEFD925
:101E6000002000E0012002B010BD000010B582B0DB
:101E7000244B33221A70FFF7D7FF034610B91846D8
:101E800002B010BD10238DF8073001220DF10701BB
:101E90000020FFF725FE01220DF107010020FFF7CA
:101EA00001FF9DF80730102B01D00023E7E7122334
:101EB0008DF8073001220DF107010020FFF710FE19
:101EC00001220DF107010020FFF7ECFE9DF807301D
:101ED000122B01D00023D2E700248DF80740012205
:101EE0000DF107012046FFF7FBFD01220DF107016F
:101EF0002046FFF7D7FE9DF807300BB90123BEE758
:101F00000023BCE7DD3A002010B582B0294B342213
:101F10001A70FFF789FF044610B9204602B010BDC1
:101F200008238DF8073001220DF107010020FFF78B
:101F3000D7FD01220DF107010020FFF7B3FE9DF848
:101F40000730082B01D00024E7E710238DF8073075
:101F500001220DF107010020FFF7C2FD01220DF162
:101F600007010020FFF79EFE9DF80730102B01D0DF
:101F70000024D2E700248DF8074001220DF107016B
:101F80002046FFF7ADFD01220DF107012046FFF7C6
:101F900089FE9DF807400CB10024BEE701220DF137
:101FA00007011F20FFF77EFE9DF80730032BB4D1F9
:101FB0000124B2E7DD3A002010B582B0294B372268
:101FC0001A70FFF731FF044610B9204602B010BD69
:101FD00008238DF8073001220DF107010020FFF7DB
:101FE0007FFD01220DF107010020FFF75BFE9DF848
:101FF0000730082B01D00024E7E710238DF80730C5
:1020000001220DF107010020FFF76AFD01220DF109
:1020100007010020FFF746FE9DF80730102B01D086
:102020000024D2E700248DF8074001220DF10701BA
:102030002046FFF755FD01220DF107012046FFF76D
:1020400031FE9DF807400CB10024BEE701220DF1DE
:1020500007013920FFF726FE9DF80730042BB4D185
:102060000124B2E7DD3A0020F0B589B0844B1B783B
:102070001BB10124204609B0F0BD4FF40C7008F0EC
:10208000ADFB804C4B212046FFF782FB7E4D0121AA
:10209000287808F015FB0121287808F079FB7B4BA4
:1020A000069301238DF81E308DF81C3000238DF827
:1020B0001D3002AB08AA12E9070083E80700049A62
:1020C00000920CCB4B212046FFF7A6FBFFF71CFF2D
:1020D000054658BBFFF770FF002877D1FFF7C6FE13
:1020E0000446002800F0C480694B04221A70694C31
:1020F0004FF4805323800A258DF80850012202A94D
:102100001B20FFF7EDFC8DF80850012202A91A20D0
:10211000FFF7E6FC2388013B5F4A13804B215948B7
:10212000FFF7DEFB0124564B1C70A3E7584B4022FF
:102130001A70584B4FF400521A80574B41F6FF72F9
:102140001A80002520E0534F3B889B0A504E307880
:102150002C0204EB002080B21E3080B28DF80830D3
:10216000012202A9FFF7BCFC3B889B0A307804EBF4
:10217000002080B21F308DF80830012202A980B201
:10218000FFF7AEFC0135EDB2012DDCD9072DC5D826
:102190003F4E30782C0204EB002080B21E3080B21B
:1021A00000278DF80870012202A9FFF799FC30780A
:1021B00004EB002080B21F308DF80870012202A9C4
:1021C00080B2FFF78DFC0135EDB2DFE7304B102216
:1021D0001A70304B4FF400521A802F4B41F6FF72A9
:1021E0001A8021E02B4F3B889B0A294E30782C0225
:1021F000A4B204EB002080B21E3080B28DF808300B
:10220000012202A9FFF76CFC3B889B0A307804EBA3
:10221000002080B21F308DF80830012202A980B260
:10222000FFF75EFC0135EDB2012DDBD9072D3FF63E
:1022300075AF174E30782C02A4B204EB002080B2A8
:102240001E3080B200278DF80870012202A9FFF726
:1022500047FC307804EB002080B21F308DF8087006
:10226000012202A980B2FFF73BFC0135EDB2DDE7A8
:102270000A4B00221A704B210248FFF731FBF9E6A6
:10228000DE3A00203C3A00200E000020804A5D0526
:10229000DC3A00200C0000200A000020DD3A00207B
:1022A00010B582B0104B1B78040204EB032080B2FF
:1022B00001308DF8071001220DF1070180B2FFF700
:1022C0000FFC094B187804EB002080B2013001228A
:1022D0000DF1070180B2FFF7E5FC9DF80730002BF8
:1022E000EFD102B010BD00BFDC3A002008B54FF6B8
:1022F000FF710120FFF7DEFB08BD0000012800D0C0
:1023000070474FF6FF739942FAD100B583B00021B0
:1023100000910B460A46034808F04EF803B05DF8FA
:1023200004FB00BFE03A002008B54FF6FF71012022
:10233000FFF7E4FF08BD0000012800D070474FF60A
:10234000FF739942FAD100B583B0002100910B468A
:102350000A46034808F030F803B05DF804FB00BFFC
:10236000E83A00204B68436000230381704730B493
:1023700000252B4608E02E2C1FD1032D1FD0681CF2
:1023800015442B71C5B200230C7884B10131A4F13E
:102390003000C0B20928EED803EB830358000319BC
:1023A0009BB2303B9BB2FF2BEED9002003E0032D04
:1023B00007D1D371012030BC70470020FBE700201B
:1023C000F9E70020F7E708B54FF6FF710120FFF7A6
:1023D000B3FF08BDF0B583B004460D4608F0FAF926
:1023E000208104F10C07022204F10801384600F0B4
:1023F00052FE0123ADF8063002220DF106013846E7
:1024000000F049FE4FF48073ADF8063002220DF162
:102410000601384600F03FFE0023ADF806300222E8
:102420000DF10601384600F036FE02220DF10601DC
:10243000384600F030FE02220DF10601384600F069
:102440002AFE2C4603E0661B002E0ADC651C23785E
:10245000ABB12C462378002BF5D02E2BF3D00134D2
:10246000F8E78DF8056001220DF10501384600F00E
:1024700012FE32462946384600F00DFEE6E70023FC
:102480008DF8053001220DF10501384600F003FEFC
:102490004FF48074ADF8064002220DF10601384673
:1024A00000F0F9FDADF8064002220DF106013846B4
:1024B00000F0F1FD012003B0F0BD2DE9F04188B03E
:1024C00005460F46904608F085F9064605F10C04CE
:1024D000204600F025FE002809DC08F07BF9801B6F
:1024E000B84200F2D880322008F078F9EEE76A6846
:1024F0006B6A9A4202D12B8D352B02D04FF6FE70BB
:10250000CBE0204600F044FD0B2840F3C9800C22AC
:102510000DEB0201204600F0E6FDBDF80E20130A87
:1025200043EA02231BB29AB2ADF80A202889BDF80B
:102530000C1088420ED1002B0CDA40F20F231A4205
:102540000ED1BDF812301D0A45EA0325ADB26DB1BA
:10255000002629E0204600F02AFD4FF6FC709CE0A2
:10256000204600F024FD4FF6FB7096E0204600F078
:102570001EFD4FF6FA7090E00021204600F0B3FDFA
:102580009DF808304BB1012202A9204600F0ABFDB6
:102590009DF80820002AF3D0EEE70422002120460F
:1025A00000F0A1FD0136B6B2BDF8102013029BB2B7
:1025B00043EA12239E42E6DB00264EE00122002180
:1025C000204600F090FD00238DF805309DF8053081
:1025D0008BB101220DF10501204600F084FD9DF82C
:1025E000052012F0C00FE9D1002AEFD000212046CB
:1025F00000F079FDEAE702220DF10601204600F025
:1026000072FD022202A9204600F06DFD0422002185
:10261000204600F068FD02220DF10A01204600F07C
:1026200062FDBDF8062013029BB243EA1223012B80
:1026300007D1BDF8082013029BB243EA1223012BF5
:1026400013D0BDF80A2013029BB243EA12220021E4
:10265000204600F048FD0136B6B2AE42B9D320465E
:1026600000F0A5FC4FF6F67017E0BDF80A20130243
:102670009BB243EA1223042B05D0204600F097FCBE
:102680004FF6F77009E0042208EB0201204600F043
:102690002AFD012001E04FF6FF7008B0BDE8F0818F
:1026A0004FF6FD70F9E700002DE9F04782B00546CE
:1026B0000F4690469946FFF75AFE002842D104463D
:1026C0006A68234B5B689A423ED005F10C0608F01D
:1026D00081F800F00F0101F58061304600F076FCD2
:1026E000012803D0204602B0BDE8F087194B0093C3
:1026F0006B68019335226946304600F0BDFC824686
:1027000020B9304600F054FC5446EBE739462846E1
:10271000FFF760FE82460028F3D0304600F0B5FC9B
:1027200082460028EDD04FF0FF3A022CE9DCBAF1E6
:10273000FF3FE6D1424649462846FFF7BEFE8246A5
:102740000134F2E70124CDE76FF00104CAE700BFCE
:10275000E83A0020DCD70008012800D070474FF687
:10276000FF739942FAD100B583B0002100910B4666
:102770000A46044807F020FE034807F015FE03B0A0
:102780005DF804FBF03A0020F83A00202DE9F04310
:1027900089B080460F4615461E46FFF765FC10B906
:1027A00009B0BDE8F0831B4B069301248DF81E4051
:1027B0008DF81C4000238DF81D3002AB08AA12E9E9
:1027C000070083E80700DFF85490049A00920CCBCE
:1027D0004B214846FFF720F8062241460920FFF723
:1027E0007FF90422B9180F20FFF77AF90422B118F3
:1027F0002046FFF775F90422109911440520FFF7D0
:102800006FF94B214846FFF76BF86A68024B5A6034
:10281000C6E700BF804A5D05F83A00203C3A002038
:10282000F0B58DB004460F4616461D4600230093B2
:10283000FF231A46194602A807F0BEFD0B4B04936E
:102840007A68059206937268079208936A680992FB
:102850000A93039B0B930AAB009308AB06AA04A947
:102860002046FFF793FF0DB0F0BD00BFDCD7000896
:1028700000B589B04968019101238DF80730084BF4
:10288000029303910493526805920693019B079368
:1028900006AB04AA02A9FFF7C3FF09B05DF804FB69
:1028A000DCD7000800B587B04A68019201238DF893
:1028B0000730064B029303920493019B059304AAED
:1028C00002A9FFF7D5FF07B05DF804FBDCD70008CD
:1028D000014B1870704700BF0E00002008B54FF67E
:1028E000FF710120FFF738FF08BD007C01288CBF75
:1028F00000200120704781F00100704708467047B2
:1029000008B503685B6C984780F00100C0B208BD51
:102910004182704700B583B08DF8071003685B688B
:1029200001220DF10701984703B05DF804FB037C19
:102930000A7C934205D1012B05D8012A05D8012034
:102940007047002070470020704700207047037CCC
:10295000012B01D90020704710B50446184600F03D
:10296000E5FF14280DD070B118280ED01C2801D016
:10297000012007E023689B682046984710B101209A
:1029800000E0002010BD0020FCE70020FAE7000076
:1029900070B592B004460D46164602A807F004FD35
:1029A000002306934FF47A7307931C4B05930AA8F0
:1029B00007F0FAFC02238DF83430684607F0F4FC87
:1029C000207C01281FD9164B0E93164B5B680F9382
:1029D0000EA902A8FFF7C6FC41F288336A462946D1
:1029E00002A8FFF761FE034650B123681B6A0C4A38
:1029F0001092019A1192324610A920469847034638
:102A0000184612B070BD00F091FF10B90223237474
:102A1000D9E7207C01F07EF8F8E700BFB0C50008D8
:102A2000DCD70008F83A002038B5037C012B00D928
:102A300038BD0446184601F06DF807F0CBFE054698
:102A4000207C00F073FF70B1012007F0C7FE07F093
:102A5000C1FE401B638A9842F2D3207C00F09EFFA7
:102A600002232374E4E702232374E1E770B584B002
:102A700004460D461646007C012819D900216846F7
:102A800007F0BEFC6B68019A9A421BD04FF0FF31F1
:102A900002A807F0B5FC6A68039B9A4212D0002195
:102AA000212000F01BFD207401280ED900200AE02F
:102AB00000F03CFF10B902232374DFE7207C01F013
:102AC00029F8F8E7002004B070BD3246291D00F057
:102AD000D1FF07F07FFE054602E0012007F07EFEF1
:102AE000207C00F023FF17280FD01C280FD080B1C6
:102AF00007F070FE401B638A9842EED9207C00F0FC
:102B00004DFF022323740020DDE70120DBE70120D5
:102B1000D9E70020D7E7007C012801D900207047C1
:102B200008B501F013FA08BD10B5044606E0207C94
:102B300001F00CFA064B1B88984208D2207C012831
:102B400005D800F0F3FE1728F1D01C28EFD010BDF7
:102B50000C00002038B5037C012B01D9002038BDC2
:102B60001446054692B2184601F02AF910B901231D
:102B70006B60F4E72046F2E7007C012801D90020D1
:102B8000704708B501F090F808BD007C012801D914
:102B90000020704708B512B200F0E6FF08BD00B58E
:102BA00083B001220DF10701007C00F0DDFF002859
:102BB00004DD9DF8070003B05DF804FB4FF0FF3023
:102BC000F9E7037C012B09D810B5044603689B681C
:102BD000984730B1207C01F0A1F810BD4FF0FF30D4
:102BE00070474FF0FF30F8E770B588B0037C012BD9
:102BF00003D90024204608B070BD0646184B069342
:102C000001238DF81E308DF81C3000238DF81D3007
:102C100002AC08AB13E9070084E80700114D049BE0
:102C2000009394E80C004B212846FEF7F5FD307C1C
:102C30000D4B1B78000200EB032080B2043080B201
:102C400002222146FFF72EF89DF808309DF8094032
:102C500044EA03244B212846FEF742FECAE700BFA0
:102C6000804A5D053C3A0020DC3A002070B588B00F
:102C7000037C012B03D90024204608B070BD064612
:102C8000184B069301238DF81E308DF81C3000235D
:102C90008DF81D3002AC08AB13E9070084E807008B
:102CA000114D049B009394E80C004B212846FEF73D
:102CB000B3FD307C0D4B1B78000200EB032080B28B
:102CC000103080B202222146FEF7ECFF9DF808305A
:102CD0009DF8094044EA03244B212846FEF700FEF4
:102CE000CAE700BF804A5D053C3A0020DC3A00207C
:102CF00070B58AB004460B7C012B05D9002107F082
:102D00007FFB20460AB070BD0E46174B0893012387
:102D10008DF826308DF8243000238DF8253003AB54
:102D20000AAA12E9070083E80700104D059A0092ED
:102D30000CCB4B212846FEF76FFD307C0C4B1B78EB
:102D4000000200EB032080B20C3080B2042206A9FE
:102D5000FEF7A8FF4B212846FEF7C2FD06A9204634
:102D600007F054FBCDE700BF804A5D053C3A0020E8
:102D7000DC3A0020012800D070474FF6FF739942DB
:102D8000FAD100B583B0002100910B460A460348F2
:102D900007F012FB03B05DF804FB00BF003B00200E
:102DA00008B54FF6FF710120FFF7E4FF08BD00B53D
:102DB00083B08DF8071003685B6801220DF10701ED
:102DC000984703B05DF804FB38B50546018921201A
:102DD00000F084FB012800D938BD044600F008FE4D
:102DE00020B12A89034B23F81420F5E7204600F090
:102DF00091FEF1E7103B002038B50546002401E0C4
:102E00000134E4B2012C0CD8074B33F814202B8981
:102E10009A42F5D1204600F089FD1428F0D1012016
:102E200000E0002038BD00BF103B0020012800D08A
:102E300070474FF6FF739942FAD100B583B0002175
:102E400000910B460A46034807F0B6FA03B05DF856
:102E500004FB00BF083B00202DE9F0470446274B48
:102E60001B785BB943604FF47A738360244A026035
:102E70000222027443822046BDE8F0870E460025F8
:102E80000227A8460DE0284600F00EFF30B9BAF13F
:102E90001C0F04D1284600F03DFE00E02F4601350E
:102EA000EDB2012D19D8174B33F8152033899A420A
:102EB000F5D1284600F03AFD82461728E3D01C28B9
:102EC000E1D0142806D00028E9D10E4B002223F8C7
:102ED0001520E4E74FF00108E1E7B8F1000F03D156
:102EE00033689B6830469847002363604FF47A73D9
:102EF000A360034A226027746382BCE7DD3A0020A6
:102F000034C50008103B0020134B1B780BB9002080
:102F10007047F0B587B017460E460546014601A832
:102F2000FFF79AFF002401E00134E4B2012C10D82D
:102F30000A4B33F814202B899A42F5D1204600F031
:102F4000F5FC1728F0D1BAB23146204600F038FF20
:102F5000EAE7384607B0F0BDDD3A0020103B00201C
:102F600008B54FF6FF710120FFF760FF08BD08B5F7
:102F70000368DB6B984708BD024A02608A694260B9
:102F8000704700BFDCD70008808B7047008A70470D
:102F9000408C704700B583B08DF8071003685B68FC
:102FA00001220DF10701984703B05DF804FB70475B
:102FB00090F82030012B00D9704710B50446184610
:102FC00000F0ECFC022384F8203010BD38B5044634
:102FD0000D4690F8200001280CD92946022000F067
:102FE0007DFA84F82000012807D825820023638415
:102FF000012038BD00F0D2FCEFE70020F9E7000027
:1030000070B592B004460D46164602A807F0CCF9FA
:10301000002306934FF47A730793144B05930AA881
:1030200007F0C2F902238DF83430684607F0BCF986
:103030000F4B0E930F4B5B680F930EA902A8FFF77F
:1030400091F941F288336A46294602A8FFF72CFB22
:10305000012809D12368DB6A054A1092019A11926E
:10306000324610A92046984712B070BDB0C500087E
:10307000DCD70008F83A002008B50023C3830431E8
:1030800090F8200000F0DAFF08BD08B590F82000A5
:1030900001F02EF808BD10B5044693B20A46C18B64
:1030A00090F8200000F096FFE38B0344E38310BD0B
:1030B000438C93B110B582B0044601220DF1070193
:1030C00090F8200000F050FD002809DD638C013BE2
:1030D00063849DF8070002B010BD4FF0FF307047C9
:1030E0004FF0FF30F7E7438CA3B110B5044693428D
:1030F0000AD81AB290F8200000F036FD00280CDD46
:10310000638C1B1A638410BD12B290F8200000F08B
:103110002BFDF3E74FF0FF3070474FF0FF30F2E741
:1031200010B582B00446628C2AB12368DB6B0021A3
:1031300020469847F7E794F8200000F0B5FD10B955
:10314000002002B010BD0822694694F8200000F06B
:103150000BFD0028F5DD694604F1140007F05EF967
:103160009DF804209DF8053003EB0223A3839DF80E
:1031700006309DF8070000EB032080B26084E0E792
:1031800008B590F82030012B05D8428C32B1184692
:1031900000F0C4FD08BD4FF0FF30FBE74FF0FF30FB
:1031A000F8E7000070B582B004460E46154690F868
:1031B0002000012812D90C4B0093736801932A4612
:1031C0006946822000F082FA84F82000012808D89D
:1031D000258200236384012002B070BD00F0DEFB75
:1031E000E9E70020F8E700BFDCD70008012800D09D
:1031F00070474FF6FF739942FAD100B583B00021B2
:1032000000910B460A46034807F0D6F803B05DF874
:1032100004FB00BF143B002008B54FF6FF710120EE
:10322000FFF7E4FF08BD00002DE9F8430646174606
:103230001D46274B1C880C40264B1B78332B17D080
:10324000254A108810FB06F080B2A0F5804080B2BD
:10325000204480B2372B05D063191F4AB2F8008092
:1032600043450EDC2A463946FEF71CFDBDE8F883CF
:10327000194A108810FB06F080B200F5C04080B2F9
:10328000E6E7A8EB04011FFA81F94A463946FEF742
:1032900009FD07EB09010F4B1B78332B0ED00E4BAA
:1032A000188810FB06F080B2A0F5804080B2A4EB35
:1032B00008042C44A2B2FEF7F5FCD7E7064B1888A9
:1032C00010FB06F080B200F5C04080B2EFE700BF0F
:1032D0000A000020DD3A00200C0000202DE9F04714
:1032E00082B004460D4690461F463A4B1B780002BA
:1032F00000EB032080B2243080B2022201A9FEF745
:10330000D1FC9DF804209DF8053043EA02231D44BA
:10331000ADB2314B1E882E40304B1B78332B2AD058
:103320002F4A108810FB04F080B280F40040304433
:1033300080B2372B05D0F319294AB2F800A05345C3
:1033400022DC3A464146FEF7CBFB3D44ADB22B12A0
:103350008DF804308DF805501E4B1B78200200EBD1
:10336000032080B2243080B2022201A9FEF7B8FB0C
:1033700002B0BDE8F0871A4A108810FB04F080B252
:1033800000F5804080B2D2E7AAEB06091FFA89F95E
:103390004A464146FEF7A4FB104B1B78332B0FD057
:1033A0000F4B188810FB04F080B280F40040A6EBAD
:1033B0000A023A4492B208EB0901FEF791FBC4E716
:1033C000074B188810FB04F080B200F5804080B2F3
:1033D000EDE700BFDC3A00200A000020DD3A0020C3
:1033E0000C000020012800D070474FF6FF7399426F
:1033F000FAD100B583B0002100910B460A4603487C
:1034000006F0DAFF03B05DF804FB00BF1C3B0020B0
:1034100030B583B00546154B1B78000200EB032046
:1034200080B2263080B2022201A9FEF73BFC9DF853
:1034300004309DF8054044EA032400E004460B4BA9
:103440001B78280200EB032080B2263080B20222D3
:1034500001A9FEF727FC9DF804309DF8050040EA1D
:1034600003208442EAD103B030BD00BFDC3A002023
:1034700030B583B00546174B1B78000200EB0320E4
:1034800080B2203080B2022201A9FEF70BFC9DF829
:1034900004309DF8054044EA032400E004460D4B47
:1034A0001B78280200EB032080B2203080B2022279
:1034B00001A9FEF7F7FB9DF804309DF8050040EAEE
:1034C00003208442EAD1044B03EBC505A88003B076
:1034D00030BD00BFDC3A0020243B00202DE9F04342
:1034E0008BB0704B1B78002B00F0D9800D46064640
:1034F0006D4B089301238DF826308DF8243000247D
:103500008DF8254003AB0AAA12E9070083E80700FB
:10351000059A00920CCB4B216448FEF77DF9012CF3
:1035200015D8634B1878230203EB00239BB20333B7
:10353000012203A998B2FEF7B5FB9DF80C300AAA48
:10354000224402F8103C0BB30134E4B2E7E7002454
:10355000012C0ED80AAB234413F8103C1D2B11D0BC
:103560001B2B0FD0182B0DD01A2B0BD00134E4B22B
:10357000EEE74B214D48FEF7B3F9022420460BB08D
:10358000BDE8F08310212046FEF78AFE2746494B0E
:10359000002223F81420484B5968484B1A68484BBE
:1035A000A3FB0232930CFA2202FB03F2424B5B684C
:1035B0005B1A9A42FADCDFF8F89099F800004FEABB
:1035C000042808EB00208DF80C60012203A900F408
:1035D0007F40FEF785FA99F8000008EB002080B2E2
:1035E000023080B2FF238DF80C30012203A9FEF7D0
:1035F00077FA002D42D1334A138801339BB21380EE
:10360000B3F5404F03D213464FF440421A802D4B7E
:103610001B881A128DF80C208DF80D30244B1B7866
:10362000200200EB032080B2043080B2022203A902
:10363000FEF756FA01212046FEF732FE224D002603
:1036400025F837601A4B1B78200200EB032080B26C
:10365000283080B2022203A9FEF724FB9DF80C203B
:103660009DF80D3043EA022305EBC7077B80BE714E
:10367000BE804B210D48FEF733F97FE72B128DF802
:103680000C308DF80D5099F8003008EB032080B213
:10369000043080B2022203A9FEF722FACAE702240C
:1036A0006CE700BFDD3A0020804A5D053C3A00200F
:1036B000DC3A0020103B0020001000E03C0000201D
:1036C00083DE1B4310000020243B00202DE9F0473F
:1036D0008CB08B4B1B78002B00F0108116460D46EA
:1036E0000746884B0A9301238DF82E308DF82C3035
:1036F00000248DF82D4003AB0CAA12E9070083E8E3
:103700000700059A00920CCB4B217F48FEF784F806
:10371000012C15D87D4B1878230203EB00239BB2B4
:103720000333012203A998B2FEF7BCFA9DF80C30CE
:103730000CAA224402F8103C0BB30134E4B2E7E7D0
:103740000024012C0ED80CAB234413F8103C1D2B85
:1037500011D01B2B0FD0182B0DD01A2B0BD00134EE
:10376000E4B2EEE74B216848FEF7BAF8022420469F
:103770000CB0BDE8F08710212046FEF791FDA04671
:10378000634B002223F81420624B5968624B1A687D
:10379000624BA3FB0232930CFA2202FB03F25D4B55
:1037A0005B685B1A9A42FADCDFF860A19AF80000C5
:1037B0004FEA042909EB00208DF80C70012203A9BF
:1037C00000F47F40FEF78CF99AF8000009EB002026
:1037D00080B2023080B2FF238DF80C30012203A9A1
:1037E000FEF77EF9002E78D14D4A138801339BB243
:1037F0001380B3F5404F03D213464FF440421A8072
:10380000474B1B881A128DF80C208DF80D303F4B5A
:103810001B78200200EB032080B2043080B2022229
:1038200003A9FEF75DF93F4B93E8030006906B791F
:1038300003F07F038DF81B30AB798DF81C30EB79EA
:103840008DF81D30314F387809EB002080B20C30F4
:1038500080B20422A918FEF743F933128DF80C3018
:103860008DF80D603878250205EB002080B210300D
:1038700080B2022203A9FEF733F9387809EB002061
:1038800080B2063080B2062206A9FEF729F901218E
:103890002046FEF705FD244E4FF0000926F838902B
:1038A000387805EB002080B2283080B2022203A9CC
:1038B000FEF7F8F99DF80C209DF80D3043EA02233D
:1038C00006EBC808A8F8023088F80690A8F804901B
:1038D0004B210D48FEF704F849E733128DF80C3000
:1038E0008DF80D609AF8003009EB032080B20430A7
:1038F00080B2022203A9FEF7F3F894E7022436E728
:10390000DD3A0020804A5D053C3A0020DC3A002088
:10391000103B0020001000E03C00002083DE1B4331
:103920001000002000BA0008243B0020F0B589B048
:103930000446174B069301268DF81E608DF81C6017
:1039400000238DF81D3002AD08AB13E9070085E8B0
:103950000700104F049B009395E80C004B2138465C
:10396000FDF75AFF0C4B1B78200200EB032080B2BE
:1039700003303246294680B2FEF794F99DF808409C
:103980004B213846FDF7ACFF204609B0F0BD00BF23
:10399000804A5D053C3A0020DC3A002030B589B011
:1039A0000546114B069301238DF81E308DF81C300F
:1039B00000238DF81D3002AB08AA12E9070083E846
:1039C00007000A4C049A00920CCB4B212046FDF7CD
:1039D00023FF10212846FEF763FC4B212046FDF70C
:1039E0007FFF09B030BD00BF804A5D053C3A002032
:1039F00070B588B006461C4B069301258DF81E5005
:103A00008DF81C5000238DF81D3002AC08AB13E973
:103A1000070084E80700049B009394E80C004B2106
:103A20001248FDF7F9FE124B1B78300200EB032021
:103A300080B203302A46214680B2FEF733F99DF862
:103A40000830132B06D04B210848FDF749FF002012
:103A500008B070BD02213046FEF722FC4B2103481E
:103A6000FDF73EFF0120F3E7804A5D053C3A002068
:103A7000DC3A00202DE9F04788B007468A46914697
:103A8000214B069301238DF81E308DF81C30002346
:103A90008DF81D3002AD08AB13E9070085E807007B
:103AA0001A4E049B009395E80C004B213046FDF71D
:103AB000B3FEDFF85C8098F800003C0204EB0020C5
:103AC00080B20C3080B204225146FEF709F84FEA6A
:103AD00029238DF808308DF8099098F8000004EB40
:103AE000002080B2103080B202222946FDF7F8FF94
:103AF00004213846FEF7D4FB4B213046FDF7F0FE9B
:103B000008B0BDE8F08700BF804A5D053C3A002060
:103B1000DC3A002030B589B00546114B06930123ED
:103B20008DF81E308DF81C3000238DF81D3002AB4F
:103B300008AA12E9070083E807000A4C049A0092D9
:103B40000CCB4B212046FDF767FE08212846FEF7E7
:103B5000A7FB4B212046FDF7C3FE09B030BD00BFD7
:103B6000804A5D053C3A00202DE9F04188B00446CA
:103B700088461746484B33F83050484B069301238C
:103B80008DF81E308DF81C3000238DF81D3002ABEF
:103B900008AA12E9070083E80700049A00920CCBF8
:103BA0004B213F48FDF738FE3E46AF4247DC002D33
:103BB00050D0AF4200DB2E46374B03EBC4035D8889
:103BC000B8F1000F05D0B3B2424629462046FFF7B0
:103BD0002BFBB3B2591989B22F4800EBC405698099
:103BE00030F83420D21A92B220F83420A879034455
:103BF0009BB2F92B01D8002A41D1274B03EBC40318
:103C000000229A710B128DF808308DF80910254B9F
:103C10001B78200200EB032080B2283080B2022201
:103C200002A9FDF75DFF40212046FEF739FB4B213D
:103C30001B48FDF755FE304608B0BDE8F081204630
:103C4000FFF7E6FB144B03EBC4029579451B23F801
:103C50003450ACE7134B1B78200200EB032080B2FA
:103C60000330012202A980B2FEF71CF89DF808304B
:103C7000142B09D053B11C2B0AD12E46D7E7064A84
:103C800002EBC404A371D2E72E46D0E72E46CEE75E
:103C90004FF0FF36CBE700BF243B0020804A5D0594
:103CA0003C3A0020DC3A0020194B33F830300BB19D
:103CB0001846704770B588B00546164B0693012329
:103CC0008DF81E308DF81C3000238DF81D3002ABAE
:103CD00008AA12E9070083E807000F4E049A009231
:103CE0000CCB4B213046FDF797FD2846FFF790FBA4
:103CF00004464B213046FDF7F3FD054A02EBC503B0
:103D00009B79E31A9BB222F83530184608B070BD93
:103D1000243B0020804A5D053C3A002010B58AB063
:103D20000446214B089301238DF826308DF824306A
:103D300000238DF8253003AB0AAA12E9070083E8B7
:103D40000700059A00920CCB4B211848FDF764FD43
:103D5000174B03EBC4035B88164A10880340164ACE
:103D60001278332A16D0154A108810FB04F080B25E
:103D7000A0F5804080B2184401220DF11B0180B2F1
:103D8000FDF790FF4B210948FDF7AAFD9DF81B00A8
:103D90000AB010BD094A108810FB04F080B200F58B
:103DA000C04080B2E7E700BF804A5D053C3A002092
:103DB000243B00200A000020DD3A00200C000020F7
:103DC0002DE9F04F8FB081468B465C4B1E889642A2
:103DD00005D3164603E006F024FCB24535D2584B15
:103DE000069301278DF81E708DF81C7000238DF846
:103DF0001D3002AC05AB93E8070084E80700DFF84C
:103E00004881049B009394E80C004B214046FDF749
:103E100003FD4846FFF72CFB82464A4B18784FEAD1
:103E2000092505EB002080B203303A46214680B2D6
:103E3000FDF738FF9DF808404B214046FDF750FD47
:103E4000172CC8D01C2CC6D000263D4B099301234B
:103E50008DF82A308DF8283000248DF8294002ABE7
:103E600008AA07CA83E80700049A00920CCB4B21EA
:103E70003548FDF7D1FC33465A4621464846FFF700
:103E80002DFA20214846FEF70BFA2E4B187805EB49
:103E9000002080B2023080B2012202A9FDF702FFA9
:103EA0009DF8083013F0100F32D1264B187805EB2F
:103EB000002080B20330012202A980B2FDF7F2FE99
:103EC0009DF80830F3B1204C4B212046FDF708FD4A
:103ED00006F0A7FB1A4B0C9301238DF836308DF8B2
:103EE000343000238DF8353002AB0EAA12E90700FA
:103EF00083E80700049A00920CCB4B212046FDF783
:103F00008BFCC2E74B211048FDF7EAFC002611E0CC
:103F10000C4B187805EB002080B2023080B21023E1
:103F20008DF80830012202A9FDF7DAFD4B21064881
:103F3000FDF7D6FC30460FB0BDE8F08F0C00002036
:103F4000804A5D05DC3A00203C3A00202DE9F04132
:103F500088B004461C4B069301268DF81E608DF830
:103F60001C6000238DF81D3002AD08AB13E907007B
:103F700085E80700154F049B009395E80C004B2142
:103F80003846FDF749FC2046FFF772FA8046104B91
:103F90001B78200200EB032080B203303246294612
:103FA00080B2FDF77FFE9DF808404B213846FDF7B3
:103FB00097FC172C03D01C2C01D04FF00008404672
:103FC00008B0BDE8F08100BF804A5D053C3A0020A2
:103FD000DC3A0020F0B589B005460E4617461C466F
:103FE000144B069301238DF81E308DF81C300023EE
:103FF0008DF81D3002AB08AA12E9070083E807001C
:10400000049A00920CCB4B210B48FDF705FC284687
:10401000FFF72EFAA04200D2044623463A46314624
:104020002846FFF75BF94B210348FDF759FC204672
:1040300009B0F0BD804A5D053C3A00200B7833B9E9
:104040004B7823B98B7813B9CB78002B48D00AB9B9
:10405000002070472DE9F04788B091468846044615
:10406000204B069301258DF81E508DF81C5000231F
:104070008DF81D3002AE08AB13E9070086E8070093
:10408000194F049B009396E80C004B213846FDF72E
:10409000C3FBDFF858A09AF80000240204EB0020CC
:1040A00080B20C3080B204224146FDF719FD4FEA80
:1040B00029238DF808308DF809909AF8000004EB58
:1040C0000024A4B21034A0B202223146FDF708FD4C
:1040D0004B213846FDF704FC284608B0BDE8F087C0
:1040E00000207047804A5D053C3A0020DC3A002001
:1040F00030B58DB00546414B079301238DF8223032
:104100008DF8203000238DF8213003AB06AA07CAB2
:1041100083E80700059A00920CCB4B213848FDF745
:104120007BFB20212846FEF7BBF8364B18782C0283
:1041300004EB002080B2023080B2012203A9FDF717
:10414000B1FD9DF80C3013F0100F42D12D4B1878B3
:1041500004EB002080B2023080B2012203A9FDF7F7
:10416000A1FD9DF80C3013F0080F1ED1244C4B21FB
:104170002046FDF7B5FB06F054FA204B0A930123C5
:104180008DF82E308DF82C3000238DF82D3003ABB8
:104190000CAA12E9070083E80700059A00920CCBED
:1041A0004B212046FDF738FBBFE7164B187804EB90
:1041B000002080B2023080B218238DF80C3001222A
:1041C00003A9FDF78DFC4B210D48FDF789FB00206D
:1041D00012E00C4B187804EB002080B2023080B261
:1041E00010238DF80C30012203A9FDF779FC4B2137
:1041F0000348FDF775FB01200DB030BD804A5D0519
:104200003C3A0020DC3A002008B54FF6FF7101204F
:10421000FFF7E8F808BD0000012800D070474FF60E
:10422000FF739942FAD100B583B0002100910B468B
:104230000A46034806F0C0F803B05DF804FB00BF6F
:10424000343B002010B5044606F0AEF80023E360CE
:104250004FF47A732361054BA36004F11C0006F050
:10426000A3F8022384F82830204610BDB0C500080A
:1042700030B583B004460D461146684606F0C6F8D0
:1042800069462846FEF70EFB41F6361104F1080098
:10429000FEF79CFE03B030BD70B582B0044600F15D
:1042A00008052846FEF73CFF80B2A4F83E0201381C
:1042B00080B240F21123984203D90025284602B06B
:1042C00070BD40F2122204F12C012846FEF70BFFCC
:1042D000236A63600023072B09D8E21892F82C1098
:1042E0001A4AD25C91422ED10133DBB2F3E794F843
:1042F000345094F8353045EA0325A4F84052B5F51A
:10430000A04F04D0B5F5005FD8D00025D6E794F8CB
:10431000382084F8422294F83A0094F83B3040EA7E
:104320000320A4F8440294F83D1094F83C3041EA8C
:104330000321A4F84612D4F84862002EBED004F13E
:104340003E03B047BAE70025B8E700BF08BA000847
:1043500008B54FF6FF710120FFF75EFF08BD002989
:1043600073DB10B4B0F90C408C4213DD002A11DB72
:10437000B0F90E4094420DDD847E022C14D0032C43
:104380001DD0012C09D0012B20D01CB2002C32D022
:10439000022B46D05DF8044B70470489A41AA4B2DE
:1043A000013C0A4621B2EEE70489611A89B201395B
:1043B00009B24489A21A92B2013A12B2E3E74489DF
:1043C000641AA4B2013C114622B2DCE7C46A134667
:1043D000002A0EDB43F3CF03B0F9080000FB031102
:1043E00002F00702012303FA02F2635C13436354F1
:1043F000D0E7D31DEEE7C46A1346002A0FDB43F370
:10440000CF03B0F9080000FB031102F007020123FB
:1044100003FA02F2635C23EA02036354BAE7D31D92
:10442000EDE7C46A1346002A0DDB43F3CF03B0F96E
:10443000080000FB031102F0070201239340625CB5
:104440005A406254A6E7D31DEFE7704738B50446DB
:104450000D464022802100F0C3FE104B2360002255
:1044600062620F4BA362E262FF2384F8333084F868
:10447000343084F8353084F8363084F837504FF6CD
:10448000FF73A4F85830074BE365012384F86030CC
:1044900084F8623084F86120204638BDA8CA00083C
:1044A0007839002000093D0010B50446034B036035
:1044B000C06A08B106F0CEF9204610BDA8CA0008AF
:1044C00038B504460D46806A88B194F93010FDF77E
:1044D00089F8A06A03681B6800219847A06A0368EE
:1044E0001B6829469847A06AFDF7B8F838BD226CCA
:1044F0001368216D23EA01031360606A28B1012368
:104500002A464B21FDF71CFAF0E7802311E0A16B4E
:104510000A68A06C22EA00020A60E16B0A68E06C9B
:1045200002430A60E16B0A68E06C22EA00020A605A
:104530005B08002BDAD01D42E9D0A16B0A68A06CA1
:1045400002430A60E9E770B586B004460D46806A0A
:1045500070B1616EFDF72DF805B3A7212046FFF776
:10456000AFFFA06AE0B1A16EFDF723F806B070BD01
:10457000666A66B103AB04F1580207CA83E8070014
:10458000059A00920CCB4B213046FDF745F9626C41
:104590001368616D23EA01031360DDE7A621DDE7FF
:1045A000626C1368616D0B431360606A0028DDD094
:1045B0004B21FDF795F9D9E72DE9F04104460D4669
:1045C0001746806A68B394F93010FDF70BF8A06ABB
:1045D00003681B6800219847012616E0A06AFDF7D2
:1045E0003DF894F93010A06AFCF7FCFFA06A03685C
:1045F0001B68002198470126A06A03681B6815F80C
:10460000011B98470136F6B247467B1E5FFA83F8D6
:1046100017B11F2EF0D9E1E7A06AFDF71FF8BDE83A
:10462000F081226C1368216D23EA0103136000E01E
:1046300037467E1EF6B2002FF1D015F8012B606AC6
:1046400020B101234B21FDF77BF9F1E7802311E035
:10465000A06B0168A76C21EA07010160E16B0868A3
:10466000E76C38430860E16B0868E76C20EA0700F4
:1046700008605B08002BDBD01A42E9D0A06B016810
:10468000A76C39430160E9E708B50346C06AB3F98E
:104690000820B3F90A30073306D4DB1003FB02F21B
:1046A000002106F0FFFB08BD0733F6E72DE9F041D6
:1046B00088B004460F4615461E469DF83880C36AEA
:1046C0004BB32046FFF7E0FFB4F90A20202A34DD7F
:1046D000B4F90810523901EBD171403A02EBD272B1
:1046E000012302934023019352230093C24B42F3D0
:1046F0004F0241F34F01204600F08CFD84F83170E9
:10470000A06A002800F0928085BBB4F90A30202B03
:104710002AD03D252BE0B0F90800B4F90A30073360
:1047200009D4DB1003FB00F006F08CF8E0620028EF
:10473000C7D1002073E00733F3E7B4F908107339E9
:1047400001EBD171203A02EBD272012302932023B4
:10475000019373230093A94B42F34F0241F34F019E
:10476000204600F057FDC9E73C2500E06DB284F813
:104770003050B8F1000F55D126B194F93700002818
:1047800080F20281A06A002800F01781616EFCF7B8
:1047900010FF04229A492046FFF70EFFB4F90A10D1
:1047A0000139C9B22046FFF78BFE04229549204605
:1047B000FFF702FF94F93130012B00F0148114212E
:1047C0002046FFF77DFE04228F492046FFF7F4FEC6
:1047D000A3688E4A934200F008818D4A934200F00C
:1047E00023818C4A934200F02F81D9212046FFF784
:1047F00067FE94F93130012B00F03681F12120461B
:10480000FFF75EFE062284492046FFF7D5FEA06A28
:10481000002800F02B81A16EFCF7CBFE012008B030
:10482000BDE8F0810021FCF7BEFEA5E7012194F967
:10483000350005F045FF012194F9360005F040FFF1
:1048400094F935304A2B0AD8744A32F91320C2F34E
:104850000312082A20D8724951F8222000E00022D1
:10486000143222644A2B19D86C4A32F9133003F0FF
:104870000F02012393409BB2236594F936204A2A04
:104880000FD8664B33F91230C3F30313082B23D828
:10489000634951F8233005E00022E1E74FF400437B
:1048A000EAE70023143363644A2A17D85B4931F9D5
:1048B000122002F00F0101228A4092B2626519684B
:1048C0000A431A60606A60B1B8F1000F3FF454AF58
:1048D0004B21FCF75DFF4FE70023E3E74FF4004275
:1048E000ECE7012194F9330005F0EAFE012194F987
:1048F000340005F0E5FE94F933304A2B0AD8474AD4
:1049000032F91320C2F30312082A20D8444951F87F
:10491000222000E000221432A2634A2B19D83F4A19
:1049200032F9133003F00F02012393409BB2A364CA
:1049300094F934204A2A0FD8384B33F91230C3F394
:104940000313082B1BD8364951F8233005E0002209
:10495000E1E74FF40043EAE700231433E3634A2A14
:104960000FD82E4931F9122002F00F0101228A409E
:1049700092B2E264196821EA02021A60FCE600239E
:10498000EBE74FF40042F4E7012105F099FE012125
:1049900094F9370005F0FCFE012005F01FFF00210F
:1049A00094F9370005F0F4FE0A2005F017FF012105
:1049B00094F9370005F0ECFEE4E6656A65B105ABF5
:1049C00004F1580207CA83E80700079A00920CCB4B
:1049D0004B212846FCF720FF626C1368616D23EAC7
:1049E00001031360D5E61021EAE604220D492046B2
:1049F000FFF7E2FDF9E600BF00C60008C0C80008E6
:104A000000CB000804CB000808CB00088000200081
:104A100080004000600010000CCB000888D5000822
:104A20001800002014CB0008032217492046FFF786
:104A3000C3FD94F93130012B04D0CF212046FFF77C
:104A40003FFDD2E69F21F9E7032210492046FFF7F8
:104A5000B3FD94F93130012B04D0AF212046FFF78C
:104A60002FFDC2E61021F9E72221C8E6626C136827
:104A7000616D0B431360606A20B14B21FCF730FF7E
:104A80000120CCE60120CAE618CB00081CCB0008A8
:104A9000F0B4BDF81040002A24DBB0F90A5095426A
:104AA00020DD002920DB0F465E18B0F90850AE4229
:104AB00002DDABB25B1A1BB2002B13DDC16A1046DC
:104AC000002A15DBC01000FB0575294402F007021F
:104AD000012000FA02F2D2B284420BD020B2A8B177
:104AE000022C21D0F0BC70470B441BB20021DAE746
:104AF000D01DE7E7581E00B2002BF3D00C4614F887
:104B0000013B13430B7003462146F3E7D243D2B275
:104B1000581E00B2002BE5D00C4614F8013B1340A0
:104B20000B7003462146F3E7581E00B2002BD9D084
:104B30000C4614F8013B53400B7003462146F3E743
:104B4000F0B5BDF8144000294EDBB0F908508D4295
:104B50004ADD002A49DBD718B0F90A60B74202DD06
:104B6000B3B29B1A1BB2002B3EDDD2B2DBB2C76AD6
:104B7000D60805FB0616BD1912F0070217D0C2F1C0
:104B80000802D2B2314911F802C0934206D2A2EB18
:104B9000030EFF2141FA0EF101EA0C0C012C28D082
:104BA00021B261B3022C30D0B0F908100D449A4202
:104BB0001AD89B1ADBB2072B0BD9022C2BD0ACB323
:104BC000FF212970B0F908201544083BDBB2072B00
:104BD000F7D84BB103F007031D4AD35C012C27D053
:104BE00022B24AB3022C2CD0F0BD13441BB20022D7
:104BF000B1E7B95D4CEA010C07F806C0D4E7B95D2E
:104C000021EA0C0C07F806C0CEE7B95D8CEA010C6E
:104C100007F806C0C8E72A78D2432A70B0F90820FE
:104C20001544083BDBB2072BF5D8D2E70021C8E7D3
:104C30002A7813432B70D7E72A7822EA03032B70D4
:104C4000D2E72A7853402B70CEE700BFF0CA0008A5
:104C5000F8CA000830B583B0BDF81850847E022C25
:104C600012D0032C1FD0012C06D0002434B30095A1
:104C7000FFF766FF03B030BD0489A41AA4B2013C5B
:104C80000A4621B20124F1E70489611A89B2013987
:104C900089B24489A21A92B2013A12B2C91A0131F8
:104CA00009B20024E2E74489641AA4B2013CA4B228
:104CB000E41A0134114622B20124D7E70095FFF728
:104CC000E7FED7E730B583B0BDF81850847E022CDC
:104CD00015D0032C22D0012C06D0002434B300952B
:104CE000FFF7D6FE03B030BD0489A41AA4B2013C7C
:104CF000A4B2E41A01340A4621B20124EEE7048981
:104D0000611A89B2013909B24489A21A92B2013AF0
:104D100092B2D21A013212B20024DFE74489641A37
:104D2000A4B2013C114622B20124D7E70095FFF757
:104D300007FFD7E72DE9F04186B00446806A38B313
:104D4000616EFCF736FC052251492046FFF734FC22
:104D5000B4F908100139C9B22046FFF7B1FBB4F924
:104D60000870B4F90A30073328D4DB1017FB03F3BB
:104D70009FB2E56AA06A00284CD094F93010FCF785
:104D800031FCA06A03681B6840219847012620E097
:104D9000656A65B103AB04F1580207CA83E80700EE
:104DA000059A00920CCB4B212846FCF735FD626C2E
:104DB0001368616D23EA01031360C4E70733D4E786
:104DC000A06A03681B6815F8011B98470136F6B204
:104DD00047467B1E1FFA83F887B11F2EF0D9A06AC1
:104DE000FCF73CFC94F93010A06AFCF7FBFBA06ACE
:104DF00003681B68402198470126E1E7A06AFCF799
:104E00002DFCA06A002837D0A16EFCF7D2FB06B0BB
:104E1000BDE8F081226C1368216D0B43136000E044
:104E200037467E1EB6B2002FEBD015F8012B606A14
:104E300020B101234B21FCF783FDF1E7802311E032
:104E4000A06B0168A76C21EA07010160E06B0168B3
:104E5000E76C39430160E06B0168E76C21EA070108
:104E600001605B08002BDBD01A42E9D0A06B01681F
:104E7000A76C39430160E9E7626C1368616D0B430D
:104E80001360606A0028C2D04B21FCF729FDBEE701
:104E900020CB00082DE9F04F85B0074690461E460E
:104EA000BDF93850BDF83C300193A5EB0209B9F1CA
:104EB000000FB8BFC9F10009A6EB010ABAF1000F53
:104EC000B8BFCAF1000AD14504DC2B4635461E4660
:104ED00088461146A84505DC33460E4619462B4642
:104EE00045469846A8EB05039BB202931CB28B1B68
:104EF000002BB8BF5B42009304EBD47464108E4265
:104F000002DA0123039313E04FF0FF3303930FE022
:104F10003B68D3F810B0019B324629463846D84743
:104F2000009BE41AA3B21CB2002C0EDB01352DB29B
:104F3000454511DCD145EBDD3B68D3F810B0019B52
:104F40002A4631463846D847EAE7039A164436B22D
:104F5000029AD41824B2E9E705B0BDE8F08F704793
:104F600010B50468A468A04710BD30B583B00468CC
:104F7000246BBDF818500095A04703B030BD30B584
:104F800083B00468646BBDF818500095A04703B067
:104F900030BD30B583B00468A46BBDF81C500195DA
:104FA000BDF918500095A04703B030BD70472DE9FA
:104FB000F04182B005460E4617461C460368DB6882
:104FC00098472B68D3F820803C44A4B2013CBDF83C
:104FD0002030019324B2009433463A4631462846A5
:104FE000C0472B685B6A2846984702B0BDE8F0814D
:104FF0002DE9F04182B005460E4617461C4603686F
:10500000DB6898472B68D3F8208033199BB2013BAB
:10501000BDF82020019200971BB23A46314628463F
:10502000C0472B685B6A2846984702B0BDE8F0810C
:105030002DE9F04F83B005460E4692461F46BDF956
:105040003090BDF834800368DB6898473446F31924
:105050009C420CDA2B68D3F818B0CDF800804B4690
:10506000524621462846D847013424B2EFE72B6840
:105070005B6A2846984703B0BDE8F08F10B582B050
:105080000268946B0191B0F90E200092B0F90C30D7
:1050900000221146A04702B010BD2DE9F04782B0B2
:1050A00007460E461446BDF92880BDF82C9099425B
:1050B00018D01D46424528D00368DB6898473B68F6
:1050C000D3F820A0CDF80490CDF800802B462246DE
:1050D00031463846D0473B685B6A3846984702B04D
:1050E000BDE8F087424502DC434690461C463B68DB
:1050F0001D6BA4EB08039BB20133CDF800901BB2EB
:10510000424631463846A847E9E7994201DC0D4658
:105110001E463B68D3F83480731B9BB20133CDF835
:1051200000901BB2224629463846C047D7E72DE9F2
:10513000F04782B004460D4616469A46BDF92880CF
:10514000BDF82C700368DB6898472368D3F81C907F
:1051500000975346324629462046C8472368D3F86D
:105160001C9006EB080292B2013A0097534612B225
:1051700029462046C8472368D3F81890009743462D
:10518000324629462046C8472368D3F8189005EBD5
:105190000A0189B2013900974346324609B22046D6
:1051A000C84723685B6A2046984702B0BDE8F0878D
:1051B00001F003018176032910D8DFE801F002092C
:1051C0000209B0F908308381B0F90A30C381704711
:1051D000B0F90A308381B0F90830C3817047704755
:1051E00030B4002444600A4D056001814281818110
:1051F000C2818476048244820122427602764FF68E
:10520000FF71C1828182C2760477046230BC70472C
:1052100030D000082DE9F04F85B080460191009212
:105220009B46BDF93860BDF93C300393BDF8403072
:10523000029316F1070A09D44FEAEA0AD8F80030B7
:10524000DB684046984700273D462EE00AF1070AF2
:10525000F2E70AFB09F11A46002B12DB42F3CF02F8
:105260000A441BF8025015F0800F0CD1013423B210
:10527000B34213DA9CB214F0070FEAD06D00EDB21E
:10528000F1E7DA1DEAE7D8F800301F69019BE11861
:10529000029B009A09B24046B847E7E74F460137FC
:1052A0003FB2009B01331BB20093039B9F4202DA83
:1052B0000023B946DCE7D8F800305B6A40469847DF
:1052C00005B0BDE8F08F00002DE9F04F8FB08246A9
:1052D000069107929946BDF860300893BDF8648046
:1052E0009DF868B09DF86C300493026A3AB3137A63
:1052F000A9EB0303DBB2506800EBC301126805920F
:1053000030F8337091F80280CB780B9391F9053027
:105310000C9391F906300D93BBF1010F40F2D6804A
:10532000BDF930300993BDF934300A93DAF8003012
:10533000DB685046984700231D4699461CE1B0F9AA
:105340000C308B4240F32481B0F90E300798834231
:1053500040F31E810BEB4B0253000B44002B40F338
:105360001781049B00EBC303002B40F311819AF8D3
:105370001C3033B9B9F1AF0F03D909F101095FFA54
:1053800089F9DAF80030DB68504698470027CDF8F5
:105390001490CDF80C80DDF82080049E5BE0DAF8F4
:1053A0000030D3F81480069B09FB0B31079B04FBEC
:1053B0000632019700965B4612B209B25046C047CA
:1053C000013464B26B08072C41DC1D4613F0010F59
:1053D00013D0BBF1010FE2D1012EE0D1DAF8003099
:1053E000D3F81080069B09EB0301079BE2183B46AC
:1053F00012B209B25046C047E2E7039B9F42DFD09A
:10540000BBF1010F12D0DAF80030D3F81480069BFC
:1054100009FB0B31079B04FB0632039B01930096AB
:105420005B4612B209B25046C047C9E7012EEAD125
:10543000DAF80030D3F81080069B09EB0301079BD4
:10544000E218039B12B209B25046C047B8E7B8460B
:105450004F4601377FB2042F09DC059B03EB830322
:105460003B444D4AD35C0024B9464746ABE7DDF8E0
:105470000C80089B434513D0BBF1010F16D0DAF81E
:1054800000305C690BEB8B01069B1944CDF804805E
:10549000049BDB0000935B46079A09B25046A04785
:1054A000DAF800305B6A5046984771E0049B012BA4
:1054B000E5D1DAF800309C6906990531CDF8008015
:1054C0000823079A09B25046A047E9E7049B012B3D
:1054D0003FF626AF00230A93099327E715F0800FC4
:1054E00010D16D00EDB20134E4B2334644453DD2F3
:1054F0005E1CF6B213F0070FF0D17B1C059AD55D48
:105500009FB2EBE7BBF1010F18D0DAF80030D3F807
:105510001490099B1919069B01FB0B310A9B039AF6
:105520009A18049B079802FB0302089801900093C5
:105530005B4612B209B25046C847D2E7049B012B22
:10554000E3D1DAF80030D3F810900C9B069A991842
:1055500014FA81F10D9B079A9A18039B13FA82F2B1
:10556000089B12B209B25046C847BAE7DDF80C9062
:1055700009F101025FFA82F90B9A914503D20024E6
:10558000CDF80C90B2E7DAF800305B6A50469847E5
:105590000FB0BDE8F08F00BF28CB0008F0B585B094
:1055A0000446036A002B3FD00A2974D00D297AD013
:1055B0001A7A914277D3587A884274D38A1AD2B22F
:1055C0005D6805EBC205AA78E87832B328B395F98F
:1055D0000500E67E8EB1B4F91070267E024402FB0F
:1055E0000672B4F90C00824207DD00222282607E3E
:1055F0009B7A628A00FB03236382637E0393237E8C
:105600000293E38A0193A38A00930B46B4F9122014
:10561000B4F910102046FFF757FE2979237E228A1D
:1056200001FB032323823EE00A292DD00D293AD025
:10563000C37E8BB1B0F91020037E03EB4303580007
:105640001318B4F90C20934206DD00232382627EF6
:10565000638A03EBC2036382637E0393237E029318
:10566000E38A0193A38A00930B46B4F91220B4F99C
:1056700010102046FFF728FE237E03EB43035A0059
:10568000238A1A4422820EE00382427E438A03EB7D
:10569000C203438207E000220282417E9B7A428A53
:1056A00001FB03234382012005B0F0BD0B4639B155
:1056B000026A0AB103627047428A06324282F9E7FF
:1056C000026A002AF6D0428A063A4282F2E70000D5
:1056D00008B5024800F092FA08BD00BFAC350020C2
:1056E00000B595B03022002108A805F0DBFB0023AF
:1056F000039304930593069307930193234A116C34
:1057000041F080511164126C02F080520192019AB2
:1057100002931F4B1A6842F480421A601B6803F41C
:1057200080430293029B012308934FF48033099333
:1057300002220E924FF480030F9304231093A821AA
:1057400011911292139308A801F074FE98B90F23D7
:10575000039302230493002305934FF4A05306936D
:105760004FF480530793052103A802F099F838B944
:1057700015B05DF804FBE321064803F014FEE6E7EC
:10578000F021044803F00FFEF2E700BF00380240AA
:105790000070004028D5000810B504460E4B18785C
:1057A0004FF47A73B3FBF0F30C4A1068B0FBF3F0DC
:1057B00000F0AAF868B90F2C01D901200AE00022F4
:1057C00021464FF0FF3000F04BF8054B1C600020E5
:1057D00000E0012010BD00BF120000203C000020AE
:1057E0001400002008B50B4B1A6842F400721A60CE
:1057F0001A6842F480621A601A6842F480721A6071
:10580000032000F01BF80020FFF7C6FFFBF72CF881
:10581000002008BD003C0240034A1168034B1B787E
:105820000B441360704700BF603E00201200002050
:10583000014B1868704700BF603E0020074AD368DC
:1058400023F4E0631B041B0C000200F4E060184327
:1058500040F0BF6040F40030D060704700ED00E0E1
:1058600030B4174BDB68C3F30223C3F10704042CE5
:1058700028BF04241D1D062D01D9033B00E0002391
:105880004FF0FF3505FA04F421EA0401994005FAC6
:1058900003F322EA03031943002809DB0901C9B213
:1058A00000F1604000F5614080F8001330BC7047A3
:1058B00000F00F000901C9B2024B1954F6E700BF0E
:1058C00000ED00E014ED00E0002807DB00F01F020F
:1058D000400901239340024A42F82030704700BF3C
:1058E00000E100E000280CDB00F01F02400901236A
:1058F00093402030034A42F82030BFF34F8FBFF36C
:105900006F8F704700E100E00138B0F1807F0AD26C
:10591000064B5860064AF02182F823100020986058
:1059200007221A6070470120704700BF10E000E0B6
:1059300000ED00E0002808DB00F01F024009012311
:1059400093406030014A42F82030704700E100E0A7
:10595000704708B5FFF7FCFF08BD50B110B504460D
:105960000223037103F06EF8002020612071607142
:1059700010BD0120704710B404682368012202FAA8
:1059800001F123EA01032360027100205DF8044B5A
:10599000704730B405682C6824F480242C600468B7
:1059A00063608368402B05D0036899600368DA6000
:1059B00030BC704703689A600368D960F8E700005C
:1059C00010B40368D9B210390C4AA2FB0142120983
:1059D0000B4CA25CC2655F2909D923F47F7323F0C5
:1059E000030304338365806D5DF8044B704723F433
:1059F0007F7323F003038365F5E700BFABAAAAAA70
:105A000020D60008836A826992B9012B0AD01BB1A3
:105A1000022B01D000207047C36A13F0807F28D189
:105A200000207047C36AB3F1C07F24D000207047C4
:105A3000B2F5005F09D0022B25D9032B25D1C36A0B
:105A400013F0807F23D100207047032B03D8DFE8B9
:105A500003F01404140A00207047C36A13F0807F17
:105A60000DD100207047C36AB3F1C07F09D0002078
:105A700070470120704701207047012070470120C6
:105A800070470120704701207047002070470120B7
:105A90007047000070B50446FFF7CAFE002C5BD0CB
:105AA0000546002384F83430022384F83530226818
:105AB000136823F00103136023681A6812F0010FC2
:105AC0000AD0FFF7B5FE401B0528F5D920236365F2
:105AD000032084F8350070BD1A68204810406168C2
:105AE000A2680A43E1680A4321690A4361690A43DB
:105AF000A1690A43E1690A43216A0A430243616AD0
:105B000004291ED01A602668756925F00705636AA6
