:020000040800F2
:10000000000002200D6500085D6500085D650008C0
:100010005D6500085D6500085D6500080000000082
:100020000000000000000000000000005D65000806
:100030005D650008000000005D650008C75C000801
:100040005D6500085D6500085D6500085D65000888
:100050005D6500085D650008F95D0008035E000845
:100060000D5E0008175E0008215E00085D6500084F
:100070005D6500085D6500085D6500085D65000858
:100080005D6500085D6500085D6500085D65000848
:100090005D6500085D6500085D6500082B5E000871
:1000A00091710008BD700008A5710008DD7000089E
:1000B000F17000080571000819710008656A0008F0
:1000C000756A0008856A0008956A00085D65000881
:1000D0005D650008156C00082D6C0008456C000873
:1000E000415E0008C16100085D650008B971000843
:1000F00069710008CD7100087D7100085D65000818
:100100005D6500085D6500082D7100085D650008EB
:100110005D6C0008756C000841710008557100089D
:100120005D6500085D650008092D00085D65000833
:100130005D6500085D6500085D6500085D65000897
:100140005D6500085D6500085D6500085D65000887
:100150005D6500085D6500085D6500088D6C000840
:10016000A56A0008B56A00085D6500085D650008BD
:100170005D6500085D6500085D6500080000000021
:080180005D6500085D650008E3
:1001C00090F800F06DE9024520F007016FF0000C97
:1001D00010F0070491F820F040F049804FF000043F
:1001E0006FF00700D1E9002391F840F000F108001A
:1001F00082FA4CF2A4FA8CF283FA4CF3A2FA8CF352
:100200004BBBD1E9022382FA4CF200F10800A4FAB8
:100210008CF283FA4CF3A2FA8CF3E3B9D1E904230C
:1002200082FA4CF200F10800A4FA8CF283FA4CF343
:10023000A2FA8CF37BB9D1E9062301F1200182FAFD
:100240004CF200F10800A4FA8CF283FA4CF3A2FA03
:100250008CF3002BC6D0002A04BF04301A4612BA11
:10026000B2FA82F2FDE8024500EBD2007047D1E914
:10027000002304F00305C4F100004FEAC50514F0A3
:10028000040F91F840F00CFA05F562EA05021CBF74
:1002900063EA050362464FF00004A9E753B94AB97F
:1002A000002908BF00281CBF4FF0FF314FF0FF307E
:1002B00000F00CB8ADF1080C6DE904CE07F096FE25
:1002C000DDF804E0DDE9022304B07047704700BFA9
:1002D0000348044B834202D0034B03B118477047D5
:1002E000840800208408002000000000054806491A
:1002F000091A891001EBD171491002D0034B03B1E7
:10030000184770478408002084080020000000007F
:1003100010B5064C237843B9FFF7DAFF044B13B14D
:100320000448AFF300800123237010BD840800202F
:10033000000000006883000808B5054B1BB10549A3
:100340000548AFF30080BDE80840FFF7CFBF00BF0E
:1003500000000000880800206883000830B58BB0DA
:100360000024059406940794089409940094284B5B
:100370001A6B42F010021A631A6B02F0100200921C
:10038000009A01941A6B42F080021A631A6B02F011
:1003900080020192019A02941A6B42F008021A63D9
:1003A0001A6B02F008020292029A03941A6B42F04E
:1003B00004021A631A6B02F004020392039A049473
:1003C0001A6B42F001021A631B6B03F001030493E2
:1003D000049B104D22464FF6FF71284603F02EF97C
:1003E0004FF6FF730593012306930794089405A91C
:1003F000284603F03FF84FF4E043059303230693A8
:10040000079405A9044803F035F80BB030BD00BFD0
:100410000038024000100240000C024000B587B0D6
:10042000002100910B4B1A6B42F010021A631B6BF8
:1004300003F010030093009B4FF6FF730193012319
:1004400002930391049301A9034803F013F807B042
:100450005DF804FB003802400010024000B583B094
:1004600000210191094B1A6B42F480021A631B6B45
:1004700003F480030193019B0A463A2002F00CFD2D
:100480003A2002F03DFD03B05DF804FB0038024065
:1004900010B50A4B1A6822F001021A6000249C630E
:1004A000DC635A6942F001025A6104F076FE044AA4
:1004B000136801331360034B1C6010BD000401403E
:1004C000A0080020A408002010B5084B1A6822F0EC
:1004D00001021A6000249C63DC635A6942F0010245
:1004E0005A6104F05AFE024B1C6010BD000401402A
:1004F000A408002000224260012202607047000030
:10050000F0B59DF814409DF818E002EB4202D600C9
:10051000374606F1020C012202FA01F189B2CE43FC
:10052000B6B2026872B1154AD35C155D2D0205EBB7
:10053000034512F80E301D4441F269639C451CDCF2
:10054000002006E0240204EB034404EB0E05F3E76D
:100550000130172811DC07F119031B1A084C34F875
:100560001320324024F81320012484402C42EFD081
:100570000A43034C24F81320EAE7F0BD94830008F3
:10058000A80800202DE9F04383B08146884617462D
:100590001E46002500E001350F2D0CDC0024EF2C59
:1005A000F9DC019600974346224629464846FFF764
:1005B000A7FF0134F3E703B0BDE8F0832DE9F04174
:1005C000069D05EB4505EC00023401268E40B6B2CF
:1005D000F543ADB2D0F80080B8F1000F25D04FF050
:1005E000000819E00137072F13DCE11DC91BDFF8F4
:1005F00088C03CF8110028402CF811004EFA07FC86
:100600001CF0010FEED03043DFF86CC02CF8110065
:10061000E8E7083408F10108984528DA12F80810CC
:10062000144810F801E00027DDE7C6461BE001375B
:10063000072F15DCE11DC91BDFF83CC03CF8110099
:1006400028402CF8110012F80EC04CFA07FC1CF0E0
:10065000010FECD03043DFF820C02CF81100E6E7A2
:1006600008340EF1010E9E4501DA4746E0E7BDE889
:10067000F08100BF94830008A8080020024B1B688B
:10068000002BFBD1704700BFA408002008B5124B17
:100690001B6803B108BD4368013343600F4B4FF43F
:1006A00020321A6041F281630D4A0E490E4802F071
:1006B00073FD60B90D4B85229A633222DA631A68A2
:1006C00042F001021A60044B01221A60E2E7F921AC
:1006D000074805F044FFEDE7A408002000080240A9
:1006E00014100240A8080020AC350020000401408E
:1006F0009484000810B50446FFF7C0FF2046FFF7BA
:10070000C5FF10BD82B0002100910B4B5A6C42F422
:1007100080425A645A6C02F480420092009A01911D
:100720001A6C42F080521A641B6C03F080530193E0
:10073000019B02B0704700BF0038024030B583B063
:10074000044605F033FF206806F044F800220E212D
:1007500002F0A2FB206806F03DF802F0D1FB206811
:1007600006F0A2F80546206806F034F8854205D167
:100770002268214B9A420ED003B030BD206806F0AB
:1007800093F800220E2102F087FB206806F08CF817
:1007900002F0B6FBECE700230193184A516C41F0DC
:1007A00002015164526C02F002020192019A144853
:1007B000144A02604FF06062426040228260C3606F
:1007C0004FF4806202614FF4006242614FF40052C4
:1007D0008261C3614FF480320262436202F076FCB0
:1007E00018B9074B63629C63C6E740F235110648AF
:1007F00005F0B5FEF5E700BF0004014000380240F7
:10080000AC350020406402409484000800B587B0F5
:10081000002301930293039304930593026803F169
:10082000804303F582339A4202D007B05DF804FB9F
:10083000002300930B4B1A6B42F004021A631B6BEC
:1008400003F004030093009B4FF4C0730193022351
:100850000293012304930323059301A9024802F0A4
:1008600009FEE2E7003802400008024010B596B0E9
:1008700000241294139414941594109411940994D0
:100880000A940B940C940D940E940F9420222146FC
:1008900001A807F085F94648464B03604460846030
:1008A000D123C36004614461846104F0BBFD00286E
:1008B0004DD14FF48053129312A93D4804F098FE95
:1008C00000284AD13A4804F0C7FD00284BD1402304
:1008D00010930023119310A9354804F008FF002855
:1008E00047D16023099323230A9300220B920C9291
:1008F0000D920E920F9209A92D4804F0FFFD0028D9
:100900003DD185230A93042209A9294804F0F6FD64
:1009100000283AD132230A93082209A9244804F076
:10092000EDFD002837D10023019302930393049334
:1009300005934FF400520692089301A91C4804F055
:10094000F9FE70BB1A48FFF761FF16B010BD40F208
:100950006711194805F003FEABE74FF4B67116486E
:1009600005F0FDFDAEE74FF4B871134805F0F7FD53
:10097000ADE74FF4BB71104805F0F1FDB1E740F26F
:1009800081110D4805F0EBFDBBE74FF4C3710A4838
:1009900005F0E5FDBEE740F28B11074805F0DFFDED
:1009A000C1E74FF4CB71044805F0D9FDCAE700BF99
:1009B0000C360020000401409484000810B5044661
:1009C0000122006804F082FE2368064A934203D0A5
:1009D00002F58062934203D15A6C42F400425A6499
:1009E000002010BD0000014038B50446264D274ABE
:1009F0000021284602F00CFD254A0421284602F079
:100A000007FD41F28263234A2349284602F0C4FBD2
:100A100030BB1D4B1A68136823F0080313601F488E
:100A20000268D36843F40073D3600021FFF7C6FF68
:100A3000D8B904211948FFF7C1FFD8B908211748D0
:100A4000FFF7BCFFD8B9154B1A68136843F00103D0
:100A50001360636801336360114B01221A6038BD73
:100A6000D321104805F07BFDD3E7DC210D4805F0CC
:100A700076FDDEE7E1210B4805F071FDDEE7E621BA
:100A8000084805F06CFDDEE7AC350020C90400081D
:100A90009104000814100240A80800200C36002021
:100AA000A40800209484000810B50446FFF756FC03
:100AB000FFF7D4FCFFF7DAFEFFF7B0FC00231A467D
:100AC00019462046FFF75EFD2046FFF78DFF10BD5B
:100AD00030B583B0084C6568084C65600F2801D9B3
:100AE00003B030BD1A460B46014600200090044872
:100AF000FFF764FDF4E700BF54360020AC38002057
:100B0000A4380020012800D070474FF6FF739942A7
:100B1000FAD100B583B0002100910B460A46074880
:100B200006F082FB064802F061F80648FFF7E2FC97
:100B3000054806F071FB03B05DF804FB4C3600205D
:100B400054360020A4380020AC38002010B51048DE
:100B5000FFF7AAFF642006F027FD0E4AB2F99410B1
:100B60000D4BA3F89010B2F90C10A3F89210B2F943
:100B70000E20A3F89420132001F0B0F8074C084A87
:100B80000849204602F048F8074BC4F8483210BD27
:100B9000A438002098890008B4380020543600207A
:100BA0000000002004000020D10A000810B506F063
:100BB000F7FC0446074802F043F8074B1B68E31AAA
:100BC0001E2B00D810BD044B1C600448FFF792FD9B
:100BD000F8E700BF54360020A0380020A4380020D9
:100BE00008B54FF6FF710120FFF78CFF08BD00002C
:100BF000034603220BE04FF6FF7119800E4959603E
:100C0000012119729972002159720C33013A002A9C
:100C1000F1DA4FF6FF720286084BB3F99410A0F890
:100C20009010B3F90C10A0F89210B3F90E30A0F8A0
:100C30009430A0F89620704700093D00988900087C
:100C4000012800D0704708B54FF6FF73994200D0D5
:100C500008BD0248FFF7CCFFFAE700BFB438002018
:100C60004B2940D870B50024032C08D804EB44026B
:100C70009300C35E994211D00134E4B2F4E700243A
:100C8000032C0BD804EB440293001A46C35EB3F165
:100C9000FF3F02D00134E4B2F2E78152032C18D8AE
:100CA0000D4606464B2904D0B0F99630B3F1FF3F0C
:100CB00010D0002386F88530630019198A00324469
:100CC0001146937A527A496806F1340005F09EFA8B
:100CD000358670BD0121284606F0D8FB0121284643
:100CE00006F03CFCE5E7704782B070B504AC84E8E0
:100CF0000C004B2947D80023032B08D803EB4304EF
:100D0000A200825E914211D00133DBB2F4E70023EE
:100D1000032B0BD803EB4304A2001446825EB2F10E
:100D2000FF3F02D00133DBB2F2E70153032B2AD895
:100D30001C465D001D44AA000244059D55609DF8B7
:100D4000195055729DF818501572012D1FD003EBE4
:100D500043039A000244002393720E4605464B2932
:100D600004D0B0F99630B3F1FF3F17D063001919E2
:100D70008A002A441146937A527A496805F1340070
:100D800005F044FA2E86BDE8704002B0704703EBD0
:100D900043039A00024401239372DEE701213046A7
:100DA00006F074FB0121304606F0D8FBDEE70000B8
:100DB0004B2929D80023032B22D870B403E0013338
:100DC000DBB2032B17D803EB4304A200825E8A42F6
:100DD000F5D15A00D418A50044194FF6FF764653B2
:100DE0000A4D656001252572A5721A4494000444D9
:100DF00000226272E3E74FF6FF73038670BC704710
:100E00004FF6FF7303867047704700BF00093D002F
:100E100070B586B08DF80F2000228DF817204B2971
:100E20004DD81E460D4604460B46B0F9302091427F
:100E30001BD00022032A08D802EB42008100615E29
:100E40008B4202D00132D2B2F4E7032A01D900204A
:100E500024E053009818810021448B7A4A7A49682B
:100E600004F1340005F0D2F925864B2D04D0B4F9F5
:100E70009630B3F1FF3F13D04FF47A730093012300
:100E80000DF117020DF10F0104F1340005F02AFBFA
:100E90004B2D01D0012E08D09DF8170006B070BD73
:100EA0000021284606F05AFBE6E7B4F99630B3F184
:100EB000FF3FF1D10121284606F050FBECE700206E
:100EC000ECE7002B55D02DE9F04383B01F46BAB1B3
:100ED0004B2915D89046894605460A46B0F9303068
:100EE00099421ED00024032C08D804EB4406B0001D
:100EF0002B5E9A4202D00134E4B2F4E7032C02D90B
:100F000003B0BDE8F083630019198A002A44114632
:100F1000937A527A496805F1340005F077F9A5F81B
:100F20003090B9F14B0F04D0B5F99630B3F1FF3FD3
:100F30001AD04FF47A730093BBB24246414605F192
:100F4000340005F0CFFAB9F14B0FD9D09DF8283015
:100F5000012BD5D1B5F99630B3F1FF3FD0D10121A6
:100F6000484606F0FBFACBE70021484606F0F6FAC1
:100F7000DFE7704708B54FF6FF710120FFF760FE0D
:100F800008BD0000012800D070474FF6FF7399425A
:100F9000FAD100B583B0002100910B460A46034800
:100FA00006F042F903B05DF804FB00BF4C390020A5
:100FB0002DE9F04385B004460F4616466A4B1B7870
:100FC000332B21D0342B4ED00021684B187806F0FB
:100FD000C5FAFF2C72D800238DF808308DF809402F
:100FE00004238DF80A30052E00F2A9800022334632
:100FF000B24280F29380D31CB95C04A8034403F886
:10100000081C0132D2B2F2E70025B54280F093808D
:10101000DFF85891002199F8000006F09FFADFF8F8
:1010200050810123F0224B214046FFF7F1FE0123BE
:10103000220A4B214046FFF7EBFE0123E2B24B218F
:101040004046FFF7E5FE0134A4B201237A5D4B214F
:101050004046FFF7DDFE012199F8000006F07EFA18
:101060000135ADB2D1E70021404B187806F076FA91
:1010700023128DF808308DF80940330A43F08003BD
:101080008DF80A308DF80B6001230093042302AA27
:101090004B213748FFF715FF0024B44208D2012343
:1010A0003A5D4B213248FFF7B3FE0134A4B2F4E7B6
:1010B00001212E4B187806F051FA3CE014F4004F51
:1010C0000DD100238DF808308DF80940E31023F08E
:1010D0001F035BB243F00C038DF80A3083E7B4F5CD
:1010E000404F0DD223128DF808308DF80940A3111E
:1010F00023F01F035BB243F014038DF80A3072E74C
:1011000023128DF808308DF80940A31123F01F0336
:101110005BB243F01C038DF80A3064E701220092B1
:10112000033302AA4B211248FFF7CBFE01210F4BDC
:10113000187806F013FA304605B0BDE8F0830123B5
:101140000093032302AA4B210948FFF7BAFE0024AB
:10115000B442EBD201233A5D4B210548FFF758FE1C
:101160000134A4B2F4E700BF553900200A00002082
:10117000B43800202DE9F04385B004460F461646EA
:101180005D4B1B78332B2DD0342B5AD000215B4B79
:10119000187806F0E3F9FF2C7ED800238DF80C3088
:1011A0008DF80D408DF80E30554D01240094032329
:1011B00003AA4B212846FFF784FE32460021384619
:1011C00006F0EEFC009433463A464B212846FFF7E2
:1011D00078FE2146494B187806F0C0F9304605B034
:1011E000BDE8F0830025B542F8D2DFF81091002168
:1011F00099F8000006F0B2F9DFF8048101230F220C
:101200004B214046FFF704FE0123220A4B214046B2
:10121000FFF7FEFD0123E2B24B214046FFF7F8FD48
:101220000134A4B2012300224B214046FFF7F0FD18
:101230007855012199F8000006F090F90135ADB21A
:10124000D1E72E4D0021287806F088F923128DF879
:101250000C308DF80D40C6F306238DF80E308DF856
:101260000F60DFF89C8001240094042303AA4B2123
:101270004046FFF726FE32460021384606F090FC35
:10128000009433463A464B214046FFF71AFE21466A
:10129000287806F063F9A1E714F4004F0DD100237C
:1012A0008DF80C308DF80D40E31023F01F035BB276
:1012B00043F008038DF80E3076E7B4F5404F0DD2B9
:1012C00023128DF80C308DF80D40A31123F01F036D
:1012D0005BB243F010038DF80E3065E723128DF8F2
:1012E0000C308DF80D40A31123F01F035BB243F0C7
:1012F00018038DF80E3057E7553900200A000020FA
:10130000B438002010B582B080238DF80730012258
:101310000DF107010020FFF74BFE002401220DF123
:1013200007010020FFF726FF9DF8073043B1012099
:1013300006F03AF90134A4B2132CEFD9002000E0F2
:10134000012002B010BD000010B582B0244B332242
:101350001A70FFF7D7FF034610B9184602B010BD48
:1013600010238DF8073001220DF107010020FFF74F
:101370001FFE01220DF107010020FFF7FBFE9DF883
:101380000730102B01D00023E7E712238DF8073038
:1013900001220DF107010020FFF70AFE01220DF1E5
:1013A00007010020FFF7E6FE9DF80730122B01D061
:1013B0000023D2E700248DF8074001220DF1070138
:1013C0002046FFF7F5FD01220DF107012046FFF74A
:1013D000D1FE9DF807300BB90123BEE70023BCE71F
:1013E0005539002010B582B0294B34221A70FFF70E
:1013F00089FF044610B9204602B010BD08238DF8BD
:10140000073001220DF107010020FFF7D1FD012275
:101410000DF107010020FFF7ADFE9DF80730082B06
:1014200001D00024E7E710238DF8073001220DF1E9
:1014300007010020FFF7BCFD01220DF1070100208C
:10144000FFF798FE9DF80730102B01D00024D2E75B
:1014500000248DF8074001220DF107012046FFF717
:10146000A7FD01220DF107012046FFF783FE9DF83D
:1014700007400CB10024BEE701220DF107011F2037
:10148000FFF778FE9DF80730032BB4D10124B2E7B3
:101490005539002010B582B0294B37221A70FFF75A
:1014A00031FF044610B9204602B010BD08238DF864
:1014B000073001220DF107010020FFF779FD01221D
:1014C0000DF107010020FFF755FE9DF80730082BAE
:1014D00001D00024E7E710238DF8073001220DF139
:1014E00007010020FFF764FD01220DF10701002034
:1014F000FFF740FE9DF80730102B01D00024D2E703
:1015000000248DF8074001220DF107012046FFF766
:101510004FFD01220DF107012046FFF72BFE9DF83C
:1015200007400CB10024BEE701220DF1070139206C
:10153000FFF720FE9DF80730042BB4D10124B2E759
:1015400055390020F0B589B0524B1B781BB10124EE
:10155000204609B0F0BD4FF40C7006F025F84E4C53
:101560004B212046FFF77CFB4C4D0121287805F0EC
:101570008DFF0121287805F0F1FF494B06930123E7
:101580008DF81E308DF81C3000238DF81D3002AB15
:1015900008AA12E9070083E80700049A00920CCB1E
:1015A0004B212046FFF7A0FBFFF71CFF00284BD084
:1015B0003C4B40221A7000251CE03A4E30782C0239
:1015C00004EB002080B21E3080B202278DF8087034
:1015D000012202A9FFF7ECFC307804EB002080B276
:1015E0001F308DF80870012202A980B2FFF7E0FCDD
:1015F0000135EDB2072DE0D9072D07D94B2126483B
:10160000FFF7D6FB0124234B1C70A1E7254E307851
:101610002C0204EB002080B21E3080B200278DF82F
:101620000870012202A9FFF7C3FC307804EB002008
:1016300080B21F308DF80870012202A980B2FFF736
:10164000B7FC0135EDB2D7E7FFF724FF18B1154B12
:1016500010221A70D2E7FFF777FE044690B1114BC3
:1016600004221A7055248DF80840012202A91B207B
:10167000FFF79EFC8DF80840012202A91A20FFF70F
:1016800097FCBBE7084B00221A704B210248FFF77A
:101690008FFB5DE756390020B43800200A00002097
:1016A00080DE8002543900205539002010B582B008
:1016B000104B1B78040204EB032080B201308DF83C
:1016C000071001220DF1070180B2FFF771FC094BF1
:1016D000187804EB002080B2013001220DF10701DF
:1016E00080B2FFF747FD9DF80730002BEFD102B025
:1016F00010BD00BF5439002008B54FF6FF7101201E
:10170000FFF740FC08BD0000012800D070474FF6ED
:10171000FF739942FAD100B583B0002100910B46C6
:101720000A46034805F080FD03B05DF804FB00BFE6
:101730005839002008B54FF6FF710120FFF7E4FF8C
:1017400008BD0000012800D070474FF6FF73994292
:10175000FAD100B583B0002100910B460A46034838
:1017600005F062FD03B05DF804FB00BF60390020A6
:101770004B68436000230381704730B400252B463B
:1017800008E02E2C1FD1032D1FD0681C15442B718F
:10179000C5B200230C7884B10131A4F13000C0B28D
:1017A0000928EED803EB8303580003199BB2303BA2
:1017B0009BB2FF2BEED9002003E0032D07D1D3719C
:1017C000012030BC70470020FBE70020F9E7002033
:1017D000F7E708B54FF6FF710120FFF7B3FF08BD2B
:1017E000F0B583B004460D4605F0DAFE208104F121
:1017F0000C07022204F10801384600F04CFB0123DB
:10180000ADF8063002220DF10601384600F043FB28
:101810004FF48073ADF8063002220DF10601384610
:1018200000F039FB0023ADF8063002220DF106016D
:10183000384600F030FB02220DF10601384600F078
:101840002AFB02220DF10601384600F024FB2C464B
:1018500003E0661B002E0ADC651C2378ABB12C4626
:101860002378002BF5D02E2BF3D00134F8E78DF838
:10187000056001220DF10501384600F00CFB3246EF
:101880002946384600F007FBE6E700238DF80530CF
:1018900001220DF10501384600F0FDFA4FF4807485
:1018A000ADF8064002220DF10601384600F0F3FAC9
:1018B000ADF8064002220DF10601384600F0EBFAC1
:1018C000012003B0F0BD2DE9F04188B005460F4678
:1018D000904605F065FE064605F10C04204600F032
:1018E0001FFB002809DC05F05BFE801BB84200F2FC
:1018F000D880322005F058FEEEE76A686B6A9A429B
:1019000002D12B8D352B02D04FF6FE70CBE0204656
:1019100000F03EFA0B2840F3C9800C220DEB0201C7
:10192000204600F0E0FABDF80E20130A43EA022335
:101930001BB29AB2ADF80A202889BDF80C10884273
:101940000ED1002B0CDA40F20F231A420ED1BDF853
:1019500012301D0A45EA0325ADB26DB1002629E01B
:10196000204600F024FA4FF6FC709CE0204600F080
:101970001EFA4FF6FB7096E0204600F018FA4FF67C
:10198000FA7090E00021204600F0ADFA9DF8083092
:101990004BB1012202A9204600F0A5FA9DF80820CB
:1019A000002AF3D0EEE704220021204600F09BFA43
:1019B0000136B6B2BDF8102013029BB243EA1223DF
:1019C0009E42E6DB00264EE001220021204600F088
:1019D0008AFA00238DF805309DF805308BB101227D
:1019E0000DF10501204600F07EFA9DF8052012F069
:1019F000C00FE9D1002AEFD00021204600F073FA91
:101A0000EAE702220DF10601204600F06CFA0222FC
:101A100002A9204600F067FA04220021204600F0C7
:101A200062FA02220DF10A01204600F05CFABDF8CC
:101A3000062013029BB243EA1223012B07D1BDF803
:101A4000082013029BB243EA1223012B13D0BDF8E6
:101A50000A2013029BB243EA12220021204600F022
:101A600042FA0136B6B2AE42B9D3204600F09FF931
:101A70004FF6F67017E0BDF80A2013029BB243EA56
:101A80001223042B05D0204600F091F94FF6F77091
:101A900009E0042208EB0201204600F024FA0120AC
:101AA00001E04FF6FF7008B0BDE8F0814FF6FD7021
:101AB000F9E700002DE9F04782B005460F46904651
:101AC0009946FFF75AFE002842D104466A68234B24
:101AD0005B689A423ED005F10C0605F061FD00F00E
:101AE0000F0101F58061304600F070F9012803D044
:101AF000204602B0BDE8F087194B00936B68019354
:101B000035226946304600F0B7F9824620B93046A2
:101B100000F04EF95446EBE739462846FFF760FEE1
:101B200082460028F3D0304600F0AFF98246002804
:101B3000EDD04FF0FF3A022CE9DCBAF1FF3FE6D1DD
:101B4000424649462846FFF7BEFE82460134F2E788
:101B50000124CDE76FF00104CAE700BF603900201F
:101B6000948B0008012800D070474FF6FF7399420C
:101B7000FAD100B583B0002100910B460A46044813
:101B800005F052FB034805F047FB03B05DF804FB8A
:101B900068390020703900202DE9F04389B0804673
:101BA0000F4615461E46FFF7CDFC10B909B0BDE83B
:101BB000F0831B4B069301248DF81E408DF81C40CA
:101BC00000238DF81D3002AB08AA12E9070083E854
:101BD0000700DFF85490049A00920CCB4B21484642
:101BE000FFF782F8062241460920FFF7E1F90422B7
:101BF000B9180F20FFF7DCF90422B1182046FFF7CF
:101C0000D7F90422109911440520FFF7D1F94B218F
:101C10004846FFF7CDF86A68024B5A60C6E700BF36
:101C200080DE800270390020B4380020F0B58DB01D
:101C300004460F4616461D4600230093FF231A460E
:101C4000194602A805F0F0FA0B4B04937A68059246
:101C500006937268079208936A6809920A93039B35
:101C60000B930AAB009308AB06AA04A92046FFF722
:101C700093FF0DB0F0BD00BF948B000800B589B094
:101C80004968019101238DF80730084B02930391B5
:101C90000493526805920693019B079306AB04AA2E
:101CA00002A9FFF7C3FF09B05DF804FB948B00089D
:101CB00000B587B04A68019201238DF80730064BC2
:101CC000029303920493019B059304AA02A9FFF7D0
:101CD000D5FF07B05DF804FB948B0008014B18702A
:101CE000704700BF0A00002008B54FF6FF710120C1
:101CF000FFF738FF08BD0000012800D070474FF6FD
:101D0000FF739942FAD100B583B0002100910B46D0
:101D10000A46034805F088FA03B05DF804FB00BFEB
:101D20007839002008B54FF6FF710120FFF7E4FF76
:101D300008BD0000012800D070474FF6FF7399429C
:101D4000FAD100B583B0002100910B460A46034842
:101D500005F06AFA03B05DF804FB00BF803900208B
:101D600008B54FF6FF710120FFF7E4FF08BD08B585
:101D70000368DB6B984708BD024A02608A694260CB
:101D8000704700BF948B0008808B7047008A7047B3
:101D9000408C704700B583B08DF8071003685B680E
:101DA00001220DF10701984703B05DF804FB70476D
:101DB00090F82030072B00D9704710B5044618461C
:101DC00000F094FC082384F8203010BD38B5044698
:101DD0000D4690F8200007280CD92946022000F073
:101DE0004FFA84F82000072807D82582002363844F
:101DF000012038BD00F07AFCEFE70020F9E7000091
:101E000070B592B004460D46164602A805F004FAD5
:101E1000002306934FF47A730793144B05930AA893
:101E200005F0FAF908238DF83430684605F0F4F926
:101E30000F4B0E930F4B5B680F930EA902A8FFF791
:101E400097FC41F288336A46294602A8FFF732FE22
:101E5000012809D12368DB6A054A1092019A119280
:101E6000324610A92046984712B070BDB0840008D1
:101E7000948B00087039002008B50023C383043117
:101E800090F8200000F0AEFD08BD08B590F82000E5
:101E900000F002FE08BD10B5044693B20A46C18B9D
:101EA00090F8200000F06AFDE38B0344E38310BD4B
:101EB000438C93B110B582B0044601220DF10701A5
:101EC00090F8200000F03CFC002809DD638C013B09
:101ED00063849DF8070002B010BD4FF0FF307047DB
:101EE0004FF0FF30F7E7438CA3B110B5044693429F
:101EF0000AD81AB290F8200000F022FC00280CDD6D
:101F0000638C1B1A638410BD12B290F8200000F09D
:101F100017FCF3E74FF0FF3070474FF0FF30F2E768
:101F200010B582B00446628C2AB12368DB6B0021B5
:101F300020469847F7E794F8200000F0A1FC10B97C
:101F4000002002B010BD0822694694F8200000F07D
:101F5000F7FB0028F5DD694604F1140005F090F95F
:101F60009DF804209DF8053003EB0223A3839DF820
:101F700006309DF8070000EB032080B26084E0E7A4
:101F800008B590F82030072B05D8428C32B118469E
:101F900000F0B0FC08BD4FF0FF30FBE74FF0FF3022
:101FA000F8E7000070B582B004460E46154690F87A
:101FB0002000072812D90C4B0093736801932A461E
:101FC0006946822000F058FA84F82000072808D8D3
:101FD000258200236384012002B070BD00F086FBDF
:101FE000E9E70020F8E700BF948B0008012800D043
:101FF00070474FF6FF739942FAD100B583B00021C4
:1020000000910B460A46034805F00EF903B05DF84F
:1020100004FB00BF9839002008B54FF6FF7101207E
:10202000FFF7E4FF08BD00002DE9F0410546174623
:102030001E46C1F30A041B4B1B78332B10D01830FB
:10204000C00280B2204480B2372B03D0A319B3F56D
:10205000006F09DC32463946FFF78CF8BDE8F081A5
:102060000C30C00280B2EDE7C4F500611FFA81F8C0
:1020700042463946FFF77EF807EB0801094B1B780B
:10208000332B0AD005F11800C00280B2A4F5006419
:102090003444A2B2FFF76EF8E0E705F10C00C0028D
:1020A00080B2F3E7553900202DE9F04383B00446B0
:1020B0000D4617461E46324B1B78000200EB0320EC
:1020C00080B2243080B2022201A9FFF753F89DF8B4
:1020D00004209DF8053043EA02231D44ADB2C5F348
:1020E0000A08284B1B78332B26D004F11000C002BD
:1020F00080B2404480B2372B04D008EB0603B3F51E
:10210000006F1EDC32463946FEF752FF3544ADB251
:102110002B128DF804308DF80550194B1B782002D6
:1021200000EB032080B2243080B2022201A9FEF726
:102130003FFF03B0BDE8F08304F10800C00280B2A5
:10214000D7E7C8F500691FFA89F94A463946FEF70C
:102150002FFF0C4B1B78332B0CD004F11000C00266
:1021600080B2A8F50062324492B207EB0901FEF793
:102170001FFFCBE704F10800C00280B2F1E700BF07
:102180005439002055390020012800D070474FF6FF
:10219000FF739942FAD100B583B0002100910B463C
:1021A0000A46034805F040F803B05DF804FB00BFA1
:1021B000A039002030B583B00546154B1B780002CE
:1021C00000EB032080B2263080B2022201A9FEF784
:1021D000D1FF9DF804309DF8054044EA032400E057
:1021E00004460B4B1B78280200EB032080B22630FC
:1021F00080B2022201A9FEF7BDFF9DF804309DF8D0
:10220000050040EA03208442EAD103B030BD00BF9C
:102210005439002030B583B00546174B1B780002B7
:1022200000EB032080B2203080B2022201A9FEF729
:10223000A1FF9DF804309DF8054044EA032400E026
:1022400004460D4B1B78280200EB032080B220309F
:1022500080B2022201A9FEF78DFF9DF804309DF89F
:10226000050040EA03208442EAD1044B03EBC50594
:10227000A88003B030BD00BF54390020A839002029
:102280002DE9F0438BB0724B1B78002B00F0DE8001
:10229000332B31D008270D4606466E4B0893012399
:1022A0008DF826308DF8243000248DF8254002ABBF
:1022B0000AAA12E9070083E80700049A00920CCBEF
:1022C0004B216548FEF710FDBC4217D2634B1B78CB
:1022D000200200EB032080B20330012202A980B269
:1022E000FEF748FF9DF808300AAA224402F8143C81
:1022F00003B30134E4B2E7E70427CCE70024BC428F
:102300000ED20AAB234413F8143C1D2B0ED01B2B0A
:102310000CD0182B0AD01A2B08D00134E4B2EEE707
:102320004B214D48FEF744FD08247AE01021204659
:10233000FFF7BCF927464A4B002223F81420494BEB
:102340005968494B1A68494BA3FB0232930CFA2295
:1023500002FB03F2434B5B685B1A9A42FADCDFF83C
:10236000FC9099F800004FEA042808EB00208DF853
:102370000860012202A900F47F40FEF719FE99F8D7
:10238000000008EB002080B2023080B2FF238DF8FD
:102390000830012202A9FEF70BFE002D45D1344A78
:1023A000138801339BB21380B3F5404F03D2134619
:1023B0004FF440421A802E4B1B881A128DF80820C9
:1023C0008DF80930254B1B78200200EB032080B2EA
:1023D000043080B2022202A9FEF7EAFD0121204664
:1023E000FFF764F9234D002625F837601B4B1B7857
:1023F000200200EB032080B2283080B2022202A922
:10240000FEF7B8FE9DF808209DF8093043EA022344
:1024100005EBC7077B80BE71BE804B210E48FEF7DF
:10242000C7FC20460BB0BDE8F0832B128DF80830B6
:102430008DF8095099F8003008EB032080B2043081
:1024400080B2022202A9FEF7B3FDC7E70824E8E73D
:102450005539002080DE8002B43800205439002035
:1024600088390020001000E03800002083DE1B4384
:102470000C000020A83900202DE9F0478CB0904BCB
:102480001B78002B00F01981332B32D0082517461A
:102490000E4680468B4B0A9301238DF82E308DF823
:1024A0002C3000248DF82D4002AB0CAA12E9070055
:1024B00083E80700049A00920CCB4B218248FEF778
:1024C00013FCAC4217D2814B1B78200200EB032097
:1024D00080B20330012202A980B2FEF74BFE9DF8C4
:1024E00008300CAA224402F8143C03B30134E4B2CD
:1024F000E7E70425CBE70024AC420ED20CAB234423
:1025000013F8143C1D2B0ED01B2B0CD0182B0AD00B
:102510001A2B08D00134E4B2EEE74B216A48FEF7EB
:1025200047FC0824B4E010212046FFF7BFF82546F9
:10253000674B002223F81420664B5968664B1A68D3
:10254000664BA3FB0232930CFA2202FB03F2614BAF
:102550005B685B1A9A42FADCDFF870A19AF8000017
:102560004FEA042909EB00208DF80880012202A916
:1025700000F47F40FEF71CFD9AF8000009EB0020F4
:1025800080B2023080B2FF238DF80830012202A908
:10259000FEF70EFD002F7FD1514A138801339BB205
:1025A0001380B3F5404F03D213464FF440421A80D4
:1025B0004B4B1B881A128DF808208DF80930434BBD
:1025C0001B78200200EB032080B2043080B202228C
:1025D00002A9FEF7EDFC434B93E8030005907379E5
:1025E00003F07F038DF81730B3798DF81830F37945
:1025F0008DF81930DFF8D48098F8000009EB00203E
:1026000080B20C3080B20422B118FEF7D1FC3B122C
:102610008DF808308DF8097098F80000260206EB56
:10262000002080B2103080B2022202A9FEF7C0FC66
:1026300098F8000009EB002080B2063080B2062234
:1026400005A9FEF7B5FC01212046FFF72FF8264F1C
:102650004FF0000927F8359098F8000006EB0020AD
:1026600080B2283080B2022202A9FEF783FD9DF8D5
:1026700008209DF8093043EA022307EBC5056B806B
:1026800085F80690A5F804904B210F48FEF790FBC3
:1026900020460CB0BDE8F0873B128DF808308DF86D
:1026A00009709AF8003009EB032080B2043080B240
:1026B000022202A9FEF77CFC8DE70824E8E700BFB0
:1026C0005539002080DE8002B438002054390020C3
:1026D00088390020001000E03800002083DE1B4312
:1026E0000C00002080830008A839002030B589B094
:1026F0000546114B069301238DF81E308DF81C30D2
:1027000000238DF81D3002AB08AA12E9070083E808
:1027100007000A4C049A00920CCB4B212046FEF78E
:10272000E3FA10212846FEF7C1FF4B212046FEF7B1
:102730003FFB09B030BD00BF80DE8002B43800200E
:102740002DE9F04188B0044688461746484B33F8D7
:102750003050484B069301238DF81E308DF81C3005
:1027600000238DF81D3002AB08AA12E9070083E8A8
:102770000700049A00920CCB4B213F48FEF7B4FAB5
:102780003E46AF4247DC002D50D0AF4200DB2E4624
:10279000374B03EBC4035D88B8F1000F05D0B3B22B
:1027A000424629462046FFF73FFCB3B2591989B289
:1027B0002F4800EBC405698030F83420D21A92B259
:1027C00020F83420A87903449BB2F92B01D8002AC1
:1027D00041D1274B03EBC40300229A710B128DF8F1
:1027E00008308DF80910254B1B78200200EB0320E0
:1027F00080B2283080B2022202A9FEF7D9FB402124
:102800002046FEF753FF4B211B48FEF7D1FA304616
:1028100008B0BDE8F0812046FFF7CCFC144B03EB79
:10282000C4029579451B23F83450ACE7134B1B7851
:10283000200200EB032080B20330012202A980B203
:10284000FEF798FC9DF80830142B09D053B11C2BCF
:102850000AD12E46D7E7064A02EBC404A371D2E799
:102860002E46D0E72E46CEE74FF0FF36CBE700BF2F
:10287000A839002080DE8002B438002054390020BE
:10288000194B33F830300BB11846704770B588B02B
:102890000546164B069301238DF81E308DF81C302B
:1028A00000238DF81D3002AB08AA12E9070083E867
:1028B00007000F4E049A00920CCB4B213046FEF7D6
:1028C00013FA2846FFF776FC04464B213046FEF704
:1028D0006FFA054A02EBC5039B79E31A9BB222F813
:1028E0003530184608B070BDA839002080DE80025F
:1028F000B438002010B58AB004461C4B089301235D
:102900008DF826308DF8243000238DF8253003AB68
:102910000AAA12E9070083E80700059A00920CCB87
:102920004B211348FEF7E0F9124B03EBC403588820
:10293000C0F30A03104A1278332A12D004F11800A7
:10294000C00280B2184401220DF11B0180B2FEF7D3
:1029500011FC4B210648FEF72BFA9DF81B000AB02C
:1029600010BD0C34E402A0B2ECE700BF80DE8002B0
:10297000B4380020A839002055390020F0B589B0BE
:1029800005460E4617461C46144B069301238DF848
:102990001E308DF81C3000238DF81D3002AB08AAC4
:1029A00012E9070083E80700049A00920CCB4B2140
:1029B0000B48FEF799F92846FFF72CFCA04200D2FD
:1029C000044623463A4631462846FFF76DFB4B2125
:1029D0000348FEF7EDF9204609B0F0BD80DE800225
:1029E000B43800200B7833B94B7823B98B7813B9FE
:1029F000CB78002B48D00AB9002070472DE9F0476A
:102A000088B0914688460446204B069301258DF8F0
:102A10001E508DF81C5000238DF81D3002AE08ABFF
:102A200013E9070086E80700194F049B009396E816
:102A30000C004B213846FEF757F9DFF858A09AF8FA
:102A40000000240204EB002080B20C3080B204228B
:102A50004146FEF7ADFA4FEA29238DF808308DF88C
:102A600009909AF8000004EB0024A4B21034A0B23C
:102A700002223146FEF79CFA4B213846FEF798F9C0
:102A8000284608B0BDE8F0870020704780DE80024D
:102A9000B43800205439002030B58DB00546414B84
:102AA000079301238DF822308DF8203000238DF814
:102AB000213003AB06AA07CA83E80700059A0092F3
:102AC0000CCB4B213848FEF70FF920212846FEF7A2
:102AD000EDFD364B18782C0204EB002080B202305A
:102AE00080B2012203A9FEF745FB9DF80C3013F0DC
:102AF000100F42D12D4B187804EB002080B2023029
:102B000080B2012203A9FEF735FB9DF80C3013F0CB
:102B1000080F1ED1244C4B212046FEF749F904F042
:102B200067FC204B0A9301238DF82E308DF82C3052
:102B300000238DF82D3003AB0CAA12E9070083E8BF
:102B40000700059A00920CCB4B212046FEF7CCF8EB
:102B5000BFE7164B187804EB002080B2023080B239
:102B600018238DF80C30012203A9FEF721FA4B211E
:102B70000D48FEF71DF9002012E00C4B187804EB0D
:102B8000002080B2023080B210238DF80C30012278
:102B900003A9FEF70DFA4B210348FEF709F90120BE
:102BA0000DB030BD80DE8002B438002054390020E2
:102BB00008B54FF6FF710120FFF7E6FA08BD0000E7
:102BC000012800D070474FF6FF739942FAD100B543
:102BD00083B0002100910B460A46034804F024FB11
:102BE00003B05DF804FB00BFE839002010B50446CF
:102BF00004F012FB0023E3604FF47A732361054B6A
:102C0000A36004F11C0004F007FB082384F82830BB
:102C1000204610BDB084000830B583B004460D4690
:102C20001146684604F024FB69462846FFF740F841
:102C300041F6361104F10800FFF7C8F803B030BDC3
:102C400070B582B0044600F108052846FFF768F920
:102C500080B2A4F83E02013880B240F211239842BB
:102C600003D90025284602B070BD40F2122204F1BB
:102C70002C012846FFF737F9236A63600023072BEE
:102C800009D8E21892F82C101A4AD25C91422ED13F
:102C90000133DBB2F3E794F8345094F8353045EA69
:102CA0000325A4F84052B5F5A04F04D0B5F5005F58
:102CB000D8D00025D6E794F8382084F8422294F83A
:102CC0003A0094F83B3040EA0320A4F8440294F818
:102CD0003D1094F83C3041EA0321A4F84612D4F8A0
:102CE0004862002EBED004F13E03B047BAE700258B
:102CF000B8E700BF8883000808B54FF6FF710120D0
:102D0000FFF75EFF08BD000008B5024800F092FA28
:102D100008BD00BFAC35002000B595B030220021C1
:102D200008A804F03DFF0023039304930593069342
:102D300007930193234A116C41F080511164126C86
:102D400002F080520192019A02931F4B1A6842F4DA
:102D500080421A601B6803F480430293029B0123A4
:102D600008934FF48033099302220E924FF48003AC
:102D70000F9304231093A82111911292139308A882
:102D800001F034FC98B90F2303930223049300232A
:102D900005934FF4A05306934FF4805307930521F6
:102DA00003A801F059FE38B915B05DF804FBE32122
:102DB000064803F0D4FBE6E7F021044803F0CFFB1C
:102DC000F2E700BF00380240007000403889000878
:102DD00010B504460E4B18784FF47A73B3FBF0F33A
:102DE0000C4A1068B0FBF3F000F0AAF868B90F2C99
:102DF00001D901200AE0002221464FF0FF3000F007
:102E00004BF8054B1C60002000E0012010BD00BF06
:102E10000E000020380000201000002008B50B4BE9
:102E20001A6842F400721A601A6842F480621A60EA
:102E30001A6842F480721A60032000F01BF8002028
:102E4000FFF7C6FFFDF75EFC002008BD003C024016
:102E5000034A1168034B1B780B441360704700BF93
:102E6000143D00200E000020014B1868704700BF81
:102E7000143D0020074AD36823F4E0631B041B0CB5
:102E8000000200F4E060184340F0BF6040F40030FE
:102E9000D060704700ED00E030B4174BDB68C3F33F
:102EA0000223C3F10704042C28BF04241D1D062D92
:102EB00001D9033B00E000234FF0FF3505FA04F48D
:102EC00021EA0401994005FA03F322EA03031943B6
:102ED000002809DB0901C9B200F1604000F561403A
:102EE00080F8001330BC704700F00F000901C9B230
:102EF000024B1954F6E700BF00ED00E014ED00E0CE
:102F0000002807DB00F01F02400901239340024A1A
:102F100042F82030704700BF00E100E000280CDBE1
:102F200000F01F024009012393402030034A42F879
:102F30002030BFF34F8FBFF36F8F704700E100E089
:102F40000138B0F1807F0AD2064B5860064AF02162
:102F500082F823100020986007221A607047012031
:102F6000704700BF10E000E000ED00E0002808DB43
:102F700000F01F024009012393406030014A42F8EB
:102F80002030704700E100E0704708B5FFF7FCFF14
:102F900008BD50B110B504460223037102F02EFEA5
:102FA000002020612071607110BD0120704710B4B5
:102FB00004682368012202FA01F123EA0103236075
:102FC000027100205DF8044B704730B405682C682E
:102FD00024F480242C60046863608368402B05D04F
:102FE000036899600368DA6030BC704703689A60D0
:102FF0000368D960F8E7000010B40368D9B210394B
:103000000C4AA2FB014212090B4CA25CC2655F296B
:1030100009D923F47F7323F0030304338365806DA0
:103020005DF8044B704723F47F7323F0030383653B
:10303000F5E700BFABAAAAAA308A0008836A8269B2
:1030400092B9012B0AD01BB1022B01D0002070478E
:10305000C36A13F0807F28D100207047C36AB3F1A0
:10306000C07F24D000207047B2F5005F09D0022B4A
:1030700025D9032B25D1C36A13F0807F23D10020EB
:103080007047032B03D8DFE803F01404140A002070
:103090007047C36A13F0807F0DD100207047C36A68
:1030A000B3F1C07F09D00020704701207047012094
:1030B00070470120704701207047012070470120B0
:1030C00070470020704701207047000070B504462B
:1030D000FFF7CAFE002C5BD00546002384F834308D
:1030E000022384F835302268136823F0010313604B
:1030F00023681A6812F0010F0AD0FFF7B5FE401BD3
:103100000528F5D920236365032084F8350070BDB8
:103110001A68204810406168A2680A43E1680A43BF
:1031200021690A4361690A43A1690A43E1690A43C3
:10313000216A0A430243616A04291ED01A60266884
:10314000756925F00705636A1D43042B07D1A36A3F
:103150001D43E36A1BB12046FFF770FF90B975610C
:103160002046FFF749FFE26D3F2393408360002034
:103170006065012384F83530C9E7E16A206B0143BB
:103180000A43DBE740236365012084F83500BEE78E
:103190000120BCE73F8010F038B5856D90F83440D1
:1031A000012C31D0012480F8344090F83540E4B24D
:1031B000012C04D0002380F83430022038BD0446AE
:1031C000022084F83500002060652046FFF7FDFEF0
:1031D000E26D3F239340AB602268136843F016030F
:1031E00013602268536943F080035361236C23B159
:1031F0002268136843F0080313602268136843F0E1
:10320000010313600020D9E70220D7E790F835309A
:10321000DBB2022B03D080234365012070470523D6
:1032200080F835300268136823F001031360002032
:1032300070470000F0B583B0044600230193724B41
:103240001D68724BA3FB0535AD0A876D3E68C26DE4
:1032500008239340334210D003681A6812F0040F19
:103260000BD01A6822F004021A60C26D0823934042
:10327000BB60436D43F001034365E26D012393405E
:10328000334209D02268526912F0800F04D0BB602B
:10329000636D43F002036365E26D042393403342A0
:1032A00009D02268126812F0020F04D0BB60636D6F
:1032B00043F004036365E26D10239340334224D04E
:1032C0002268126812F0080F1FD0BB6023681A68CA
:1032D00012F4802F0DD01B6813F4002F04D1236C3F
:1032E0009BB12046984710E0A36C73B120469847E5
:1032F0000BE01A6812F4807F03D11A6822F00802EA
:103300001A60236C0BB120469847E26D202393404E
:10331000334255D02268126812F0100F50D0BB60B3
:1033200094F83530DBB2052B0ED023681A6812F4FE
:10333000802F33D01B6813F4002F2AD1636C002B2D
:103340003ED0204698473BE02268136823F01603DE
:1033500013602268536923F080035361236CA3B187
:103360002268136823F008031360E26D3F23934043
:10337000BB60002384F83430012384F83530236D9A
:10338000002B3FD0204698473CE0A36C002BE7D1B0
:10339000EBE7E36BA3B12046984711E01A6812F4FB
:1033A000807F09D11A6822F010021A60002384F885
:1033B0003430012384F83530E36B0BB12046984755
:1033C000636DFBB1636D13F0010F17D0052384F813
:1033D00035302268136823F001031360019B013329
:1033E0000193AB4204D823681B6813F0010FF5D199
:1033F000002384F83430012384F83530E36C0BB1BA
:103400002046984703B0F0BD38000020B5814E1B20
:10341000034690F83400012827D0012083F83400B7
:1034200093F83500C0B2012804D00120002283F8AF
:1034300034207047052916D8DFE801F00306090C8F
:103440000F12DA630020F1E71A640020EEE75A64F5
:103450000020EBE79A640020E8E7DA640020E5E763
:103460001A650020E2E70020E0E70220704790F8AC
:103470003500704700230F2B00F2D680F0B482B0E5
:1034800039E0072200E00022B2403A430235674E9D
:1034900046F82520664A1568E24302EA05064F68A9
:1034A00017F4803F01D044EA0506614D2E606D6837
:1034B00002EA05064F6817F4003F01D044EA05060A
:1034C0005B4D6E60AD6802EA05064F6817F4801F19
:1034D00001D044EA0506564DAE60ED682A404E68BC
:1034E00016F4001F01D044EA0502514CE26001339A
:1034F0000F2B00F2968001229A400C681440A242E1
:10350000F5D14D68022D01D0122D10D1DE080836FC
:1035100050F826C003F00705AF000F25BD402CEA88
:10352000050C0D69BD4045EA0C0540F826500668BB
:103530005F000325BD40ED4305EA060C4E6806F02A
:103540000306BE4046EA0C0606604E6806F1FF3CE4
:10355000BCF1010F03D9112E01D0122E10D18668B3
:1035600005EA060CCE68BE4046EA0C068660466850
:1035700026EA02024E68C6F300169E4016434660D5
:10358000C26815408A68BA402A43C2604A6812F08D
:10359000805FACD000220192264A556C45F48045EC
:1035A0005564526C02F480420192019A9D08AE1C4F
:1035B0001E4A52F8267003F0030296000F22B24012
:1035C00027EA02071C4A90423FF45DAF02F5806291
:1035D00090421AD002F58062904218D002F58062C3
:1035E000904216D002F58062904214D002F58062BB
:1035F000904212D002F58062904210D002F58062B3
:1036000090423FF43EAF08223EE701223CE702220F
:103610003AE7032238E7042236E7052234E7062298
:1036200032E702B0F0BC7047704700BF003801407D
:10363000003C014000380240000002400AB18161B4
:10364000704709048161704708B5054B5B69034207
:1036500000D108BD024B586102F006FCF9E700BF3B
:10366000003C014090F83E30DBB2402B10D00369A3
:10367000B3F5804F1BD0036D002B3CD1436CC3F3DB
:10368000C813026803F0060343F0F00313617047A8
:10369000036D2BB9436C026803F0FE03136170479E
:1036A000436C026843F00103DBB21361704790F88A
:1036B0003D30DBB2212B0FD0436C026843F0010395
:1036C000DBB21361436B6BB1DB6B7BB10268536898
:1036D00043F4006353607047436C026803F0FE03D9
:1036E0001361EFE7826B002AEED107E0836BDB6B9F
:1036F000002BEBD102E0036D012B00D07047436C2F
:10370000C3F3C813026803F0060343F0F103136127
:10371000F4E7436C0268DBB21361436B3BB1DB6BD4
:103720004BB10268536843F4006353607047826B87
:10373000002AF4D1FAE7836BDB6B002BF1D1F5E7BC
:1037400010B48BB090F83E30DAB2C16A046B90F8D6
:103750003D30DBB2222B0BD00023099303685A695A
:1037600009929B690993099B0BB05DF8044B704764
:10377000036D0BB9402A17D0036D1BB90369B3F56C
:10378000404F19D0438D9BB2002B25D10293036883
:103790005A6902929A690292029A1A6842F4007275
:1037A0001A6000230365DFE7009303685A690092FB
:1037B0009B690093009BD7E70023019303685A6934
:1037C00001929A690192019A1A6842F480721A6011
:1037D000036D01330365C7E7438D9BB2012B25D0F1
:1037E000438D9BB2022B7BD00268136843F4806345
:1037F000136003685A6812F4006F0ED011F5803F11
:1038000007D0012905D0082903D0102901D020298B
:1038100003D15A6842F480525A6000230893036827
:103820005A6908929B690893089BBAE711F5803F93
:1038300011D0082934D0202932D0122C2ED00429BE
:1038400040D002293ED010293CD00268136823F4EE
:10385000806313603BE00268136823F480631360A5
:1038600003685A6812F4006F0CD01A6822F4806260
:103870001A600023039303685A6903929B690393B8
:10388000039B8EE7002204925A6904929A6904927B
:10389000049A1A6842F400721A6082E70129CED0B5
:1038A0000268136823F4806313600023069303689F
:1038B0005A6906929A690692069A1A6842F4007248
:1038C0001A606EE70268136843F480631360002394
:1038D000059303685A6905929B690593059B60E708
:1038E00004290ED002290CD010290AD002681368CE
:1038F00023F4806313600268136843F40063136069
:1039000004E00268136843F48063136003685A6834
:1039100012F4006F0ED011F5803F07D0012905D0B9
:10392000082903D0102901D0202903D15A6842F474
:1039300080525A600023079303685A6907929B6973
:103940000793079B2DE7438D9BB253B1426A0368EF
:1039500012781A61436A01334362438D013B9BB283
:1039600043857047438D9BB253B103681A69436A1C
:103970001A70436A01334362438D013B9BB2438516
:103980007047C36AB3F52A0F04D0C36AB3F12A4F54
:1039900003D070470123C36270470823C362F8E76E
:1039A00030B482B090F83D4004F02804282C34D183
:1039B000002936D0002A36D090F83C40012C34D073
:1039C000012480F83C400468256815F0010F03D1FC
:1039D000256845F00105256005682C6824F400641D
:1039E0002C60292480F83D40202480F83E400024AB
:1039F000046441624285428D0285C362019403687A
:103A00005A6901929A690192019A80F83C405A6879
:103A100042F4E0625A60204600E0022002B030BC6E
:103A200070470120FAE70120F8E70220F6E730B4FA
:103A300082B090F83D4004F02804282C34D10029AD
:103A400036D0002A36D090F83C40012C34D00124E6
:103A500080F83C400468256815F0010F03D1256803
:103A600045F00105256005682C6824F400642C608D
:103A70002A2480F83D40202480F83E40002404643D
:103A800041624285428D0285C362019403685A698E
:103A900001929A690192019A80F83C405A6842F476
:103AA000E0625A60204600E0022002B030BC70475D
:103AB0000120FAE70120F8E70220F6E790F83D3010
:103AC000DBB2202B01D002207047282380F83D3044
:103AD00003681A6812F0010F03D11A6842F001025C
:103AE0001A600268136843F48063136002685368C5
:103AF00043F440735360002070477047704708B527
:103B000090F83D30DAB2438D9BB27BB1416A0368D5
:103B100009781961436A01334362438D013B9BB2CB
:103B20004385438D9BB20BB9292A00D008BD02689A
:103B3000536823F48063536021230363282380F8B0
:103B40003D3002F07CFFF1E708B590F83D30DAB285
:103B5000438D9BB27BB103681969436A1970436A4C
:103B600001334362438D013B9BB24385438D9BB23E
:103B70000BB92A2A00D008BD0268536823F4806379
:103B8000536022230363282380F83D3002F03DFF79
:103B9000F1E708B590F83D3003F02803282B07D053
:103BA00003686FF002025A61002380F83C3008BDC0
:103BB0000268536823F48063536011F0040F0BD044
:103BC000002311F0800F09D18289002180F83C1078
:103BD000194602F0D5FEEAE70123F2E7028BF4E78B
:103BE00008B590F83D30DBB2C26A082A01D0202A1D
:103BF00001D1282B06D0212B1ED003686FF48062E0
:103C00005A6108BD1A4BC3620268536823F4E0632B
:103C1000536003686FF480625A610268136823F48A
:103C20008063136000230363202280F83D2080F826
:103C30003E3002F0CEFEE4E70D4BC3622123036366
:103C4000202380F83D30002380F83E30026853681E
:103C500023F4E063536003686FF480625A61026882
:103C6000136823F48063136002F0E9FEC9E700BF24
:103C70000000FFFF704710B590F83D30DBB290F8C0
:103C80003E20D2B2C46A018D09B9212B04D0212B68
:103C90003BD0402A37D010BD082C04D0202C02D0B5
:103CA00014F5803F19D10268536823F4E063536030
:103CB0000268136843F40073136000230363202336
:103CC00080F83D3090F83E30DBB2402B15D0002319
:103CD00080F83E30FFF711FFDDE70268536823F4F8
:103CE000E063536011230363002380F83E302023F8
:103CF00080F83D30FFF701FFCDE7002380F83E302C
:103D0000FFF7B8FFC7E7222BC5D1438D9BB22BB974
:103D10000268536823F480635360BCE790F83E3038
:103D2000DBB2402B0BD0426A036812781A61436AF7
:103D300001334362438D013B9BB24385ABE7036D87
:103D40009BB9C36C012B08D0836CC3F307230268B3
:103D50001361036D013303659DE7836C0268DBB279
:103D60001361036D0233036595E7036D012B18D0D2
:103D7000036D022B8FD190F83D30DBB2222B18D08F
:103D800090F83D30DBB2212B85D1426A036812786E
:103D90001A61436A01334362438D013B9BB2438501
:103DA00079E7836C0268DBB21361036D013303654D
:103DB00071E70268136843F4807313606BE708B51A
:103DC000C26A90F83D30DBB2212B00D008BD438D94
:103DD0009BB25BB1426A036812781A61436A01338D
:103DE0004362438D013B9BB24385EFE7082A04D031
:103DF000202A02D012F5803F19D10268536823F4BB
:103E0000E06353600268136843F400731360002397
:103E10000363202380F83D3090F83E30DBB2402B26
:103E200015D0002380F83E30FFF767FECEE702682A
:103E3000536823F4E063536011230363002380F885
:103E40003E30202380F83D30FFF757FEBEE70023C9
:103E500080F83E30FFF70EFFB8E7704708B590F8DE
:103E60003D30DBB2222B00D008BD438D9BB2032B2B
:103E700014D903681A69436A1A70436A01334362AA
:103E8000438D013B9BB24385438D9BB2032BEBD10A
:103E90000268536823F480635360E5E7C26A022A2C
:103EA000E2D0012BE0D80268136823F4806313602A
:103EB0000268536823F4E063536003681A69436A35
:103EC0001A70436A01334362438D013B9BB24385C1
:103ED000202380F83D3090F83E30DBB2402B07D0F5
:103EE000002380F83E3012230363FFF707FEBBE791
:103EF000002380F83E300363FFF7AFFFB4E708B557
:103F0000C26A438D9BB2042B13D0438D9BB2032B0B
:103F100020D0438D9BB2022B36D003681A69436AC6
:103F20001A70436A01334362438D013B9BB2438560
:103F30000FE00268536823F48063536003681A69D2
:103F4000436A1A70436A01334362438D013B9BB25B
:103F5000438508BD01684B6823F480634B60042AE5
:103F600006D0022A04D00268136823F48063136029
:103F700003681A69436A1A70436A01334362438DC6
:103F8000013B9BB24385E4E7012A0BD0102A09D0FC
:103F9000042A36D0022A34D00268136843F400732E
:103FA000136004E00268136823F4806313600368FD
:103FB0001A69436A1A70426A531C4362438D013B7B
:103FC0009BB2438503681B695370436A01334362A4
:103FD000438D013B9BB243850268536823F44073D1
:103FE0005360202380F83D3090F83E30DBB2402B08
:103FF0000DD0002380F83E3012230363FFF77EFDCF
:10400000A7E70268136843F480631360CFE70023D7
:1040100080F83E300363FFF720FF9AE7704710B542
:10402000806B90F83D20416B0023CB63816BCB63A9
:104030000468216821F4806121604385416B0B6530
:10404000816B0B6501680B6823F001030B6090F82E
:104050003D30DBB2602B0DD0D2B202F02802282A0C
:1040600012D0202380F83D30002380F83E3002F04B
:10407000EDFC10BD202380F83D30002380F83E3059
:104080000364FFF7CBFFF4E70268136843F0010312
:1040900013600268136843F48063136000230363B2
:1040A000282380F83D30E2E710B5044690F83D3013
:1040B000DBB290F83E20D2B2102A33D003F02802AF
:1040C000282A37D02268526812F4006F04D1602B7E
:1040D00002D0202384F83D300023236384F83E304F
:1040E00023685A6812F4006F48D05A6822F40062BC
:1040F0005A60626B92F83530DBB2012B20D0424B14
:104100001365606BFFF782F8002849D022681368B6
:1041100023F001031360202384F83D30606B036DAE
:1041200098473DE0222BC9D101680A6822F4006259
:104130000A60C3E700232363282384F83D30CFE7D8
:10414000A36B314A1A65A06BFFF760F840B3236890
:104150005A6912F0400F05D01A69636A1A70636ACF
:10416000013363622268136823F001031360202384
:1041700084F83D30A06B036D984711E094F83D2022
:10418000D2B2602A16D05A6912F0400F05D01A69CF
:10419000636A1A70636A01336362204602F056FC58
:1041A00094F83D30DBB2226C12F0040F01D0282BC2
:1041B00018D010BD202284F83D20002222645A69C4
:1041C00012F0400F05D01A69636A1A70636A0133EE
:1041D00063622268136823F0010313602046FFF72F
:1041E0001DFFDDE72268536823F4E0635360074B4B
:1041F000E36200232363202284F83D2084F83E30CC
:10420000204602F0E6FBD4E71F4000080000FFFF55
:1042100030B583B0044690F83D50EDB20268536863
:1042200023F4E06353600023019303685A69019209
:104230001A6842F001021A60019B0268136823F4B5
:104240008063136003685A6812F4006F38D0222D1F
:1042500021D02A2D1FD0426B1268526892B242853B
:10426000428D92B21AB1026C42F0040202645A68A2
:1042700022F400625A60606BFFF7F9F801281FD042
:10428000636B434A1A65606BFEF7C0FFC0B1606B99
:10429000036D984714E0A26B1268526892B262856F
:1042A000628D92B21AB1226C42F0040222645A6802
:1042B00022F400625A60A06BFFF7D9F8012840D1C0
:1042C000638D9BB223B323685A6912F0040F09D09F
:1042D0001A69636A1A70636A01336362638D013B12
:1042E0009BB2638523685A6912F0400F09D01A699E
:1042F000636A1A70636A01336362638D013B9BB228
:104300006385638D9BB21BB1236C43F0040323646C
:10431000236C13BB2A2D25D094F83D30DBB2282B1B
:1043200029D0236B222B01D0222D19D10023236306
:10433000202284F83D2084F83E30204602F065FBC0
:104340000EE0A36B124A1A65A06BFEF75FFF002810
:10435000B6D0A06B036D9847B2E72046FFF7A4FEE6
:1043600003B030BD00232363282384F83D3020466A
:1043700002F04BFBD0E7074BE362002323632022CC
:1043800084F83D2084F83E30204602F022FBE7E727
:104390001F4000080000FFFF70B504460268556822
:1043A000C66A90F83E30DBB290F83D10102B14D066
:1043B000C8B2402B11D0236C002B71D0536900215F
:1043C00013F0020F6FD015F4007F6CD0236C03B193
:1043D00091692046FFF7DDFB70BD9069536913F0CA
:1043E000010105D1B6F52A0FF6D0B6F12A4FF3D068
:1043F00011B115F4007F25D113F0080F02D015F488
:10440000007F26D113F0020F02D015F4007F24D1D3
:1044100010F0040F29D0526812F4006FDCD113F0B1
:10442000800F05D015F4806F02D013F0040F18D060
:1044300013F0040FD0D015F4007FCDD02046FFF745
:10444000BEFCC9E72046FFF79CFA2046FFF70AF9B1
:10445000C2E72046FFF75DF9BEE72046FFF770F997
:10446000BAE72046FFF707FCB6E7526812F4006F80
:10447000B2D113F0400F05D015F4806F02D013F0C5
:10448000040F09D013F0040FA6D015F4007FA3D0B9
:104490002046FFF734FD9FE72046FFF7DFFC9BE750
:1044A000916953698CE713F0100F02D015F4007F67
:1044B00017D1212819D0292817D013F0400F05D083
:1044C00015F4806F02D013F0040F27D013F0040FFF
:1044D00082D015F4007F3FF47FAF2046FFF742FA09
:1044E0007AE72046FFF794FE76E713F0800F05D0B9
:1044F00015F4806F02D013F0040F0BD013F0040FEB
:104500003FF46AAF15F4007F3FF466AF2046FFF733
:104510001AFA61E72046FFF7F2FA5DE72046FFF757
:1045200013FB59E7F8B5044603685D695F6815F445
:10453000807F07D017F4807F3BD06FF480725A6180
:10454000012600E0002615F4007F08D017F4807FD4
:1045500005D046F0020623686FF400725A6115F424
:10456000806F18D017F4807F15D094F83E30DBB2FE
:10457000628D91B294F83D20D2B2206B202B1AD0DC
:1045800023686FF480625A6146F0040694F83E3066
:10459000DBB2102B1DD015F4006F08D017F4807F0C
:1045A00005D046F0080623686FF400625A61B6B978
:1045B000F8BD0026C7E70029E2D1212A05D0292A23
:1045C00003D0282ADCD12128DAD12046FFF708FBC6
:1045D000E1E72268136843F400731360DBE7236CA0
:1045E0001E4326642046FFF75FFDE1E7002800F048
:1045F000B98170B582B00446036813F0010F3BD057
:10460000A64B9B6803F00C03042B2CD0A34B9B6898
:1046100003F00C03082B21D06368B3F5803F4FD023
:10462000B3F5A02F52D09D4B1A6822F480321A6045
:104630001A6822F480221A606368002B50D0FEF7BB
:1046400013FC0546954B1B6813F4003F14D1FEF78D
:104650000BFC401B6428F5D903208AE18F4B5B6873
:1046600013F4800FD8D08D4B1B6813F4003F03D098
:104670006368002B00F07881236813F0020F54D098
:10468000864B9B6813F00C0F3ED0844B9B6803F065
:104690000C03082B33D0E368002B67D0804B01223A
:1046A0001A60FEF7E1FB05467C4B1B6813F0020F16
:1046B00053D1FEF7D9FB401B0228F5D9032058E15E
:1046C000764A136843F480331360B5E7734B1A6876
:1046D00042F480221A601A6842F480321A60ABE712
:1046E000FEF7C2FB05466D4B1B6813F4003FC3D0B9
:1046F000FEF7BAFB401B6428F5D9032039E1674B6C
:104700005B6813F4800FC6D1644B1B6813F0020F73
:1047100003D0E368012B40F02981604A136823F03D
:10472000F803216943EAC1031360236813F0080FFB
:1047300040D0636963B35B4B01221A60FEF794FBC0
:104740000546564B5B6F13F0020F33D1FEF78CFB1F
:10475000401B0228F5D903200BE1504A136823F0CF
:10476000F803216943EAC1031360DEE74C4B0022E2
:104770001A60FEF779FB0546484B1B6813F0020FE1
:10478000D3D0FEF771FB401B0228F5D90320F0E0DF
:10479000444B00221A60FEF767FB05463F4B5B6FF8
:1047A00013F0020F06D0FEF75FFB401B0228F5D97D
:1047B0000320DEE0236813F0040F78D0374B1B6C26
:1047C00013F0805F33D100230193344B1A6C42F015
:1047D00080521A641B6C03F080530193019B0125E6
:1047E000314B1B6813F4807F23D0A368012B34D096
:1047F000052B38D0294B1A6F22F001021A671A6F65
:1048000022F004021A67A368002B36D0FEF72CFBB7
:104810000646224B1B6F13F0020F47D1FEF724FB15
:10482000801B41F288339842F3D90320A1E0002590
:10483000D6E71D4A136843F480731360FEF714FB38
:104840000646194B1B6813F4807FCED1FEF70CFB94
:10485000801B0228F5D903208BE0104A136F43F028
:1048600001031367CFE70D4B1A6F42F004021A677A
:104870001A6F42F001021A67C5E7FEF7F5FA06461D
:10488000064B1B6F13F0020F10D0FEF7EDFA801BE2
:1048900041F288339842F3D903206AE0003802409D
:1048A00000004742800E474200700040E5B9A3690E
:1048B000002B5DD0314A926802F00C02082A5AD0CF
:1048C000022B17D02E4B00221A60FEF7CDFA0446B9
:1048D0002A4B1B6813F0007F42D0FEF7C5FA001B7D
:1048E0000228F5D9032044E0244A136C23F08053B6
:1048F0001364DCE7224B00221A60FEF7B5FA054686
:104900001E4B1B6813F0007F06D0FEF7ADFA401B6C
:104910000228F5D903202CE0E369226A1343626A76
:1049200043EA8213A26A5208013A43EA0243E26A66
:1049300043EA0263114A5360114B01221A60FEF7E9
:1049400093FA04460D4B1B6813F0007F06D1FEF767
:104950008BFA001B0228F5D903200AE0002008E0AA
:10496000002006E001207047012002E0012000E065
:10497000002002B070BD0120FBE700BF00380240FC
:1049800060004742314B9B6803F00C03042B58D066
:10499000082B58D170B52D4B5A6802F03F025B6866
:1049A00013F4800F2AD0294B5868C0F388100546AD
:1049B000002643011B1A66EB0604A10141EA93613C
:1049C0009801C01A61EB0401CB0043EA5073C400A4
:1049D0001946601946EB01014B0243EAD0534402E9
:1049E000204619463346FBF759FC184B5B68C3F366
:1049F000014301335B00B0FBF3F070BD134B58680B
:104A0000C0F388100546002643011B1A66EB060416
:104A1000A10141EA93619801C01A61EB0401CB0046
:104A200043EA5073C4001946601946EB01018B023A
:104A300043EA90538402204619463346FBF72EFC86
:104A4000D3E7034870470348704700BF003802406F
:104A500000127A000024F400002800F09A8070B55B
:104A60000446504B1B6803F00F038B4208D2CBB2B5
:104A70004C4A1370136803F00F038B4240F08B8095
:104A8000236813F0020F17D013F0040F04D0464A26
:104A9000936843F4E0539360236813F0080F04D045
:104AA000414A936843F4604393603F4A936823F01C
:104AB000F003A068034393600D46236813F0010FD1
:104AC00032D06368012B21D09A1E012A25D9364A9B
:104AD000126812F0020F60D033498A6822F0030294
:104AE00013438B60FEF7C0F906462F4B9B6803F01B
:104AF0000C036268B3EB820F16D0FEF7B5F9801B8A
:104B000041F288339842F0D9032041E0264A1268E6
:104B100012F4003FE0D101203AE0234A126812F07B
:104B2000007FD9D1012033E01E4B1B6803F00F0337
:104B3000AB4207D9EAB21B4B1A701B6803F00F0394
:104B4000AB422CD1236813F0040F06D0164A9368A9
:104B500023F4E053E1680B439360236813F0080FDC
:104B600007D0114A936823F46043216943EAC103E3
:104B70009360FFF707FF0C4B9B68C3F303130B4ACB
:104B8000D35CD8400A4B18600020FEF721F90020C2
:104B900070BD012070470120FAE70120F8E70120ED
:104BA000F6E700BF003C024000380240D48A00080B
:104BB00038000020014B1868704700BF3800002003
:104BC00008B5FFF7F7FF044B9B68C3F38223034A42
:104BD000D35CD84008BD00BF00380240E48A00081A
:104BE00008B5FFF7E7FF044B9B68C3F34233034A62
:104BF000D35CD84008BD00BF00380240E48A0008FA
:104C000010B504460368DA6812F4807F03D09B680D
:104C100013F4805F0FD12368DA6812F4007F03D0A9
:104C20009B6813F4005F0FD10C4B4FF400325A61B4
:104C30000123637710BD01F0B7FA2268D368DBB2B5
:104C400063F4C073D360E6E7204600F009F82268F9
:104C5000D368DBB263F42073D360E5E7003C014026
:104C60007047F8B505460F4616461C462B689B68EC
:104C700037EA03030CBF01230023B34237D0B4F15A
:104C8000FF3FF3D0FEF7F0F8069BC01AA04201D216
:104C9000002CEBD12A68536823F0E00353606B6863
:104CA000B3F5827F0BD0AB6AB3F5005F14D001235C
:104CB00085F85130002385F85030032018E0AB68A8
:104CC000B3F5004F02D0B3F5806FECD12A681368BA
:104CD00023F040031360E6E72A68136823F40053C7
:104CE00013602A68136843F400531360DFE7002061
:104CF000F8BD000030B585B0164C2468164DA5FBF4
:104D00000434640D4FF47A7505FB04F4039444688D
:104D1000B4F5827F0BD0039BC3B1039B013B03938C
:104D200003689B6813F0800FF5D100230FE00B465A
:104D30000446009200228021FFF793FF034630B122
:104D4000636D43F020036365032300E000231846EE
:104D500005B030BD38000020819F5E1670470028E6
:104D60003BD010B504460023836290F85130002BED
:104D70002ED0022384F851302268136823F04003B8
:104D800013606368A2681343E26813432269134304
:104D900062691343A26902F400721343E269134388
:104DA000226A1343A16A22680B431360638B03F0EA
:104DB0000403616A22680B4353602268D36923F4B9
:104DC0000063D36100206065012384F8513010BD79
:104DD00080F85030FFF7C2FFCBE7012070472DE984
:104DE000F04383B00A9D90F85040012C00F00D81F3
:104DF0001E46914688460446012380F85030FEF74F
:104E000033F8074694F85130DBB26268012B0AD0C0
:104E1000B2F5827F40F0DE80A268002A40F0E58093
:104E2000042B40F0E480B8F1000F00F0E280B9F10B
:104E3000000F00F0E080002E00F0DF8094F8513089
:104E4000DBB2042B02D0052384F8513000236365C4
:104E5000C4F83890E687A687C4F83080E686A68630
:104E60002364636423681A6812F0400F03D11A6840
:104E700042F040021A60E368B3F5006F10D0636837
:104E80000BB1012E0AD1226B236812781A73236B9F
:104E900001332363E38E013B9BB2E386012667E087
:104EA00063680BB1012E0AD1226B23681288DA6085
:104EB000236B02332363E38E013B9BB2E38601261F
:104EC0001BE023689A6812F0010F0DD0E28F92B2B6
:104ED00052B1DA68A36B1A80A36B0233A363E38F2A
:104EE000013B9BB2E3870126FDF7BEFFC01BA84232
:104EF00003D3B5F1FF3F40F08280E38E9BB21BB934
:104F0000E38F9BB2002B50D023689A6812F0020FF7
:104F1000D7D0E28E92B2002AD3D0002ED1D0226B0D
:104F20001288DA60236B02332363E38E013B9BB26A
:104F3000E3860026C5E723689A6812F0010F0DD0BA
:104F4000E28F92B252B1DA68A36B1A70A36B01338D
:104F5000A363E38F013B9BB2E3870126FDF784FF48
:104F6000C01BA84202D3B5F1FF3F4AD1002D4AD061
:104F7000E38E9BB213B9E38F9BB2B3B123689A68F7
:104F800012F0020FD7D0E28E92B2002AD3D0002EB8
:104F9000D1D0226B12781A73236B01332363E38E13
:104FA000013B9BB2E3860026C5E73A4629462046E8
:104FB000FFF7A0FE034648B9A26862B901922268D1
:104FC000D168019192680192019A04E020236365FF
:104FD000012300E00223012284F85120002284F8FA
:104FE0005020184603B0BDE8F0830223F3E7022304
:104FF000F1E70123EFE70123EDE70123EBE70323CB
:10500000E9E70323E7E70323E5E70223E9E70000F5
:1050100030B4036A23F001030362056A42688469BD
:1050200024F073040B681C4325F002058B682B43A6
:10503000104DA84203D005F58065A84205D123F0A4
:105040000803CD682B4323F004030A4DA84203D084
:1050500005F58065A84205D122F440724D691543DB
:105060008A692A43426084614A684263036230BCB1
:10507000704700BF0000014030B4036A23F480731E
:105080000362036A4268C46924F073040D682C4308
:1050900023F400738D6843EA0523124DA84203D020
:1050A00005F58065A84206D123F40063CD6843EA84
:1050B000052323F480630B4DA84203D005F58065DA
:1050C000A84207D122F440524D6942EA05128D6987
:1050D00042EA05124260C4614A68C263036230BC9E
:1050E000704700BF0000014030B4036A23F48053CE
:1050F0000362036A4468C26922F4E6420D6842EA28
:10510000052223F400538D6843EA0533094DA84274
:1051100003D005F58065A84204D124F480444D698C
:1051200044EA85144460C2614A680264036230BC88
:10513000704700BF0000014010B4036A046A24F005
:1051400001040462846924F0F00444EA021223F0AA
:105150000A030B43826103625DF8044B704710B48D
:10516000036A23F0100303628469036A24F4704421
:1051700044EA023223F0A00343EA0113826103628E
:105180005DF8044B7047836823F07003194341F0C6
:105190000701816070477047704710B5846B012329
:1051A00084F83D30636A83420BD0A36A834210D0F7
:1051B000E36A834210D0236B834204D10823237710
:1051C00001E0012323772046FFF7E6FF0023237742
:1051D00010BD02232377F6E704232377F3E7704714
:1051E00010B5044603681A6912F0020F11D0DA688C
:1051F00012F0020F0DD06FF002021A610123037743
:1052000003689B6913F0030F70D001F04BFF00237C
:10521000237723681A6912F0040F12D0DA6812F0AB
:10522000040F0ED06FF004021A6102232377236863
:105230009B6913F4407F5FD0204601F033FF0023C9
:10524000237723681A6912F0080F12D0DA6812F077
:10525000080F0ED06FF008021A6104232377236829
:10526000DB6913F0030F4ED0204601F01BFF002333
:10527000237723681A6912F0100F12D0DA6812F03F
:10528000100F0ED06FF010021A61082323772368E5
:10529000DB6913F4407F3DD0204601F003FF00237B
:1052A000237723681A6912F0010F03D0DA6812F02D
:1052B000010F36D123681A6912F0800F03D0DA6823
:1052C00012F0800F34D123681A6912F0400F03D016
:1052D000DA6812F0400F32D123681A6912F0200FF9
:1052E00003D0DA6812F0200F30D110BD01F0DEFEDD
:1052F0002046FFF751FF8AE7204601F0D7FE2046FF
:10530000FFF74AFF9BE7204601F0D0FE2046FFF75B
:1053100043FFACE7204601F0C9FE2046FFF73CFF03
:10532000BDE76FF001021A61204601F0C3FEC1E73C
:105330006FF080021A61204600F026FAC3E76FF092
:1053400040021A612046FFF74AFFC5E76FF02002CE
:105350001A61204600F017FAC7E700000368304AD8
:10536000904212D0B0F1804F0FD0A2F57C42904213
:105370000BD002F58062904207D002F58062904225
:1053800003D002F57842904203D123F070034A68BB
:105390001343234A90422AD0B0F1804F27D0A2F580
:1053A0007C42904223D002F5806290421FD002F5E9
:1053B000806290421BD002F57842904217D002F5ED
:1053C0007052904213D002F5806290420FD002F5E5
:1053D000806290420BD0A2F59832904207D002F53D
:1053E0008062904203D002F58062904203D123F4A0
:1053F0004073CA68134323F080034A691343036070
:105400008B68C3620B688362054B984203D003F537
:105410008063984201D10B690363012343617047A4
:1054200000000140B0B110B5044690F83D3063B1C2
:10543000022384F83D30214651F8040BFFF78EFF1C
:10544000012384F83D30002010BD80F83C30FBF78C
:1054500075F9EDE701207047B0B110B5044690F83A
:105460003D3063B1022384F83D30214651F8040BEE
:10547000FFF774FF012384F83D30002010BD80F851
:105480003C30FFF788FEEDE70120704730B4036A37
:1054900023F010030362036A4468826922F4E6423F
:1054A0000D6842EA052223F020038D6843EA0513C4
:1054B000114DA84203D005F58065A84206D123F01E
:1054C0008003CD6843EA051323F040030A4DA84248
:1054D00003D005F58065A84207D124F440644D69E6
:1054E00044EA85048D6944EA8504446082614A681F
:1054F0008263036230BC70470000014038B590F809
:105500003C30012B66D00D460446012380F83C3028
:10551000022380F83D300C2A1AD8DFE802F0071980
:105520001919201919193419191947000068FFF7BA
:105530006FFD2268936943F00803936122689369C1
:1055400023F0040393612268936929690B439361F3
:10555000012384F83D30002084F83C0038BD006809
:10556000FFF794FF2268936943F400639361226814
:10557000936923F48063936122689369296943EAFC
:1055800001239361E4E70068FFF776FD2268D369A1
:1055900043F00803D3612268D36923F00403D36185
:1055A0002268D36929690B43D361D1E70068FFF70B
:1055B0009BFD2268D36943F40063D3612268D369F9
:1055C00023F48063D3612268D369296943EA012304
:1055D000D361BDE70220C1E710B4846824F47F449E
:1055E00042EA03230B43234383605DF8044B704777
:1055F00090F83C30012B67D010B50446012380F8A9
:105600003C30022380F83D300268936823F47F43E6
:1056100023F0770393600B68402B4BD013D9602B9A
:105620003ED025D9702B2FD0B3F5005F19D1CB68B0
:105630004A6889680068FFF7CFFF2268936843F4DF
:10564000804393600DE0102B04D008D9202B01D0AB
:10565000302B06D119462068FFF795FD01E0002B9D
:10566000F8D0012384F83D30002084F83C0010BDC0
:10567000502BF6D1CA6849680068FFF75DFD5021DC
:105680002068FFF780FDECE7CB684A68896800680E
:10569000FFF7A2FF2268936843F077039360E0E787
:1056A000CA6849680068FFF75AFD60212068FFF763
:1056B0006AFDD6E7CA6849680068FFF73DFD4021EA
:1056C0002068FFF760FDCCE70220704710B401F0BE
:1056D0001F01012303FA01F4036A23EA04030362AE
:1056E000036A8A40134303625DF8044B704790F8E5
:1056F0003C30012B1CD070B4012680F83C600223A2
:1057000080F83D3002685568936825F070050C6894
:105710002C4323F080054B682B4354600268936050
:1057200080F83D60002380F83C30184670BC70471C
:105730000220704790F83C30012B22D0012380F8E2
:105740003C30CB6823F440738A68134323F48063AE
:105750004A68134323F400630A68134323F4805315
:105760000A69134323F400534A69134323F4804323
:10577000CA69134302685364002380F83C3018461A
:10578000704702207047704770470268D36823F45F
:105790009073D3600268536923F00103536120239F
:1057A00080F83A30704790F83930DBB2212B01D0C5
:1057B000022070478368B3F5805F16D0036A5A1CD5
:1057C00002621A7803685A60C38C013B9BB2C3849F
:1057D0004BB90268D36823F08003D3600268D368B2
:1057E00043F04003D36000207047036A1B880268BF
:1057F000C3F30803536003691BB9036A02330362EE
:10580000E2E7036A01330362DEE790F83930DBB286
:10581000202B16D1B9B1C2B190F83830012B16D077
:1058200001628284C2840023C363212280F839206C
:1058300080F838300168CA6842F08002CA601846B1
:1058400070470220704701207047012070470220F6
:10585000704790F83A30DBB2202B20D109B312B355
:1058600090F83830012B20D081628285C2850023D8
:10587000C363222280F83A2080F838300168CA6871
:1058800042F48072CA6001684A6942F001024A61CA
:105890000168CA6842F02002CA60184670470220B8
:1058A000704701207047012070470220704708B5FB
:1058B0000168CB6823F04003CB60202380F83930A7
:1058C00001F04FF9002008BD08B590F83A30DBB27E
:1058D000222B45D18368B3F5805F0ED0036903BBEB
:1058E00003685A68836A591C81621A70C38D013B30
:1058F0009BB2C385F3B1002008BD826A036943B936
:1059000003685B68C3F308031380836A023383620E
:10591000ECE703685B68DBB21380836A0133836260
:10592000E4E703685B68826A511C816203F07F03CD
:105930001370DBE70268D36823F02003D3600268AA
:10594000D36823F48073D3600268536923F00103A2
:105950005361202380F83A3001F0FCF80020CBE7B7
:105960000220C9E710B5044602681368D16852697D
:1059700013F00F0005D113F0200F02D011F0200F0B
:1059800013D128B112F0010213D111F4907F10D17C
:1059900013F0800F02D011F0800F69D113F0400F87
:1059A00002D011F0400F67D110BD2046FFF78CFFE9
:1059B000FAE713F0010F06D011F4807F03D0E06BFB
:1059C00040F00100E06313F0040F04D01AB1E06B63
:1059D00040F00200E06313F0020F04D01AB1E06B54
:1059E00040F00400E06313F0080F04D01AB1E26B3A
:1059F00042F00802E263E26B002AD5D013F0200FD8
:105A000002D011F0200F21D123685B6903F040031D
:105A1000E26B12F0080F00D123B32046FFF7B5FE6A
:105A200023685A6912F0400F18D05A6922F04002D8
:105A30005A61636B73B1124A1A65606BFDF7E6FB3E
:105A40000028B1D0606B036D9847ADE72046FFF7A3
:105A50003BFFD9E7204601F099F8A5E7204601F081
:105A600095F8A1E7204601F091F80023E3639BE756
:105A70002046FFF798FE97E72046FFF718FF93E7C9
:105A8000855A000808B5806B0023C385C38401F0E4
:105A90007DF808BD90F8393090F83A001843704707
:105AA0008AB0082800F28680DFE800F00514223072
:105AB0003E4C5A687600002301933F4B1A6B42F02C
:105AC00001021A631B6B03F001030193019B3B4826
:105AD0000AB0704700230293374B1A6B42F0020260
:105AE0001A631B6B03F002030293029B3448EFE737
:105AF00000230393304B1A6B42F004021A631B6BB2
:105B000003F004030393039B2E48E1E7002304936F
